{
  "contractName": "DynamicMultiSig",
  "abi": [
    {
      "inputs": [
        {
          "internalType": "address[]",
          "name": "_managers",
          "type": "address[]"
        }
      ],
      "stateMutability": "nonpayable",
      "type": "constructor"
    },
    {
      "anonymous": false,
      "inputs": [
        {
          "indexed": false,
          "internalType": "address",
          "name": "from",
          "type": "address"
        },
        {
          "indexed": false,
          "internalType": "string",
          "name": "to",
          "type": "string"
        },
        {
          "indexed": false,
          "internalType": "uint256",
          "name": "amount",
          "type": "uint256"
        },
        {
          "indexed": false,
          "internalType": "address",
          "name": "ERC20",
          "type": "address"
        }
      ],
      "name": "CrossOutFunds",
      "type": "event"
    },
    {
      "anonymous": false,
      "inputs": [
        {
          "indexed": false,
          "internalType": "address",
          "name": "from",
          "type": "address"
        },
        {
          "indexed": false,
          "internalType": "string",
          "name": "to",
          "type": "string"
        },
        {
          "indexed": false,
          "internalType": "uint256",
          "name": "tokenId",
          "type": "uint256"
        },
        {
          "indexed": false,
          "internalType": "address",
          "name": "ERC721",
          "type": "address"
        }
      ],
      "name": "CrossOutNFT",
      "type": "event"
    },
    {
      "anonymous": false,
      "inputs": [
        {
          "indexed": false,
          "internalType": "address",
          "name": "from",
          "type": "address"
        },
        {
          "indexed": false,
          "internalType": "uint256",
          "name": "amount",
          "type": "uint256"
        }
      ],
      "name": "DepositFunds",
      "type": "event"
    },
    {
      "anonymous": false,
      "inputs": [
        {
          "indexed": false,
          "internalType": "address",
          "name": "to",
          "type": "address"
        },
        {
          "indexed": false,
          "internalType": "uint256",
          "name": "amount",
          "type": "uint256"
        }
      ],
      "name": "TransferFunds",
      "type": "event"
    },
    {
      "anonymous": false,
      "inputs": [
        {
          "indexed": false,
          "internalType": "string",
          "name": "txKey",
          "type": "string"
        }
      ],
      "name": "TxManagerChangeCompleted",
      "type": "event"
    },
    {
      "anonymous": false,
      "inputs": [
        {
          "indexed": false,
          "internalType": "string",
          "name": "txKey",
          "type": "string"
        }
      ],
      "name": "TxUpgradeCompleted",
      "type": "event"
    },
    {
      "anonymous": false,
      "inputs": [
        {
          "indexed": false,
          "internalType": "string",
          "name": "txKey",
          "type": "string"
        }
      ],
      "name": "TxWithdrawCompleted",
      "type": "event"
    },
    {
      "stateMutability": "payable",
      "type": "fallback"
    },
    {
      "inputs": [],
      "name": "current_min_signatures",
      "outputs": [
        {
          "internalType": "uint8",
          "name": "",
          "type": "uint8"
        }
      ],
      "stateMutability": "view",
      "type": "function"
    },
    {
      "inputs": [],
      "name": "max_managers",
      "outputs": [
        {
          "internalType": "uint256",
          "name": "",
          "type": "uint256"
        }
      ],
      "stateMutability": "view",
      "type": "function"
    },
    {
      "inputs": [],
      "name": "min_managers",
      "outputs": [
        {
          "internalType": "uint256",
          "name": "",
          "type": "uint256"
        }
      ],
      "stateMutability": "view",
      "type": "function"
    },
    {
      "inputs": [],
      "name": "owner",
      "outputs": [
        {
          "internalType": "address",
          "name": "",
          "type": "address"
        }
      ],
      "stateMutability": "view",
      "type": "function"
    },
    {
      "inputs": [],
      "name": "rate",
      "outputs": [
        {
          "internalType": "uint256",
          "name": "",
          "type": "uint256"
        }
      ],
      "stateMutability": "view",
      "type": "function"
    },
    {
      "inputs": [],
      "name": "signatureLength",
      "outputs": [
        {
          "internalType": "uint256",
          "name": "",
          "type": "uint256"
        }
      ],
      "stateMutability": "view",
      "type": "function"
    },
    {
      "inputs": [],
      "name": "upgrade",
      "outputs": [
        {
          "internalType": "bool",
          "name": "",
          "type": "bool"
        }
      ],
      "stateMutability": "view",
      "type": "function"
    },
    {
      "inputs": [],
      "name": "upgradeContractAddress",
      "outputs": [
        {
          "internalType": "address",
          "name": "",
          "type": "address"
        }
      ],
      "stateMutability": "view",
      "type": "function"
    },
    {
      "stateMutability": "payable",
      "type": "receive"
    },
    {
      "inputs": [
        {
          "internalType": "string",
          "name": "txKey",
          "type": "string"
        },
        {
          "internalType": "address payable",
          "name": "to",
          "type": "address"
        },
        {
          "internalType": "uint256",
          "name": "amount",
          "type": "uint256"
        },
        {
          "internalType": "bool",
          "name": "isERC20",
          "type": "bool"
        },
        {
          "internalType": "address",
          "name": "ERC20",
          "type": "address"
        },
        {
          "internalType": "bytes",
          "name": "signatures",
          "type": "bytes"
        }
      ],
      "name": "createOrSignWithdraw",
      "outputs": [],
      "stateMutability": "nonpayable",
      "type": "function"
    },
    {
      "inputs": [
        {
          "internalType": "string",
          "name": "txKey",
          "type": "string"
        },
        {
          "internalType": "address",
          "name": "ERC721",
          "type": "address"
        },
        {
          "internalType": "address",
          "name": "to",
          "type": "address"
        },
        {
          "internalType": "uint256",
          "name": "tokenId",
          "type": "uint256"
        },
        {
          "internalType": "string",
          "name": "tokenURI",
          "type": "string"
        },
        {
          "internalType": "bytes",
          "name": "signatures",
          "type": "bytes"
        }
      ],
      "name": "createOrSignWithdrawNFT",
      "outputs": [],
      "stateMutability": "nonpayable",
      "type": "function"
    },
    {
      "inputs": [
        {
          "internalType": "string",
          "name": "txKey",
          "type": "string"
        },
        {
          "internalType": "address[]",
          "name": "adds",
          "type": "address[]"
        },
        {
          "internalType": "address[]",
          "name": "removes",
          "type": "address[]"
        },
        {
          "internalType": "uint8",
          "name": "count",
          "type": "uint8"
        },
        {
          "internalType": "bytes",
          "name": "signatures",
          "type": "bytes"
        }
      ],
      "name": "createOrSignManagerChange",
      "outputs": [],
      "stateMutability": "nonpayable",
      "type": "function"
    },
    {
      "inputs": [
        {
          "internalType": "string",
          "name": "txKey",
          "type": "string"
        },
        {
          "internalType": "address",
          "name": "upgradeContract",
          "type": "address"
        },
        {
          "internalType": "bytes",
          "name": "signatures",
          "type": "bytes"
        }
      ],
      "name": "createOrSignUpgrade",
      "outputs": [],
      "stateMutability": "nonpayable",
      "type": "function"
    },
    {
      "inputs": [],
      "name": "closeUpgrade",
      "outputs": [],
      "stateMutability": "nonpayable",
      "type": "function"
    },
    {
      "inputs": [],
      "name": "upgradeContractS1",
      "outputs": [],
      "stateMutability": "nonpayable",
      "type": "function"
    },
    {
      "inputs": [
        {
          "internalType": "address",
          "name": "ERC20",
          "type": "address"
        }
      ],
      "name": "upgradeContractS2",
      "outputs": [],
      "stateMutability": "nonpayable",
      "type": "function"
    },
    {
      "inputs": [
        {
          "internalType": "address",
          "name": "ERC20",
          "type": "address"
        }
      ],
      "name": "isMinterERC20",
      "outputs": [
        {
          "internalType": "bool",
          "name": "",
          "type": "bool"
        }
      ],
      "stateMutability": "view",
      "type": "function"
    },
    {
      "inputs": [
        {
          "internalType": "address",
          "name": "ERC20",
          "type": "address"
        }
      ],
      "name": "registerMinterERC20",
      "outputs": [],
      "stateMutability": "nonpayable",
      "type": "function"
    },
    {
      "inputs": [
        {
          "internalType": "address",
          "name": "ERC20",
          "type": "address"
        }
      ],
      "name": "unregisterMinterERC20",
      "outputs": [],
      "stateMutability": "nonpayable",
      "type": "function"
    },
    {
      "inputs": [
        {
          "internalType": "address",
          "name": "ERC721",
          "type": "address"
        }
      ],
      "name": "isMinterERC721",
      "outputs": [
        {
          "internalType": "bool",
          "name": "",
          "type": "bool"
        }
      ],
      "stateMutability": "view",
      "type": "function"
    },
    {
      "inputs": [
        {
          "internalType": "address",
          "name": "ERC721",
          "type": "address"
        }
      ],
      "name": "registerMinterERC721",
      "outputs": [],
      "stateMutability": "nonpayable",
      "type": "function"
    },
    {
      "inputs": [
        {
          "internalType": "address",
          "name": "ERC721",
          "type": "address"
        }
      ],
      "name": "unregisterMinterERC721",
      "outputs": [],
      "stateMutability": "nonpayable",
      "type": "function"
    },
    {
      "inputs": [
        {
          "internalType": "string",
          "name": "to",
          "type": "string"
        },
        {
          "internalType": "uint256",
          "name": "amount",
          "type": "uint256"
        },
        {
          "internalType": "address",
          "name": "ERC20",
          "type": "address"
        }
      ],
      "name": "crossOut",
      "outputs": [
        {
          "internalType": "bool",
          "name": "",
          "type": "bool"
        }
      ],
      "stateMutability": "payable",
      "type": "function"
    },
    {
      "inputs": [
        {
          "internalType": "string",
          "name": "to",
          "type": "string"
        },
        {
          "internalType": "address",
          "name": "ERC721",
          "type": "address"
        },
        {
          "internalType": "uint256",
          "name": "tokenId",
          "type": "uint256"
        }
      ],
      "name": "crossOutNFT",
      "outputs": [
        {
          "internalType": "bool",
          "name": "",
          "type": "bool"
        }
      ],
      "stateMutability": "nonpayable",
      "type": "function"
    },
    {
      "inputs": [
        {
          "internalType": "string",
          "name": "txKey",
          "type": "string"
        }
      ],
      "name": "isCompletedTx",
      "outputs": [
        {
          "internalType": "bool",
          "name": "",
          "type": "bool"
        }
      ],
      "stateMutability": "view",
      "type": "function"
    },
    {
      "inputs": [
        {
          "internalType": "address",
          "name": "_manager",
          "type": "address"
        }
      ],
      "name": "ifManager",
      "outputs": [
        {
          "internalType": "bool",
          "name": "",
          "type": "bool"
        }
      ],
      "stateMutability": "view",
      "type": "function"
    },
    {
      "inputs": [],
      "name": "allManagers",
      "outputs": [
        {
          "internalType": "address[]",
          "name": "",
          "type": "address[]"
        }
      ],
      "stateMutability": "view",
      "type": "function"
    }
  ],
  "bytecode": "0x608060405260008060006101000a81548160ff02191690831515021790555060008060016101000a81548173ffffffffffffffffffffffffffffffffffffffff021916908373ffffffffffffffffffffffffffffffffffffffff160217905550600f6001556003600255604260035560416004553480156200008057600080fd5b506040516200773e3803806200773e8339818101604052810190620000a69190620006ed565b60015481511115620000ef576040517f08c379a0000000000000000000000000000000000000000000000000000000008152600401620000e690620008f0565b60405180910390fd5b6002548151101562000138576040517f08c379a00000000000000000000000000000000000000000000000000000000081526004016200012f90620008ac565b60405180910390fd5b33600560016101000a81548173ffffffffffffffffffffffffffffffffffffffff021916908373ffffffffffffffffffffffffffffffffffffffff16021790555080600990805190602001906200019192919062000586565b5060005b6009805490508160ff161015620004095760016008600060098460ff1681548110620001ea577f4e487b7100000000000000000000000000000000000000000000000000000000600052603260045260246000fd5b9060005260206000200160009054906101000a900473ffffffffffffffffffffffffffffffffffffffff1673ffffffffffffffffffffffffffffffffffffffff1673ffffffffffffffffffffffffffffffffffffffff16815260200190815260200160002060006101000a81548160ff021916908360ff16021790555060016006600060098460ff1681548110620002ab577f4e487b7100000000000000000000000000000000000000000000000000000000600052603260045260246000fd5b9060005260206000200160009054906101000a900473ffffffffffffffffffffffffffffffffffffffff1673ffffffffffffffffffffffffffffffffffffffff1673ffffffffffffffffffffffffffffffffffffffff16815260200190815260200160002060006101000a81548160ff021916908360ff160217905550600760098260ff168154811062000368577f4e487b7100000000000000000000000000000000000000000000000000000000600052603260045260246000fd5b9060005260206000200160009054906101000a900473ffffffffffffffffffffffffffffffffffffffff169080600181540180825580915050600190039060005260206000200160009091909190916101000a81548173ffffffffffffffffffffffffffffffffffffffff021916908373ffffffffffffffffffffffffffffffffffffffff1602179055508080620004009062000b24565b91505062000195565b50600060086000600560019054906101000a900473ffffffffffffffffffffffffffffffffffffffff1673ffffffffffffffffffffffffffffffffffffffff1673ffffffffffffffffffffffffffffffffffffffff16815260200190815260200160002060009054906101000a900460ff1660ff1614620004c1576040517f08c379a0000000000000000000000000000000000000000000000000000000008152600401620004b89062000912565b60405180910390fd5b620004d7600980549050620004f860201b60201c565b600560006101000a81548160ff021916908360ff1602179055505062000bfa565b60008082116200053f576040517f08c379a00000000000000000000000000000000000000000000000000000000081526004016200053690620008ce565b60405180910390fd5b6000600160648460035462000555919062000a3d565b620005619190620009a8565b6200056d919062000a9e565b90506064816200057e919062000a05565b915050919050565b82805482825590600052602060002090810192821562000602579160200282015b82811115620006015782518260006101000a81548173ffffffffffffffffffffffffffffffffffffffff021916908373ffffffffffffffffffffffffffffffffffffffff16021790555091602001919060010190620005a7565b5b50905062000611919062000615565b5090565b5b808211156200063057600081600090555060010162000616565b5090565b60006200064b620006458462000968565b62000934565b905080838252602082019050828560208602820111156200066b57600080fd5b60005b858110156200069f5781620006848882620006a9565b8452602084019350602083019250506001810190506200066e565b5050509392505050565b600081519050620006ba8162000be0565b92915050565b600082601f830112620006d257600080fd5b8151620006e484826020860162000634565b91505092915050565b6000602082840312156200070057600080fd5b600082015167ffffffffffffffff8111156200071b57600080fd5b6200072984828501620006c0565b91505092915050565b60006200074160278362000997565b91507f4e6f74207265616368696e6720746865206d696e206e756d626572206f66206d60008301527f616e6167657273000000000000000000000000000000000000000000000000006020830152604082019050919050565b6000620007a960148362000997565b91507f4d616e616765722043616e277420656d7074792e0000000000000000000000006000830152602082019050919050565b6000620007eb60278362000997565b91507f457863656564656420746865206d6178696d756d206e756d626572206f66206d60008301527f616e6167657273000000000000000000000000000000000000000000000000006020830152604082019050919050565b60006200085360268362000997565b91507f436f6e74726163742063726561746f722063616e6e6f7420616374206173206d60008301527f616e6167657200000000000000000000000000000000000000000000000000006020830152604082019050919050565b60006020820190508181036000830152620008c78162000732565b9050919050565b60006020820190508181036000830152620008e9816200079a565b9050919050565b600060208201905081810360008301526200090b81620007dc565b9050919050565b600060208201905081810360008301526200092d8162000844565b9050919050565b6000604051905081810181811067ffffffffffffffff821117156200095e576200095d62000bb1565b5b8060405250919050565b600067ffffffffffffffff82111562000986576200098562000bb1565b5b602082029050602081019050919050565b600082825260208201905092915050565b6000620009b58262000b0d565b9150620009c28362000b0d565b9250827fffffffffffffffffffffffffffffffffffffffffffffffffffffffffffffffff03821115620009fa57620009f962000b53565b5b828201905092915050565b600062000a128262000b0d565b915062000a1f8362000b0d565b92508262000a325762000a3162000b82565b5b828204905092915050565b600062000a4a8262000b0d565b915062000a578362000b0d565b9250817fffffffffffffffffffffffffffffffffffffffffffffffffffffffffffffffff048311821515161562000a935762000a9262000b53565b5b828202905092915050565b600062000aab8262000b0d565b915062000ab88362000b0d565b92508282101562000ace5762000acd62000b53565b5b828203905092915050565b600062000ae68262000aed565b9050919050565b600073ffffffffffffffffffffffffffffffffffffffff82169050919050565b6000819050919050565b600060ff82169050919050565b600062000b318262000b17565b915060ff82141562000b485762000b4762000b53565b5b600182019050919050565b7f4e487b7100000000000000000000000000000000000000000000000000000000600052601160045260246000fd5b7f4e487b7100000000000000000000000000000000000000000000000000000000600052601260045260246000fd5b7f4e487b7100000000000000000000000000000000000000000000000000000000600052604160045260246000fd5b62000beb8162000ad9565b811462000bf757600080fd5b50565b616b348062000c0a6000396000f3fe6080604052600436106101845760003560e01c80637de24876116100d1578063ad4b61a81161008a578063d4cacbaa11610064578063d4cacbaa146105b1578063d55ec697146105c8578063e079cee9146105f3578063f7f2ff741461061e576101c4565b8063ad4b61a814610520578063bc8870ed1461054b578063c76bbdc514610574576101c4565b80637de24876146104125780638da5cb5b1461043b5780639c30b35e146104665780639dcdc97814610491578063a5e399b3146104ba578063ab6c2b10146104f7576101c4565b80632c4e722e1161013e578063408e8b7a11610118578063408e8b7a146103465780635bda3fcf1461036f5780636a7142e11461039857806375173b70146103d5576101c4565b80632c4e722e146102c757806330b2d84d146102f257806334774b711461031d576101c4565b8062719226146101c65780630889d1f0146101ef5780631b9a93231461021f5780631c702f351461024a5780631dda9c0514610273578063279fb6e01461028a576101c4565b366101c4577fd241e73300212f6df233a8e6d3146b88a9d4964e06621d54b5ff6afeba7b1b8833346040516101ba929190615e50565b60405180910390a1005b005b3480156101d257600080fd5b506101ed60048036038101906101e89190614c6d565b610649565b005b61020960048036038101906102049190614d44565b610952565b6040516102169190615e9b565b60405180910390f35b34801561022b57600080fd5b50610234610d58565b60405161024191906165dc565b60405180910390f35b34801561025657600080fd5b50610271600480360381019061026c9190614ab0565b610d5e565b005b34801561027f57600080fd5b506102886110a4565b005b34801561029657600080fd5b506102b160048036038101906102ac919061493b565b61127e565b6040516102be9190615e9b565b60405180910390f35b3480156102d357600080fd5b506102dc6112d9565b6040516102e991906165dc565b60405180910390f35b3480156102fe57600080fd5b506103076112df565b6040516103149190615d30565b60405180910390f35b34801561032957600080fd5b50610344600480360381019061033f919061493b565b611305565b005b34801561035257600080fd5b5061036d60048036038101906103689190614b87565b611507565b005b34801561037b57600080fd5b506103966004803603810190610391919061493b565b61187d565b005b3480156103a457600080fd5b506103bf60048036038101906103ba919061493b565b611c83565b6040516103cc9190615e9b565b60405180910390f35b3480156103e157600080fd5b506103fc60048036038101906103f7919061493b565b611cde565b6040516104099190615e9b565b60405180910390f35b34801561041e57600080fd5b506104396004803603810190610434919061493b565b611d3a565b005b34801561044757600080fd5b50610450611f3c565b60405161045d9190615d30565b60405180910390f35b34801561047257600080fd5b5061047b611f62565b6040516104889190615e79565b60405180910390f35b34801561049d57600080fd5b506104b860048036038101906104b3919061493b565b611ff0565b005b3480156104c657600080fd5b506104e160048036038101906104dc91906149b6565b61211a565b6040516104ee9190615e9b565b60405180910390f35b34801561050357600080fd5b5061051e600480360381019061051991906149f7565b612154565b005b34801561052c57600080fd5b506105356125b3565b60405161054291906165dc565b60405180910390f35b34801561055757600080fd5b50610572600480360381019061056d919061493b565b6125b9565b005b34801561058057600080fd5b5061059b60048036038101906105969190614c06565b6126e3565b6040516105a89190615e9b565b60405180910390f35b3480156105bd57600080fd5b506105c66128c8565b005b3480156105d457600080fd5b506105dd6129c1565b6040516105ea9190615e9b565b60405180910390f35b3480156105ff57600080fd5b506106086129d2565b60405161061591906165f7565b60405180910390f35b34801561062a57600080fd5b506106336129e5565b60405161064091906165dc565b60405180910390f35b6001600860003373ffffffffffffffffffffffffffffffffffffffff1673ffffffffffffffffffffffffffffffffffffffff16815260200190815260200160002060009054906101000a900460ff1660ff16146106db576040517f08c379a00000000000000000000000000000000000000000000000000000000081526004016106d29061623c565b60405180910390fd5b604085511461071f576040517f08c379a0000000000000000000000000000000000000000000000000000000008152600401610716906164bc565b60405180910390fd5b600084511180610730575060008351115b61076f576040517f08c379a00000000000000000000000000000000000000000000000000000000081526004016107669061645c565b60405180910390fd5b6000600b866040516107819190615d19565b908152602001604051809103902060009054906101000a900460ff1660ff16146107e0576040517f08c379a00000000000000000000000000000000000000000000000000000000081526004016107d79061619c565b60405180910390fd5b6107ea84846129eb565b6000858584866002604051602001610806959493929190616034565b6040516020818303038152906040528051906020012090506000600a600083815260200190815260200160002060009054906101000a900460ff1660ff1614610884576040517f08c379a000000000000000000000000000000000000000000000000000000000815260040161087b9061611c565b60405180910390fd5b61088e8183612e4a565b6108cd576040517f08c379a00000000000000000000000000000000000000000000000000000000081526004016108c49061643c565b60405180910390fd5b6108d684612ebf565b6108df85613241565b6108ed6009805490506133cf565b600560006101000a81548160ff021916908360ff16021790555061091386826001613452565b7fac9b82db4e104d515319a481096bfd91a4f40ee10837d5a2c8d51b9a03dc48ae866040516109429190615efb565b60405180910390a1505050505050565b6000803390506000841161099b576040517f08c379a0000000000000000000000000000000000000000000000000000000008152600401610992906162dc565b60405180910390fd5b600073ffffffffffffffffffffffffffffffffffffffff168373ffffffffffffffffffffffffffffffffffffffff1614610ccc5760003414610a12576040517f08c379a0000000000000000000000000000000000000000000000000000000008152600401610a09906161fc565b60405180910390fd5b610a318373ffffffffffffffffffffffffffffffffffffffff166134ba565b610a70576040517f08c379a0000000000000000000000000000000000000000000000000000000008152600401610a67906165bc565b60405180910390fd5b600083905060008173ffffffffffffffffffffffffffffffffffffffff1663dd62ed3e84306040518363ffffffff1660e01b8152600401610ab2929190615d74565b60206040518083038186803b158015610aca57600080fd5b505afa158015610ade573d6000803e3d6000fd5b505050506040513d601f19601f82011682018060405250810190610b029190614dab565b905085811015610b47576040517f08c379a0000000000000000000000000000000000000000000000000000000008152600401610b3e9061639c565b60405180910390fd5b60008273ffffffffffffffffffffffffffffffffffffffff166370a08231856040518263ffffffff1660e01b8152600401610b829190615d30565b60206040518083038186803b158015610b9a57600080fd5b505afa158015610bae573d6000803e3d6000fd5b505050506040513d601f19601f82011682018060405250810190610bd29190614dab565b905086811015610c17576040517f08c379a0000000000000000000000000000000000000000000000000000000008152600401610c0e9061641c565b60405180910390fd5b610c448430898673ffffffffffffffffffffffffffffffffffffffff166134cd909392919063ffffffff16565b610c4d86611c83565b15610cc45760008690508073ffffffffffffffffffffffffffffffffffffffff166342966c68896040518263ffffffff1660e01b8152600401610c9091906165dc565b600060405180830381600087803b158015610caa57600080fd5b505af1158015610cbe573d6000803e3d6000fd5b50505050505b505050610d0f565b833414610d0e576040517f08c379a0000000000000000000000000000000000000000000000000000000008152600401610d059061647c565b60405180910390fd5b5b7f5ddf9724d8fe5d9e12499be2867f93d41a582733dcd65f74a486ad7e3066714681868686604051610d449493929190615e04565b60405180910390a160019150509392505050565b60045481565b6001600860003373ffffffffffffffffffffffffffffffffffffffff1673ffffffffffffffffffffffffffffffffffffffff16815260200190815260200160002060009054906101000a900460ff1660ff1614610df0576040517f08c379a0000000000000000000000000000000000000000000000000000000008152600401610de79061623c565b60405180910390fd5b6040875114610e34576040517f08c379a0000000000000000000000000000000000000000000000000000000008152600401610e2b906164bc565b60405180910390fd5b600073ffffffffffffffffffffffffffffffffffffffff168573ffffffffffffffffffffffffffffffffffffffff161415610ea4576040517f08c379a0000000000000000000000000000000000000000000000000000000008152600401610e9b906160fc565b60405180910390fd5b6000600b88604051610eb69190615d19565b908152602001604051809103902060009054906101000a900460ff1660ff1614610f15576040517f08c379a0000000000000000000000000000000000000000000000000000000008152600401610f0c9061619c565b60405180910390fd5b610f20868686613556565b60008787878787876002604051602001610f409796959493929190615f85565b6040516020818303038152906040528051906020012090506000600a600083815260200190815260200160002060009054906101000a900460ff1660ff1614610fbe576040517f08c379a0000000000000000000000000000000000000000000000000000000008152600401610fb59061611c565b60405180910390fd5b610fc88183612e4a565b611007576040517f08c379a0000000000000000000000000000000000000000000000000000000008152600401610ffe9061643c565b60405180910390fd5b61105787878787878080601f016020809104026020016040519081016040528093929190818152602001838380828437600081840152601f19601f820116905080830192505050505050506137ca565b61106388826001613452565b7f8ed8b1f0dd3babfdf1477ba2b27a5b0d2f1c9148448fd22cf2c75e658293c7b1886040516110929190615efb565b60405180910390a15050505050505050565b3373ffffffffffffffffffffffffffffffffffffffff16600560019054906101000a900473ffffffffffffffffffffffffffffffffffffffff1673ffffffffffffffffffffffffffffffffffffffff1614611134576040517f08c379a000000000000000000000000000000000000000000000000000000000815260040161112b9061651c565b60405180910390fd5b60008054906101000a900460ff16611181576040517f08c379a00000000000000000000000000000000000000000000000000000000081526004016111789061633c565b60405180910390fd5b600073ffffffffffffffffffffffffffffffffffffffff16600060019054906101000a900473ffffffffffffffffffffffffffffffffffffffff1673ffffffffffffffffffffffffffffffffffffffff161415611213576040517f08c379a000000000000000000000000000000000000000000000000000000000815260040161120a906163bc565b60405180910390fd5b600060019054906101000a900473ffffffffffffffffffffffffffffffffffffffff1673ffffffffffffffffffffffffffffffffffffffff166108fc479081150290604051600060405180830381858888f1935050505015801561127b573d6000803e3d6000fd5b50565b600080600d60008473ffffffffffffffffffffffffffffffffffffffff1673ffffffffffffffffffffffffffffffffffffffff16815260200190815260200160002060009054906101000a900460ff1660ff16119050919050565b60035481565b600060019054906101000a900473ffffffffffffffffffffffffffffffffffffffff1681565b3373ffffffffffffffffffffffffffffffffffffffff16600560019054906101000a900473ffffffffffffffffffffffffffffffffffffffff1673ffffffffffffffffffffffffffffffffffffffff1614611395576040517f08c379a000000000000000000000000000000000000000000000000000000000815260040161138c9061651c565b60405180910390fd5b8073ffffffffffffffffffffffffffffffffffffffff163073ffffffffffffffffffffffffffffffffffffffff161415611404576040517f08c379a00000000000000000000000000000000000000000000000000000000081526004016113fb906162bc565b60405180910390fd5b6114238173ffffffffffffffffffffffffffffffffffffffff166134ba565b611462576040517f08c379a0000000000000000000000000000000000000000000000000000000008152600401611459906165bc565b60405180910390fd5b61146b81611c83565b156114ab576040517f08c379a00000000000000000000000000000000000000000000000000000000081526004016114a2906160bc565b60405180910390fd5b6001600c60008373ffffffffffffffffffffffffffffffffffffffff1673ffffffffffffffffffffffffffffffffffffffff16815260200190815260200160002060006101000a81548160ff021916908360ff16021790555050565b6001600860003373ffffffffffffffffffffffffffffffffffffffff1673ffffffffffffffffffffffffffffffffffffffff16815260200190815260200160002060009054906101000a900460ff1660ff1614611599576040517f08c379a00000000000000000000000000000000000000000000000000000000081526004016115909061623c565b60405180910390fd5b60408351146115dd576040517f08c379a00000000000000000000000000000000000000000000000000000000081526004016115d4906164bc565b60405180910390fd5b6000600b846040516115ef9190615d19565b908152602001604051809103902060009054906101000a900460ff1660ff161461164e576040517f08c379a00000000000000000000000000000000000000000000000000000000081526004016116459061619c565b60405180910390fd5b60008054906101000a900460ff161561169c576040517f08c379a00000000000000000000000000000000000000000000000000000000081526004016116939061649c565b60405180910390fd5b6116bb8273ffffffffffffffffffffffffffffffffffffffff166134ba565b6116fa576040517f08c379a00000000000000000000000000000000000000000000000000000000081526004016116f1906165bc565b60405180910390fd5b60008383600260405160200161171293929190615ff6565b6040516020818303038152906040528051906020012090506000600a600083815260200190815260200160002060009054906101000a900460ff1660ff1614611790576040517f08c379a00000000000000000000000000000000000000000000000000000000081526004016117879061611c565b60405180910390fd5b61179a8183612e4a565b6117d9576040517f08c379a00000000000000000000000000000000000000000000000000000000081526004016117d09061643c565b60405180910390fd5b60016000806101000a81548160ff02191690831515021790555082600060016101000a81548173ffffffffffffffffffffffffffffffffffffffff021916908373ffffffffffffffffffffffffffffffffffffffff16021790555061184084826001613452565b7f5e06c4b22547d430736ce834764dbfee08f1c4cf7ae3d53178aa56effa593ed08460405161186f9190615efb565b60405180910390a150505050565b3373ffffffffffffffffffffffffffffffffffffffff16600560019054906101000a900473ffffffffffffffffffffffffffffffffffffffff1673ffffffffffffffffffffffffffffffffffffffff161461190d576040517f08c379a00000000000000000000000000000000000000000000000000000000081526004016119049061651c565b60405180910390fd5b60008054906101000a900460ff1661195a576040517f08c379a00000000000000000000000000000000000000000000000000000000081526004016119519061633c565b60405180910390fd5b600073ffffffffffffffffffffffffffffffffffffffff16600060019054906101000a900473ffffffffffffffffffffffffffffffffffffffff1673ffffffffffffffffffffffffffffffffffffffff1614156119ec576040517f08c379a00000000000000000000000000000000000000000000000000000000081526004016119e3906163bc565b60405180910390fd5b8073ffffffffffffffffffffffffffffffffffffffff163073ffffffffffffffffffffffffffffffffffffffff161415611a5b576040517f08c379a0000000000000000000000000000000000000000000000000000000008152600401611a52906162bc565b60405180910390fd5b611a7a8173ffffffffffffffffffffffffffffffffffffffff166134ba565b611ab9576040517f08c379a0000000000000000000000000000000000000000000000000000000008152600401611ab0906165bc565b60405180910390fd5b600081905060008173ffffffffffffffffffffffffffffffffffffffff166370a08231306040518263ffffffff1660e01b8152600401611af99190615d30565b60206040518083038186803b158015611b1157600080fd5b505afa158015611b25573d6000803e3d6000fd5b505050506040513d601f19601f82011682018060405250810190611b499190614dab565b90506000811015611b8f576040517f08c379a0000000000000000000000000000000000000000000000000000000008152600401611b86906161bc565b60405180910390fd5b611bdc600060019054906101000a900473ffffffffffffffffffffffffffffffffffffffff16828473ffffffffffffffffffffffffffffffffffffffff166138d29092919063ffffffff16565b611be583611c83565b15611c7e5760008390508073ffffffffffffffffffffffffffffffffffffffff166307f1af44600060019054906101000a900473ffffffffffffffffffffffffffffffffffffffff166040518263ffffffff1660e01b8152600401611c4a9190615d30565b600060405180830381600087803b158015611c6457600080fd5b505af1158015611c78573d6000803e3d6000fd5b50505050505b505050565b600080600c60008473ffffffffffffffffffffffffffffffffffffffff1673ffffffffffffffffffffffffffffffffffffffff16815260200190815260200160002060009054906101000a900460ff1660ff16119050919050565b60006001600860008473ffffffffffffffffffffffffffffffffffffffff1673ffffffffffffffffffffffffffffffffffffffff16815260200190815260200160002060009054906101000a900460ff1660ff16149050919050565b3373ffffffffffffffffffffffffffffffffffffffff16600560019054906101000a900473ffffffffffffffffffffffffffffffffffffffff1673ffffffffffffffffffffffffffffffffffffffff1614611dca576040517f08c379a0000000000000000000000000000000000000000000000000000000008152600401611dc19061651c565b60405180910390fd5b8073ffffffffffffffffffffffffffffffffffffffff163073ffffffffffffffffffffffffffffffffffffffff161415611e39576040517f08c379a0000000000000000000000000000000000000000000000000000000008152600401611e30906162bc565b60405180910390fd5b611e588173ffffffffffffffffffffffffffffffffffffffff166134ba565b611e97576040517f08c379a0000000000000000000000000000000000000000000000000000000008152600401611e8e906165bc565b60405180910390fd5b611ea08161127e565b15611ee0576040517f08c379a0000000000000000000000000000000000000000000000000000000008152600401611ed7906160bc565b60405180910390fd5b6001600d60008373ffffffffffffffffffffffffffffffffffffffff1673ffffffffffffffffffffffffffffffffffffffff16815260200190815260200160002060006101000a81548160ff021916908360ff16021790555050565b600560019054906101000a900473ffffffffffffffffffffffffffffffffffffffff1681565b60606009805480602002602001604051908101604052809291908181526020018280548015611fe657602002820191906000526020600020905b8160009054906101000a900473ffffffffffffffffffffffffffffffffffffffff1673ffffffffffffffffffffffffffffffffffffffff1681526020019060010190808311611f9c575b5050505050905090565b3373ffffffffffffffffffffffffffffffffffffffff16600560019054906101000a900473ffffffffffffffffffffffffffffffffffffffff1673ffffffffffffffffffffffffffffffffffffffff1614612080576040517f08c379a00000000000000000000000000000000000000000000000000000000081526004016120779061651c565b60405180910390fd5b61208981611c83565b6120c8576040517f08c379a00000000000000000000000000000000000000000000000000000000081526004016120bf906163fc565b60405180910390fd5b600c60008273ffffffffffffffffffffffffffffffffffffffff1673ffffffffffffffffffffffffffffffffffffffff16815260200190815260200160002060006101000a81549060ff021916905550565b600080600b8360405161212d9190615d19565b908152602001604051809103902060009054906101000a900460ff1660ff16119050919050565b6001600860003373ffffffffffffffffffffffffffffffffffffffff1673ffffffffffffffffffffffffffffffffffffffff16815260200190815260200160002060009054906101000a900460ff1660ff16146121e6576040517f08c379a00000000000000000000000000000000000000000000000000000000081526004016121dd9061623c565b60405180910390fd5b604086511461222a576040517f08c379a0000000000000000000000000000000000000000000000000000000008152600401612221906164bc565b60405180910390fd5b600073ffffffffffffffffffffffffffffffffffffffff168573ffffffffffffffffffffffffffffffffffffffff16141561229a576040517f08c379a0000000000000000000000000000000000000000000000000000000008152600401612291906160fc565b60405180910390fd5b600084116122dd576040517f08c379a00000000000000000000000000000000000000000000000000000000081526004016122d49061637c565b60405180910390fd5b6000600b876040516122ef9190615d19565b908152602001604051809103902060009054906101000a900460ff1660ff161461234e576040517f08c379a00000000000000000000000000000000000000000000000000000000081526004016123459061619c565b60405180910390fd5b82156123645761235f828686613958565b6123a8565b834710156123a7576040517f08c379a000000000000000000000000000000000000000000000000000000000815260040161239e9061625c565b60405180910390fd5b5b6000868686868660026040516020016123c696959493929190615f1d565b6040516020818303038152906040528051906020012090506000600a600083815260200190815260200160002060009054906101000a900460ff1660ff1614612444576040517f08c379a000000000000000000000000000000000000000000000000000000000815260040161243b9061611c565b60405180910390fd5b61244e8183612e4a565b61248d576040517f08c379a00000000000000000000000000000000000000000000000000000000081526004016124849061643c565b60405180910390fd5b83156124a35761249e838787613b85565b612567565b844710156124e6576040517f08c379a00000000000000000000000000000000000000000000000000000000081526004016124dd9061625c565b60405180910390fd5b8573ffffffffffffffffffffffffffffffffffffffff166108fc869081150290604051600060405180830381858888f1935050505015801561252c573d6000803e3d6000fd5b507fc95f8b91b103304386b955ef73fadac189f8ad66b33369b6c34a17a60db7bd0a868660405161255e929190615d4b565b60405180910390a15b61257387826001613452565b7f8ed8b1f0dd3babfdf1477ba2b27a5b0d2f1c9148448fd22cf2c75e658293c7b1876040516125a29190615efb565b60405180910390a150505050505050565b60025481565b3373ffffffffffffffffffffffffffffffffffffffff16600560019054906101000a900473ffffffffffffffffffffffffffffffffffffffff1673ffffffffffffffffffffffffffffffffffffffff1614612649576040517f08c379a00000000000000000000000000000000000000000000000000000000081526004016126409061651c565b60405180910390fd5b6126528161127e565b612691576040517f08c379a0000000000000000000000000000000000000000000000000000000008152600401612688906163fc565b60405180910390fd5b600d60008273ffffffffffffffffffffffffffffffffffffffff1673ffffffffffffffffffffffffffffffffffffffff16815260200190815260200160002060006101000a81549060ff021916905550565b6000803390506127088473ffffffffffffffffffffffffffffffffffffffff166134ba565b612747576040517f08c379a000000000000000000000000000000000000000000000000000000000815260040161273e906165bc565b60405180910390fd5b6000831161278a576040517f08c379a0000000000000000000000000000000000000000000000000000000008152600401612781906162dc565b60405180910390fd5b60008490508073ffffffffffffffffffffffffffffffffffffffff166342842e0e8330876040518463ffffffff1660e01b81526004016127cc93929190615d9d565b600060405180830381600087803b1580156127e657600080fd5b505af11580156127fa573d6000803e3d6000fd5b505050506128078561127e565b1561287e5760008590508073ffffffffffffffffffffffffffffffffffffffff166342966c68866040518263ffffffff1660e01b815260040161284a91906165dc565b600060405180830381600087803b15801561286457600080fd5b505af1158015612878573d6000803e3d6000fd5b50505050505b7f06caac0500ba0f6fbe6852539c648ab228f15265797d52ca06096c9e74bb17df828786886040516128b39493929190615e04565b60405180910390a16001925050509392505050565b3373ffffffffffffffffffffffffffffffffffffffff16600560019054906101000a900473ffffffffffffffffffffffffffffffffffffffff1673ffffffffffffffffffffffffffffffffffffffff1614612958576040517f08c379a000000000000000000000000000000000000000000000000000000000815260040161294f9061651c565b60405180910390fd5b60008054906101000a900460ff166129a5576040517f08c379a000000000000000000000000000000000000000000000000000000000815260040161299c9061633c565b60405180910390fd5b60008060006101000a81548160ff021916908315150217905550565b60008054906101000a900460ff1681565b600560009054906101000a900460ff1681565b60015481565b60008251905060005b81811015612b57576000848281518110612a37577f4e487b7100000000000000000000000000000000000000000000000000000000600052603260045260246000fd5b60200260200101519050600073ffffffffffffffffffffffffffffffffffffffff168173ffffffffffffffffffffffffffffffffffffffff161415612ab1576040517f08c379a0000000000000000000000000000000000000000000000000000000008152600401612aa89061629c565b60405180910390fd5b6000600860008373ffffffffffffffffffffffffffffffffffffffff1673ffffffffffffffffffffffffffffffffffffffff16815260200190815260200160002060009054906101000a900460ff1660ff1614612b43576040517f08c379a0000000000000000000000000000000000000000000000000000000008152600401612b3a906163dc565b60405180910390fd5b508080612b4f9061697a565b9150506129f4565b50612b6183613d13565b612ba0576040517f08c379a0000000000000000000000000000000000000000000000000000000008152600401612b979061613c565b60405180910390fd5b612bcc600560019054906101000a900473ffffffffffffffffffffffffffffffffffffffff1684613eb4565b612c0b576040517f08c379a0000000000000000000000000000000000000000000000000000000008152600401612c029061659c565b60405180910390fd5b612c1482613d13565b612c53576040517f08c379a0000000000000000000000000000000000000000000000000000000008152600401612c4a9061653c565b60405180910390fd5b60008251905060005b81811015612de1576000848281518110612c9f577f4e487b7100000000000000000000000000000000000000000000000000000000600052603260045260246000fd5b602002602001015190506000600660008373ffffffffffffffffffffffffffffffffffffffff1673ffffffffffffffffffffffffffffffffffffffff16815260200190815260200160002060009054906101000a900460ff1660ff1614612d3b576040517f08c379a0000000000000000000000000000000000000000000000000000000008152600401612d329061655c565b60405180910390fd5b6001600860008373ffffffffffffffffffffffffffffffffffffffff1673ffffffffffffffffffffffffffffffffffffffff16815260200190815260200160002060009054906101000a900460ff1660ff1614612dcd576040517f08c379a0000000000000000000000000000000000000000000000000000000008152600401612dc49061635c565b60405180910390fd5b508080612dd99061697a565b915050612c5c565b5060015483518551600980549050612df99190616745565b612e03919061685d565b1115612e44576040517f08c379a0000000000000000000000000000000000000000000000000000000008152600401612e3b9061631c565b60405180910390fd5b50505050565b60006103cf82511115612e92576040517f08c379a0000000000000000000000000000000000000000000000000000000008152600401612e899061627c565b60405180910390fd5b6000612e9e8484613f9f565b9050600560009054906101000a900460ff1660ff1681101591505092915050565b600081511415612ece5761323e565b60005b8151811015612f7c5760086000838381518110612f17577f4e487b7100000000000000000000000000000000000000000000000000000000600052603260045260246000fd5b602002602001015173ffffffffffffffffffffffffffffffffffffffff1673ffffffffffffffffffffffffffffffffffffffff16815260200190815260200160002060006101000a81549060ff02191690558080612f749061697a565b915050612ed1565b5060005b6009805490508110156130c45760006008600060098481548110612fcd577f4e487b7100000000000000000000000000000000000000000000000000000000600052603260045260246000fd5b9060005260206000200160009054906101000a900473ffffffffffffffffffffffffffffffffffffffff1673ffffffffffffffffffffffffffffffffffffffff1673ffffffffffffffffffffffffffffffffffffffff16815260200190815260200160002060009054906101000a900460ff1660ff1614156130b15760098181548110613083577f4e487b7100000000000000000000000000000000000000000000000000000000600052603260045260246000fd5b9060005260206000200160006101000a81549073ffffffffffffffffffffffffffffffffffffffff02191690555b80806130bc9061697a565b915050612f80565b5060006010905060005b60098054905081101561323b57600060098281548110613117577f4e487b7100000000000000000000000000000000000000000000000000000000600052603260045260246000fd5b9060005260206000200160009054906101000a900473ffffffffffffffffffffffffffffffffffffffff169050600073ffffffffffffffffffffffffffffffffffffffff168173ffffffffffffffffffffffffffffffffffffffff16141561318c576010831415613186578192505b50613228565b601083146132265780600984815481106131cf577f4e487b7100000000000000000000000000000000000000000000000000000000600052603260045260246000fd5b9060005260206000200160006101000a81548173ffffffffffffffffffffffffffffffffffffffff021916908373ffffffffffffffffffffffffffffffffffffffff16021790555082806132229061697a565b9350505b505b80806132339061697a565b9150506130ce565b50505b50565b600081511415613250576133cc565b60005b81518110156133ca576000828281518110613297577f4e487b7100000000000000000000000000000000000000000000000000000000600052603260045260246000fd5b602002602001015190506000600860008373ffffffffffffffffffffffffffffffffffffffff1673ffffffffffffffffffffffffffffffffffffffff16815260200190815260200160002060009054906101000a900460ff1660ff1614156133b6576001600860008373ffffffffffffffffffffffffffffffffffffffff1673ffffffffffffffffffffffffffffffffffffffff16815260200190815260200160002060006101000a81548160ff021916908360ff1602179055506009819080600181540180825580915050600190039060005260206000200160009091909190916101000a81548173ffffffffffffffffffffffffffffffffffffffff021916908373ffffffffffffffffffffffffffffffffffffffff1602179055505b5080806133c29061697a565b915050613253565b505b50565b6000808211613413576040517f08c379a000000000000000000000000000000000000000000000000000000000815260040161340a9061615c565b60405180910390fd5b600060016064846003546134279190616803565b6134319190616745565b61343b919061685d565b905060648161344a91906167d2565b915050919050565b80600b846040516134639190615d19565b908152602001604051809103902060006101000a81548160ff021916908360ff16021790555080600a600084815260200190815260200160002060006101000a81548160ff021916908360ff160217905550505050565b600080823b905060008111915050919050565b613550846323b872dd60e01b8585856040516024016134ee93929190615d9d565b604051602081830303815290604052907bffffffffffffffffffffffffffffffffffffffffffffffffffffffff19166020820180517bffffffffffffffffffffffffffffffffffffffffffffffffffffffff838183161783525050505061424a565b50505050565b600073ffffffffffffffffffffffffffffffffffffffff168273ffffffffffffffffffffffffffffffffffffffff1614156135c6576040517f08c379a00000000000000000000000000000000000000000000000000000000081526004016135bd9061609c565b60405180910390fd5b8273ffffffffffffffffffffffffffffffffffffffff163073ffffffffffffffffffffffffffffffffffffffff161415613635576040517f08c379a000000000000000000000000000000000000000000000000000000000815260040161362c906162bc565b60405180910390fd5b6136548373ffffffffffffffffffffffffffffffffffffffff166134ba565b613693576040517f08c379a000000000000000000000000000000000000000000000000000000000815260040161368a906165bc565b60405180910390fd5b61369c8361127e565b156136a6576137c5565b6000839050600560019054906101000a900473ffffffffffffffffffffffffffffffffffffffff1673ffffffffffffffffffffffffffffffffffffffff168173ffffffffffffffffffffffffffffffffffffffff16636352211e846040518263ffffffff1660e01b815260040161371d91906165dc565b60206040518083038186803b15801561373557600080fd5b505afa158015613749573d6000803e3d6000fd5b505050506040513d601f19601f8201168201806040525081019061376d9190614964565b73ffffffffffffffffffffffffffffffffffffffff16146137c3576040517f08c379a00000000000000000000000000000000000000000000000000000000081526004016137ba906160dc565b60405180910390fd5b505b505050565b6137d38461127e565b156138505760008490508073ffffffffffffffffffffffffffffffffffffffff1663d0def52185846040518363ffffffff1660e01b8152600401613818929190615dd4565b600060405180830381600087803b15801561383257600080fd5b505af1158015613846573d6000803e3d6000fd5b50505050506138cc565b600033905060008590508073ffffffffffffffffffffffffffffffffffffffff166342842e0e8387876040518463ffffffff1660e01b815260040161389793929190615d9d565b600060405180830381600087803b1580156138b157600080fd5b505af11580156138c5573d6000803e3d6000fd5b5050505050505b50505050565b6139538363a9059cbb60e01b84846040516024016138f1929190615e50565b604051602081830303815290604052907bffffffffffffffffffffffffffffffffffffffffffffffffffffffff19166020820180517bffffffffffffffffffffffffffffffffffffffffffffffffffffffff838183161783525050505061424a565b505050565b600073ffffffffffffffffffffffffffffffffffffffff168273ffffffffffffffffffffffffffffffffffffffff1614156139c8576040517f08c379a00000000000000000000000000000000000000000000000000000000081526004016139bf9061609c565b60405180910390fd5b8273ffffffffffffffffffffffffffffffffffffffff163073ffffffffffffffffffffffffffffffffffffffff161415613a37576040517f08c379a0000000000000000000000000000000000000000000000000000000008152600401613a2e906162bc565b60405180910390fd5b613a568373ffffffffffffffffffffffffffffffffffffffff166134ba565b613a95576040517f08c379a0000000000000000000000000000000000000000000000000000000008152600401613a8c906165bc565b60405180910390fd5b613a9e83611c83565b15613aa857613b80565b600083905060008173ffffffffffffffffffffffffffffffffffffffff166370a08231306040518263ffffffff1660e01b8152600401613ae89190615d30565b60206040518083038186803b158015613b0057600080fd5b505afa158015613b14573d6000803e3d6000fd5b505050506040513d601f19601f82011682018060405250810190613b389190614dab565b905082811015613b7d576040517f08c379a0000000000000000000000000000000000000000000000000000000008152600401613b74906161bc565b60405180910390fd5b50505b505050565b613b8e83611c83565b15613c0b5760008390508073ffffffffffffffffffffffffffffffffffffffff166340c10f1984846040518363ffffffff1660e01b8152600401613bd3929190615e50565b600060405180830381600087803b158015613bed57600080fd5b505af1158015613c01573d6000803e3d6000fd5b5050505050613d0e565b600083905060008173ffffffffffffffffffffffffffffffffffffffff166370a08231306040518263ffffffff1660e01b8152600401613c4b9190615d30565b60206040518083038186803b158015613c6357600080fd5b505afa158015613c77573d6000803e3d6000fd5b505050506040513d601f19601f82011682018060405250810190613c9b9190614dab565b905082811015613ce0576040517f08c379a0000000000000000000000000000000000000000000000000000000008152600401613cd7906161bc565b60405180910390fd5b613d0b84848473ffffffffffffffffffffffffffffffffffffffff166138d29092919063ffffffff16565b50505b505050565b600080600090505b8251811015613ea9576000838281518110613d5f577f4e487b7100000000000000000000000000000000000000000000000000000000600052603260045260246000fd5b60200260200101519050600073ffffffffffffffffffffffffffffffffffffffff168173ffffffffffffffffffffffffffffffffffffffff161415613da45750613ea9565b6000600183613db39190616745565b90505b8451811015613e94576000858281518110613dfa577f4e487b7100000000000000000000000000000000000000000000000000000000600052603260045260246000fd5b60200260200101519050600073ffffffffffffffffffffffffffffffffffffffff168173ffffffffffffffffffffffffffffffffffffffff161415613e3f5750613e94565b8073ffffffffffffffffffffffffffffffffffffffff168373ffffffffffffffffffffffffffffffffffffffff161415613e80576000945050505050613eaf565b508080613e8c9061697a565b915050613db6565b50508080613ea19061697a565b915050613d1b565b50600190505b919050565b60008060005b8351811015613f9257838181518110613efc577f4e487b7100000000000000000000000000000000000000000000000000000000600052603260045260246000fd5b60200260200101519150600073ffffffffffffffffffffffffffffffffffffffff168273ffffffffffffffffffffffffffffffffffffffff161415613f4057613f92565b8473ffffffffffffffffffffffffffffffffffffffff168273ffffffffffffffffffffffffffffffffffffffff161415613f7f57600092505050613f99565b8080613f8a9061697a565b915050613eba565b5060019150505b92915050565b600080600090506000613fbe600454855161431190919063ffffffff16565b905060008167ffffffffffffffff811115614002577f4e487b7100000000000000000000000000000000000000000000000000000000600052604160045260246000fd5b6040519080825280602002602001820160405280156140305781602001602082028036833780820191505090505b50905060008060005b848110156141e957600061405a846004548b6143279092919063ffffffff16565b905060006140688b83614445565b9050600073ffffffffffffffffffffffffffffffffffffffff168173ffffffffffffffffffffffffffffffffffffffff1614156140da576040517f08c379a00000000000000000000000000000000000000000000000000000000081526004016140d1906162fc565b60405180910390fd5b6001600860008373ffffffffffffffffffffffffffffffffffffffff1673ffffffffffffffffffffffffffffffffffffffff16815260200190815260200160002060009054906101000a900460ff1660ff1614156141c457878061413d9061697a565b9850508086858061414d906169c3565b965060ff1681518110614189577f4e487b7100000000000000000000000000000000000000000000000000000000600052603260045260246000fd5b602002602001019073ffffffffffffffffffffffffffffffffffffffff16908173ffffffffffffffffffffffffffffffffffffffff16815250505b600454856141d29190616745565b9450505080806141e19061697a565b915050614039565b5060006141f584613d13565b9050606093508061423b576040517f08c379a00000000000000000000000000000000000000000000000000000000081526004016142329061617c565b60405180910390fd5b85965050505050505092915050565b60006142ac826040518060400160405280602081526020017f5361666545524332303a206c6f772d6c6576656c2063616c6c206661696c65648152508573ffffffffffffffffffffffffffffffffffffffff166145509092919063ffffffff16565b905060008151111561430c57808060200190518101906142cc919061498d565b61430b576040517f08c379a00000000000000000000000000000000000000000000000000000000081526004016143029061657c565b60405180910390fd5b5b505050565b6000818361431f91906167d2565b905092915050565b606081601f836143379190616745565b1015614378576040517f08c379a000000000000000000000000000000000000000000000000000000000815260040161436f9061621c565b60405180910390fd5b81836143849190616745565b845110156143c7576040517f08c379a00000000000000000000000000000000000000000000000000000000081526004016143be906164fc565b60405180910390fd5b60608215600081146143e85760405191506000825260208201604052614439565b6040519150601f8416801560200281840101858101878315602002848b0101015b818310156144265780518352602083019250602081019050614409565b50868552601f19601f8301166040525050505b50809150509392505050565b600080600080600454855114614461576000935050505061454a565b6020850151925060408501519150606085015160001a90507f7fffffffffffffffffffffffffffffff5d576e7357a4501ddfe92f46681b20a08260001c11156144b0576000935050505061454a565b601b8160ff1610156144cc57601b816144c9919061679b565b90505b601b8160ff16141580156144e45750601c8160ff1614155b156144f5576000935050505061454a565b600186828585604051600081526020016040526040516145189493929190615eb6565b6020604051602081039080840390855afa15801561453a573d6000803e3d6000fd5b5050506020604051035193505050505b92915050565b606061455f8484600085614568565b90509392505050565b6060824710156145ad576040517f08c379a00000000000000000000000000000000000000000000000000000000081526004016145a4906161dc565b60405180910390fd5b6145b6856134ba565b6145f5576040517f08c379a00000000000000000000000000000000000000000000000000000000081526004016145ec906164dc565b60405180910390fd5b6000808673ffffffffffffffffffffffffffffffffffffffff16858760405161461e9190615d02565b60006040518083038185875af1925050503d806000811461465b576040519150601f19603f3d011682016040523d82523d6000602084013e614660565b606091505b509150915061467082828661467c565b92505050949350505050565b6060831561468c578290506146dc565b60008351111561469f5782518084602001fd5b816040517f08c379a00000000000000000000000000000000000000000000000000000000081526004016146d39190615efb565b60405180910390fd5b9392505050565b60006146f66146f184616643565b616612565b9050808382526020820190508285602086028201111561471557600080fd5b60005b85811015614745578161472b88826147cb565b845260208401935060208301925050600181019050614718565b5050509392505050565b600061476261475d8461666f565b616612565b90508281526020810184848401111561477a57600080fd5b614785848285616938565b509392505050565b60006147a061479b8461669f565b616612565b9050828152602081018484840111156147b857600080fd5b6147c3848285616938565b509392505050565b6000813590506147da81616a8b565b92915050565b6000815190506147ef81616a8b565b92915050565b60008135905061480481616aa2565b92915050565b600082601f83011261481b57600080fd5b813561482b8482602086016146e3565b91505092915050565b60008135905061484381616ab9565b92915050565b60008151905061485881616ab9565b92915050565b600082601f83011261486f57600080fd5b813561487f84826020860161474f565b91505092915050565b60008083601f84011261489a57600080fd5b8235905067ffffffffffffffff8111156148b357600080fd5b6020830191508360018202830111156148cb57600080fd5b9250929050565b600082601f8301126148e357600080fd5b81356148f384826020860161478d565b91505092915050565b60008135905061490b81616ad0565b92915050565b60008151905061492081616ad0565b92915050565b60008135905061493581616ae7565b92915050565b60006020828403121561494d57600080fd5b600061495b848285016147cb565b91505092915050565b60006020828403121561497657600080fd5b6000614984848285016147e0565b91505092915050565b60006020828403121561499f57600080fd5b60006149ad84828501614849565b91505092915050565b6000602082840312156149c857600080fd5b600082013567ffffffffffffffff8111156149e257600080fd5b6149ee848285016148d2565b91505092915050565b60008060008060008060c08789031215614a1057600080fd5b600087013567ffffffffffffffff811115614a2a57600080fd5b614a3689828a016148d2565b9650506020614a4789828a016147f5565b9550506040614a5889828a016148fc565b9450506060614a6989828a01614834565b9350506080614a7a89828a016147cb565b92505060a087013567ffffffffffffffff811115614a9757600080fd5b614aa389828a0161485e565b9150509295509295509295565b600080600080600080600060c0888a031215614acb57600080fd5b600088013567ffffffffffffffff811115614ae557600080fd5b614af18a828b016148d2565b9750506020614b028a828b016147cb565b9650506040614b138a828b016147cb565b9550506060614b248a828b016148fc565b945050608088013567ffffffffffffffff811115614b4157600080fd5b614b4d8a828b01614888565b935093505060a088013567ffffffffffffffff811115614b6c57600080fd5b614b788a828b0161485e565b91505092959891949750929550565b600080600060608486031215614b9c57600080fd5b600084013567ffffffffffffffff811115614bb657600080fd5b614bc2868287016148d2565b9350506020614bd3868287016147cb565b925050604084013567ffffffffffffffff811115614bf057600080fd5b614bfc8682870161485e565b9150509250925092565b600080600060608486031215614c1b57600080fd5b600084013567ffffffffffffffff811115614c3557600080fd5b614c41868287016148d2565b9350506020614c52868287016147cb565b9250506040614c63868287016148fc565b9150509250925092565b600080600080600060a08688031215614c8557600080fd5b600086013567ffffffffffffffff811115614c9f57600080fd5b614cab888289016148d2565b955050602086013567ffffffffffffffff811115614cc857600080fd5b614cd48882890161480a565b945050604086013567ffffffffffffffff811115614cf157600080fd5b614cfd8882890161480a565b9350506060614d0e88828901614926565b925050608086013567ffffffffffffffff811115614d2b57600080fd5b614d378882890161485e565b9150509295509295909350565b600080600060608486031215614d5957600080fd5b600084013567ffffffffffffffff811115614d7357600080fd5b614d7f868287016148d2565b9350506020614d90868287016148fc565b9250506040614da1868287016147cb565b9150509250925092565b600060208284031215614dbd57600080fd5b6000614dcb84828501614911565b91505092915050565b6000614de08383614e0a565b60208301905092915050565b614df581616902565b82525050565b614e04816168a3565b82525050565b614e1381616891565b82525050565b614e2281616891565b82525050565b6000614e33826166df565b614e3d818561670d565b9350614e48836166cf565b8060005b83811015614e79578151614e608882614dd4565b9750614e6b83616700565b925050600181019050614e4c565b5085935050505092915050565b614e8f816168b5565b82525050565b614e9e816168c1565b82525050565b6000614eaf826166ea565b614eb9818561671e565b9350614ec9818560208601616947565b80840191505092915050565b6000614ee18385616729565b9350614eee838584616938565b614ef783616a7a565b840190509392505050565b6000614f0d826166f5565b614f178185616729565b9350614f27818560208601616947565b614f3081616a7a565b840191505092915050565b6000614f46826166f5565b614f50818561673a565b9350614f60818560208601616947565b80840191505092915050565b6000614f79602383616729565b91507f45524332303a207472616e7366657220746f20746865207a65726f206164647260008301527f65737300000000000000000000000000000000000000000000000000000000006020830152604082019050919050565b6000614fdf602883616729565b91507f5468697320616464726573732068617320616c7265616479206265656e20726560008301527f67697374657265640000000000000000000000000000000000000000000000006020830152604082019050919050565b6000615045601283616729565b91507f4e6f74206f776e6572206f6620746f6b656e00000000000000000000000000006000830152602082019050919050565b6000615085602683616729565b91507f57697468647261773a207472616e7366657220746f20746865207a65726f206160008301527f64647265737300000000000000000000000000000000000000000000000000006020830152604082019050919050565b60006150eb601283616729565b91507f496e76616c6964207369676e61747572657300000000000000000000000000006000830152602082019050919050565b600061512b602c83616729565b91507f4475706c696361746520706172616d657465727320666f72207468652061646460008301527f7265737320746f206a6f696e00000000000000000000000000000000000000006020830152604082019050919050565b6000615191601483616729565b91507f4d616e616765722043616e277420656d7074792e0000000000000000000000006000830152602082019050919050565b60006151d1601483616729565b91507f5369676e617475726573206475706c69636174650000000000000000000000006000830152602082019050919050565b6000615211601e83616729565b91507f5472616e73616374696f6e20686173206265656e20636f6d706c6574656400006000830152602082019050919050565b6000615251601a83616729565b91507f4e6f20656e6f7567682062616c616e6365206f6620746f6b656e0000000000006000830152602082019050919050565b6000615291602683616729565b91507f416464726573733a20696e73756666696369656e742062616c616e636520666f60008301527f722063616c6c00000000000000000000000000000000000000000000000000006020830152604082019050919050565b60006152f7602483616729565b91507f45524332303a20446f6573206e6f742061636365707420457468657265756d2060008301527f436f696e000000000000000000000000000000000000000000000000000000006020830152604082019050919050565b600061535d600e83616729565b91507f736c6963655f6f766572666c6f770000000000000000000000000000000000006000830152602082019050919050565b600061539d601b83616729565b91507f4f6e6c79206d616e616765722063616e206578656375746520697400000000006000830152602082019050919050565b60006153dd603f83616729565b91507f5468697320636f6e7472616374206164647265737320646f6573206e6f74206860008301527f6176652073756666696369656e742062616c616e6365206f66206574686572006020830152604082019050919050565b6000615443601d83616729565b91507f4d6178206c656e677468206f66207369676e6174757265733a203937350000006000830152602082019050919050565b6000615483602483616729565b91507f4552524f523a204465746563746564207a65726f206164647265737320696e2060008301527f61646473000000000000000000000000000000000000000000000000000000006020830152604082019050919050565b60006154e9601683616729565b91507f446f206e6f7468696e6720627920796f757273656c66000000000000000000006000830152602082019050919050565b6000615529601283616729565b91507f4552524f523a205a65726f20616d6f756e7400000000000000000000000000006000830152602082019050919050565b6000615569601083616729565b91507f5369676e617475726573206572726f72000000000000000000000000000000006000830152602082019050919050565b60006155a9602783616729565b91507f457863656564656420746865206d6178696d756d206e756d626572206f66206d60008301527f616e6167657273000000000000000000000000000000000000000000000000006020830152604082019050919050565b600061560f600683616729565b91507f44656e69656400000000000000000000000000000000000000000000000000006000830152602082019050919050565b600061564f604483616729565b91507f5468657265206172652061646472657373657320696e2074686520657869746960008301527f6e672061646472657373206c697374207468617420617265206e6f74206d616e60208301527f61676572000000000000000000000000000000000000000000000000000000006040830152606082019050919050565b60006156db602883616729565b91507f5769746864726177616c20616d6f756e74206d7573742062652067726561746560008301527f72207468616e20300000000000000000000000000000000000000000000000006020830152604082019050919050565b6000615741602283616729565b91507f4e6f20656e6f75676820616d6f756e7420666f7220617574686f72697a61746960008301527f6f6e0000000000000000000000000000000000000000000000000000000000006020830152604082019050919050565b60006157a7602383616729565b91507f4552524f523a207472616e7366657220746f20746865207a65726f206164647260008301527f65737300000000000000000000000000000000000000000000000000000000006020830152604082019050919050565b600061580d604083616729565b91507f5468652061646472657373206c6973742074686174206973206265696e67206160008301527f6464656420616c7265616479206578697374732061732061206d616e616765726020830152604082019050919050565b6000615873601e83616729565b91507f546869732061646472657373206973206e6f74207265676973746572656400006000830152602082019050919050565b60006158b3601e83616729565b91507f4e6f20656e6f7567682062616c616e6365206f662074686520746f6b656e00006000830152602082019050919050565b60006158f3601583616729565b91507f56616c6964207369676e617475726573206661696c00000000000000000000006000830152602082019050919050565b6000615933602883616729565b91507f546865726520617265206e6f206d616e6167657273206a6f696e696e67206f7260008301527f2065786974696e670000000000000000000000000000000000000000000000006020830152604082019050919050565b6000615999601d83616729565b91507f496e636f6e73697374656e637920457468657265756d20616d6f756e740000006000830152602082019050919050565b60006159d9601483616729565b91507f497420686173206265656e2075706772616465640000000000000000000000006000830152602082019050919050565b6000615a19601983616729565b91507f4669786564206c656e677468206f662074784b65793a203634000000000000006000830152602082019050919050565b6000615a59601d83616729565b91507f416464726573733a2063616c6c20746f206e6f6e2d636f6e74726163740000006000830152602082019050919050565b6000615a99601183616729565b91507f736c6963655f6f75744f66426f756e64730000000000000000000000000000006000830152602082019050919050565b6000615ad9601983616729565b91507f4f6e6c79206f776e65722063616e2065786563757465206974000000000000006000830152602082019050919050565b6000615b19602c83616729565b91507f4475706c696361746520706172616d657465727320666f72207468652061646460008301527f7265737320746f206578697400000000000000000000000000000000000000006020830152604082019050919050565b6000615b7f601783616729565b91507f43616e277420657869742073656564206d616e616765720000000000000000006000830152602082019050919050565b6000615bbf602a83616729565b91507f5361666545524332303a204552433230206f7065726174696f6e20646964206e60008301527f6f742073756363656564000000000000000000000000000000000000000000006020830152604082019050919050565b6000615c25602683616729565b91507f436f6e74726163742063726561746f722063616e6e6f7420616374206173206d60008301527f616e6167657200000000000000000000000000000000000000000000000000006020830152604082019050919050565b6000615c8b602583616729565b91507f5468652061646472657373206973206e6f74206120636f6e747261637420616460008301527f64726573730000000000000000000000000000000000000000000000000000006020830152604082019050919050565b615ced816168eb565b82525050565b615cfc816168f5565b82525050565b6000615d0e8284614ea4565b915081905092915050565b6000615d258284614f3b565b915081905092915050565b6000602082019050615d456000830184614e19565b92915050565b6000604082019050615d606000830185614dec565b615d6d6020830184615ce4565b9392505050565b6000604082019050615d896000830185614e19565b615d966020830184614e19565b9392505050565b6000606082019050615db26000830186614e19565b615dbf6020830185614e19565b615dcc6040830184615ce4565b949350505050565b6000604082019050615de96000830185614e19565b8181036020830152615dfb8184614f02565b90509392505050565b6000608082019050615e196000830187614e19565b8181036020830152615e2b8186614f02565b9050615e3a6040830185615ce4565b615e476060830184614e19565b95945050505050565b6000604082019050615e656000830185614e19565b615e726020830184615ce4565b9392505050565b60006020820190508181036000830152615e938184614e28565b905092915050565b6000602082019050615eb06000830184614e86565b92915050565b6000608082019050615ecb6000830187614e95565b615ed86020830186615cf3565b615ee56040830185614e95565b615ef26060830184614e95565b95945050505050565b60006020820190508181036000830152615f158184614f02565b905092915050565b600060c0820190508181036000830152615f378189614f02565b9050615f466020830188614dfb565b615f536040830187615ce4565b615f606060830186614e86565b615f6d6080830185614e19565b615f7a60a0830184615ce4565b979650505050505050565b600060c0820190508181036000830152615f9f818a614f02565b9050615fae6020830189614e19565b615fbb6040830188614e19565b615fc86060830187615ce4565b8181036080830152615fdb818587614ed5565b9050615fea60a0830184615ce4565b98975050505050505050565b600060608201905081810360008301526160108186614f02565b905061601f6020830185614e19565b61602c6040830184615ce4565b949350505050565b600060a082019050818103600083015261604e8188614f02565b905081810360208301526160628187614e28565b90506160716040830186615cf3565b81810360608301526160838185614e28565b90506160926080830184615ce4565b9695505050505050565b600060208201905081810360008301526160b581614f6c565b9050919050565b600060208201905081810360008301526160d581614fd2565b9050919050565b600060208201905081810360008301526160f581615038565b9050919050565b6000602082019050818103600083015261611581615078565b9050919050565b60006020820190508181036000830152616135816150de565b9050919050565b600060208201905081810360008301526161558161511e565b9050919050565b6000602082019050818103600083015261617581615184565b9050919050565b60006020820190508181036000830152616195816151c4565b9050919050565b600060208201905081810360008301526161b581615204565b9050919050565b600060208201905081810360008301526161d581615244565b9050919050565b600060208201905081810360008301526161f581615284565b9050919050565b60006020820190508181036000830152616215816152ea565b9050919050565b6000602082019050818103600083015261623581615350565b9050919050565b6000602082019050818103600083015261625581615390565b9050919050565b60006020820190508181036000830152616275816153d0565b9050919050565b6000602082019050818103600083015261629581615436565b9050919050565b600060208201905081810360008301526162b581615476565b9050919050565b600060208201905081810360008301526162d5816154dc565b9050919050565b600060208201905081810360008301526162f58161551c565b9050919050565b600060208201905081810360008301526163158161555c565b9050919050565b600060208201905081810360008301526163358161559c565b9050919050565b6000602082019050818103600083015261635581615602565b9050919050565b6000602082019050818103600083015261637581615642565b9050919050565b60006020820190508181036000830152616395816156ce565b9050919050565b600060208201905081810360008301526163b581615734565b9050919050565b600060208201905081810360008301526163d58161579a565b9050919050565b600060208201905081810360008301526163f581615800565b9050919050565b6000602082019050818103600083015261641581615866565b9050919050565b60006020820190508181036000830152616435816158a6565b9050919050565b60006020820190508181036000830152616455816158e6565b9050919050565b6000602082019050818103600083015261647581615926565b9050919050565b600060208201905081810360008301526164958161598c565b9050919050565b600060208201905081810360008301526164b5816159cc565b9050919050565b600060208201905081810360008301526164d581615a0c565b9050919050565b600060208201905081810360008301526164f581615a4c565b9050919050565b6000602082019050818103600083015261651581615a8c565b9050919050565b6000602082019050818103600083015261653581615acc565b9050919050565b6000602082019050818103600083015261655581615b0c565b9050919050565b6000602082019050818103600083015261657581615b72565b9050919050565b6000602082019050818103600083015261659581615bb2565b9050919050565b600060208201905081810360008301526165b581615c18565b9050919050565b600060208201905081810360008301526165d581615c7e565b9050919050565b60006020820190506165f16000830184615ce4565b92915050565b600060208201905061660c6000830184615cf3565b92915050565b6000604051905081810181811067ffffffffffffffff8211171561663957616638616a4b565b5b8060405250919050565b600067ffffffffffffffff82111561665e5761665d616a4b565b5b602082029050602081019050919050565b600067ffffffffffffffff82111561668a57616689616a4b565b5b601f19601f8301169050602081019050919050565b600067ffffffffffffffff8211156166ba576166b9616a4b565b5b601f19601f8301169050602081019050919050565b6000819050602082019050919050565b600081519050919050565b600081519050919050565b600081519050919050565b6000602082019050919050565b600082825260208201905092915050565b600081905092915050565b600082825260208201905092915050565b600081905092915050565b6000616750826168eb565b915061675b836168eb565b9250827fffffffffffffffffffffffffffffffffffffffffffffffffffffffffffffffff038211156167905761678f6169ed565b5b828201905092915050565b60006167a6826168f5565b91506167b1836168f5565b92508260ff038211156167c7576167c66169ed565b5b828201905092915050565b60006167dd826168eb565b91506167e8836168eb565b9250826167f8576167f7616a1c565b5b828204905092915050565b600061680e826168eb565b9150616819836168eb565b9250817fffffffffffffffffffffffffffffffffffffffffffffffffffffffffffffffff0483118215151615616852576168516169ed565b5b828202905092915050565b6000616868826168eb565b9150616873836168eb565b925082821015616886576168856169ed565b5b828203905092915050565b600061689c826168cb565b9050919050565b60006168ae826168cb565b9050919050565b60008115159050919050565b6000819050919050565b600073ffffffffffffffffffffffffffffffffffffffff82169050919050565b6000819050919050565b600060ff82169050919050565b600061690d82616914565b9050919050565b600061691f82616926565b9050919050565b6000616931826168cb565b9050919050565b82818337600083830152505050565b60005b8381101561696557808201518184015260208101905061694a565b83811115616974576000848401525b50505050565b6000616985826168eb565b91507fffffffffffffffffffffffffffffffffffffffffffffffffffffffffffffffff8214156169b8576169b76169ed565b5b600182019050919050565b60006169ce826168f5565b915060ff8214156169e2576169e16169ed565b5b600182019050919050565b7f4e487b7100000000000000000000000000000000000000000000000000000000600052601160045260246000fd5b7f4e487b7100000000000000000000000000000000000000000000000000000000600052601260045260246000fd5b7f4e487b7100000000000000000000000000000000000000000000000000000000600052604160045260246000fd5b6000601f19601f8301169050919050565b616a9481616891565b8114616a9f57600080fd5b50565b616aab816168a3565b8114616ab657600080fd5b50565b616ac2816168b5565b8114616acd57600080fd5b50565b616ad9816168eb565b8114616ae457600080fd5b50565b616af0816168f5565b8114616afb57600080fd5b5056fea264697066735822122094b8f62343b07f7b1bb2c1a83d53f323777ab0015b474d5e21831b1f018c4a8564736f6c63430008000033",
  "immutableReferences": {},
  "source": "// SPDX-License-Identifier: MIT\n\npragma solidity ^0.8.0;\n\nimport \"@openzeppelin/contracts/token/ERC20/IERC20.sol\";\nimport \"@openzeppelin/contracts/token/ERC20/utils/SafeERC20.sol\";\nimport \"@openzeppelin/contracts/token/ERC721/IERC721.sol\";\nimport \"@openzeppelin/contracts/utils/math/SafeMath.sol\";\nimport \"@openzeppelin/contracts/utils/Address.sol\";\nimport \"solidity-bytes-utils/contracts/BytesLib.sol\";\n\ninterface IERC20Minter {\n    function mint(address to, uint256 amount) external;\n\n    function burn(uint256 amount) external;\n\n    function replaceMinter(address newMinter) external;\n}\n\ninterface IERC721Minter {\n    function mint(address to, string memory tokenURI) external;\n\n    function burn(uint256 tokenId) external;\n\n    function replaceMinter(address newMinter) external;\n}\n\ncontract DynamicMultiSig {\n    using Address for address;\n    using SafeERC20 for IERC20;\n    using SafeMath for uint256;\n    using BytesLib for bytes;\n\n    modifier isOwner() {\n        require(owner == msg.sender, \"Only owner can execute it\");\n        _;\n    }\n    modifier isManager() {\n        require(managers[msg.sender] == 1, \"Only manager can execute it\");\n        _;\n    }\n    bool public upgrade = false;\n    address public upgradeContractAddress = address(0);\n    // \n    uint256 public max_managers = 15;\n    // \n    uint256 public min_managers = 3;\n    //  66%\n    uint256 public rate = 66;\n    // \n    uint256 public signatureLength = 65;\n    // \n    uint256 constant DENOMINATOR = 100;\n    // \n    uint256 constant VERSION = 2;\n    // \n    uint8 public current_min_signatures;\n    address public owner;\n    mapping(address => uint8) private seedManagers;\n    address[] private seedManagerArray;\n    mapping(address => uint8) private managers;\n    address[] private managerArray;\n    mapping(bytes32 => uint8) private completedKeccak256s;\n    mapping(string => uint8) private completedTxs;\n    mapping(address => uint8) private minterERC20s;\n    mapping(address => uint8) private minterERC721s;\n\n    constructor(address[] memory _managers) {\n        require(\n            _managers.length <= max_managers,\n            \"Exceeded the maximum number of managers\"\n        );\n        require(\n            _managers.length >= min_managers,\n            \"Not reaching the min number of managers\"\n        );\n        owner = msg.sender;\n        managerArray = _managers;\n        for (uint8 i = 0; i < managerArray.length; i++) {\n            managers[managerArray[i]] = 1;\n            seedManagers[managerArray[i]] = 1;\n            seedManagerArray.push(managerArray[i]);\n        }\n        require(managers[owner] == 0, \"Contract creator cannot act as manager\");\n        // \n        current_min_signatures = calMinSignatures(managerArray.length);\n    }\n\n    // function() external payable {\n    //     emit DepositFunds(msg.sender, msg.value);\n    // }\n    fallback() external payable {}\n\n    receive() external payable {\n        emit DepositFunds(msg.sender, msg.value);\n    }\n\n    function createOrSignWithdraw(\n        string memory txKey,\n        address payable to,\n        uint256 amount,\n        bool isERC20,\n        address ERC20,\n        bytes memory signatures\n    ) public isManager {\n        require(bytes(txKey).length == 64, \"Fixed length of txKey: 64\");\n        require(to != address(0), \"Withdraw: transfer to the zero address\");\n        require(amount > 0, \"Withdrawal amount must be greater than 0\");\n        // \n        require(completedTxs[txKey] == 0, \"Transaction has been completed\");\n        // \n        if (isERC20) {\n            validateTransferERC20(ERC20, to, amount);\n        } else {\n            require(\n                address(this).balance >= amount,\n                \"This contract address does not have sufficient balance of ether\"\n            );\n        }\n        bytes32 vHash = keccak256(\n            abi.encode(txKey, to, amount, isERC20, ERC20, VERSION)\n        );\n        // \n        require(completedKeccak256s[vHash] == 0, \"Invalid signatures\");\n        // \n        require(validSignature(vHash, signatures), \"Valid signatures fail\");\n        // \n        if (isERC20) {\n            transferERC20(ERC20, to, amount);\n        } else {\n            // \n            require(\n                address(this).balance >= amount,\n                \"This contract address does not have sufficient balance of ether\"\n            );\n            to.transfer(amount);\n            emit TransferFunds(to, amount);\n        }\n        // \n        completeTx(txKey, vHash, 1);\n        emit TxWithdrawCompleted(txKey);\n    }\n\n    function createOrSignWithdrawNFT(\n        string memory txKey,\n        address ERC721,\n        address to,\n        uint256 tokenId,\n        string calldata tokenURI,\n        bytes memory signatures\n    ) public isManager {\n        require(bytes(txKey).length == 64, \"Fixed length of txKey: 64\");\n        require(to != address(0), \"Withdraw: transfer to the zero address\");\n        // \n        require(completedTxs[txKey] == 0, \"Transaction has been completed\");\n        // \n        validateTransferERC721(ERC721, to, tokenId);\n        bytes32 vHash = keccak256(\n            abi.encode(txKey, ERC721, to, tokenId,tokenURI, VERSION)\n        );\n        // \n        require(completedKeccak256s[vHash] == 0, \"Invalid signatures\");\n        // \n        require(validSignature(vHash, signatures), \"Valid signatures fail\");\n        // \n        transferERC721(ERC721, to, tokenId, tokenURI);\n        // \n        completeTx(txKey, vHash, 1);\n        emit TxWithdrawCompleted(txKey);\n    }\n\n    function createOrSignManagerChange(\n        string memory txKey,\n        address[] memory adds,\n        address[] memory removes,\n        uint8 count,\n        bytes memory signatures\n    ) public isManager {\n        require(bytes(txKey).length == 64, \"Fixed length of txKey: 64\");\n        require(\n            adds.length > 0 || removes.length > 0,\n            \"There are no managers joining or exiting\"\n        );\n        // \n        require(completedTxs[txKey] == 0, \"Transaction has been completed\");\n        preValidateAddsAndRemoves(adds, removes);\n        bytes32 vHash = keccak256(\n            abi.encode(txKey, adds, count, removes, VERSION)\n        );\n        // \n        require(completedKeccak256s[vHash] == 0, \"Invalid signatures\");\n        // \n        require(validSignature(vHash, signatures), \"Valid signatures fail\");\n        // \n        removeManager(removes);\n        addManager(adds);\n        // \n        current_min_signatures = calMinSignatures(managerArray.length);\n        // \n        completeTx(txKey, vHash, 1);\n        // add event\n        emit TxManagerChangeCompleted(txKey);\n    }\n\n    function createOrSignUpgrade(\n        string memory txKey,\n        address upgradeContract,\n        bytes memory signatures\n    ) public isManager {\n        require(bytes(txKey).length == 64, \"Fixed length of txKey: 64\");\n        // \n        require(completedTxs[txKey] == 0, \"Transaction has been completed\");\n        require(!upgrade, \"It has been upgraded\");\n        require(\n            upgradeContract.isContract(),\n            \"The address is not a contract address\"\n        );\n        // \n        bytes32 vHash = keccak256(abi.encode(txKey, upgradeContract, VERSION));\n        // \n        require(completedKeccak256s[vHash] == 0, \"Invalid signatures\");\n        // \n        require(validSignature(vHash, signatures), \"Valid signatures fail\");\n        // \n        upgrade = true;\n        upgradeContractAddress = upgradeContract;\n        // \n        completeTx(txKey, vHash, 1);\n        // add event\n        emit TxUpgradeCompleted(txKey);\n    }\n\n    function validSignature(bytes32 hash, bytes memory signatures)\n        internal\n        view\n        returns (bool)\n    {\n        require(signatures.length <= 975, \"Max length of signatures: 975\");\n        // ,\n        uint256 sManagersCount = getManagerFromSignatures(hash, signatures);\n        // \n        return sManagersCount >= current_min_signatures;\n    }\n\n    function getManagerFromSignatures(bytes32 hash, bytes memory signatures)\n        internal\n        view\n        returns (uint256)\n    {\n        uint256 signCount = 0;\n        uint256 times = signatures.length.div(signatureLength);\n        address[] memory result = new address[](times);\n        uint256 k = 0;\n        uint8 j = 0;\n        for (uint256 i = 0; i < times; i++) {\n            bytes memory sign = signatures.slice(k, signatureLength);\n            address mAddress = ecrecovery(hash, sign);\n            require(mAddress != address(0), \"Signatures error\");\n            // \n            if (managers[mAddress] == 1) {\n                signCount++;\n                result[j++] = mAddress;\n            }\n            k += signatureLength;\n        }\n        // \n        bool suc = repeatability(result);\n        delete result;\n        require(suc, \"Signatures duplicate\");\n        return signCount;\n    }\n\n    function validateRepeatability(\n        address currentAddress,\n        address[] memory list\n    ) internal pure returns (bool) {\n        address tempAddress;\n        for (uint256 i = 0; i < list.length; i++) {\n            tempAddress = list[i];\n            if (tempAddress == address(0)) {\n                break;\n            }\n            if (tempAddress == currentAddress) {\n                return false;\n            }\n        }\n        return true;\n    }\n\n    function repeatability(address[] memory list) internal pure returns (bool) {\n        for (uint256 i = 0; i < list.length; i++) {\n            address address1 = list[i];\n            if (address1 == address(0)) {\n                break;\n            }\n            for (uint256 j = i + 1; j < list.length; j++) {\n                address address2 = list[j];\n                if (address2 == address(0)) {\n                    break;\n                }\n                if (address1 == address2) {\n                    return false;\n                }\n            }\n        }\n        return true;\n    }\n\n    function ecrecovery(bytes32 hash, bytes memory sig)\n        internal\n        view\n        returns (address)\n    {\n        bytes32 r;\n        bytes32 s;\n        uint8 v;\n        if (sig.length != signatureLength) {\n            return address(0);\n        }\n        assembly {\n            r := mload(add(sig, 32))\n            s := mload(add(sig, 64))\n            v := byte(0, mload(add(sig, 96)))\n        }\n        if (\n            uint256(s) >\n            0x7FFFFFFFFFFFFFFFFFFFFFFFFFFFFFFF5D576E7357A4501DDFE92F46681B20A0\n        ) {\n            return address(0);\n        }\n        // https://github.com/ethereum/go-ethereum/issues/2053\n        if (v < 27) {\n            v += 27;\n        }\n        if (v != 27 && v != 28) {\n            return address(0);\n        }\n        return ecrecover(hash, v, r, s);\n    }\n\n    function preValidateAddsAndRemoves(\n        address[] memory adds,\n        address[] memory removes\n    ) internal view {\n        // adds\n        uint256 addLen = adds.length;\n        for (uint256 i = 0; i < addLen; i++) {\n            address add = adds[i];\n            require(add != address(0), \"ERROR: Detected zero address in adds\");\n            require(\n                managers[add] == 0,\n                \"The address list that is being added already exists as a manager\"\n            );\n        }\n        require(\n            repeatability(adds),\n            \"Duplicate parameters for the address to join\"\n        );\n        // \n        require(\n            validateRepeatability(owner, adds),\n            \"Contract creator cannot act as manager\"\n        );\n        // removes\n        require(\n            repeatability(removes),\n            \"Duplicate parameters for the address to exit\"\n        );\n        uint256 removeLen = removes.length;\n        for (uint256 i = 0; i < removeLen; i++) {\n            address remove = removes[i];\n            require(seedManagers[remove] == 0, \"Can't exit seed manager\");\n            require(\n                managers[remove] == 1,\n                \"There are addresses in the exiting address list that are not manager\"\n            );\n        }\n        require(\n            managerArray.length + adds.length - removes.length <= max_managers,\n            \"Exceeded the maximum number of managers\"\n        );\n    }\n\n    /*\n      ``  `` \n    */\n    function calMinSignatures(uint256 managerCounts)\n        internal\n        view\n        returns (uint8)\n    {\n        require(managerCounts > 0, \"Manager Can't empty.\");\n        uint256 numerator = rate * managerCounts + DENOMINATOR - 1;\n        return uint8(numerator / DENOMINATOR);\n    }\n\n    function removeManager(address[] memory removes) internal {\n        if (removes.length == 0) {\n            return;\n        }\n        for (uint256 i = 0; i < removes.length; i++) {\n            delete managers[removes[i]];\n        }\n        // \n        for (uint256 i = 0; i < managerArray.length; i++) {\n            if (managers[managerArray[i]] == 0) {\n                delete managerArray[i];\n            }\n        }\n        uint256 tempIndex = 0x10;\n        for (uint256 i = 0; i < managerArray.length; i++) {\n            address temp = managerArray[i];\n            if (temp == address(0)) {\n                if (tempIndex == 0x10) tempIndex = i;\n                continue;\n            } else if (tempIndex != 0x10) {\n                managerArray[tempIndex] = temp;\n                tempIndex++;\n            }\n        }\n        // managerArray.length -= removes.length;\n    }\n\n    function addManager(address[] memory adds) internal {\n        if (adds.length == 0) {\n            return;\n        }\n        for (uint256 i = 0; i < adds.length; i++) {\n            address add = adds[i];\n            if (managers[add] == 0) {\n                managers[add] = 1;\n                managerArray.push(add);\n            }\n        }\n    }\n\n    function completeTx(\n        string memory txKey,\n        bytes32 keccak256Hash,\n        uint8 e\n    ) internal {\n        completedTxs[txKey] = e;\n        completedKeccak256s[keccak256Hash] = e;\n    }\n\n    function validateTransferERC20(\n        address ERC20,\n        address to,\n        uint256 amount\n    ) internal view {\n        require(to != address(0), \"ERC20: transfer to the zero address\");\n        require(address(this) != ERC20, \"Do nothing by yourself\");\n        require(ERC20.isContract(), \"The address is not a contract address\");\n        if (isMinterERC20(ERC20)) {\n            // ERC20\n            return;\n        }\n        IERC20 token = IERC20(ERC20);\n        uint256 balance = token.balanceOf(address(this));\n        require(balance >= amount, \"No enough balance of token\");\n    }\n\n    function transferERC20(\n        address ERC20,\n        address to,\n        uint256 amount\n    ) internal {\n        if (isMinterERC20(ERC20)) {\n            // ERC20\n            IERC20Minter minterToken = IERC20Minter(ERC20);\n            minterToken.mint(to, amount);\n            return;\n        }\n        IERC20 token = IERC20(ERC20);\n        uint256 balance = token.balanceOf(address(this));\n        require(balance >= amount, \"No enough balance of token\");\n        token.safeTransfer(to, amount);\n    }\n\n    function validateTransferERC721(\n        address ERC721,\n        address to,\n        uint256 tokenId\n    ) internal view {\n        require(to != address(0), \"ERC20: transfer to the zero address\");\n        require(address(this) != ERC721, \"Do nothing by yourself\");\n        require(ERC721.isContract(), \"The address is not a contract address\");\n        if (isMinterERC721(ERC721)) {\n            // ERC20\n            return;\n        }\n        IERC721 token = IERC721(ERC721);\n        require(token.ownerOf(tokenId) == owner, \"Not owner of token\");\n    }\n\n    function transferERC721(\n        address ERC721,\n        address to,\n        uint256 tokenId,\n        string memory tokenURI\n    ) internal {\n        if (isMinterERC721(ERC721)) {\n            // ERC721\n            IERC721Minter minterToken = IERC721Minter(ERC721);\n            minterToken.mint(to, tokenURI);\n            return;\n        }\n        address from = msg.sender;\n        IERC721 token = IERC721(ERC721);\n        token.safeTransferFrom(from, to, tokenId);\n    }\n\n    function closeUpgrade() public isOwner {\n        require(upgrade, \"Denied\");\n        upgrade = false;\n    }\n\n    function upgradeContractS1() public isOwner {\n        require(upgrade, \"Denied\");\n        require(\n            upgradeContractAddress != address(0),\n            \"ERROR: transfer to the zero address\"\n        );\n        payable(address(uint160(upgradeContractAddress))).transfer(\n            address(this).balance\n        );\n    }\n\n    function upgradeContractS2(address ERC20) public isOwner {\n        require(upgrade, \"Denied\");\n        require(\n            upgradeContractAddress != address(0),\n            \"ERROR: transfer to the zero address\"\n        );\n        require(address(this) != ERC20, \"Do nothing by yourself\");\n        require(ERC20.isContract(), \"The address is not a contract address\");\n        IERC20 token = IERC20(ERC20);\n        uint256 balance = token.balanceOf(address(this));\n        require(balance >= 0, \"No enough balance of token\");\n        token.safeTransfer(upgradeContractAddress, balance);\n        if (isMinterERC20(ERC20)) {\n            // ERC20\n            IERC20Minter minterToken = IERC20Minter(ERC20);\n            minterToken.replaceMinter(upgradeContractAddress);\n        }\n    }\n\n    // ERC20\n    function isMinterERC20(address ERC20) public view returns (bool) {\n        return minterERC20s[ERC20] > 0;\n    }\n\n    // ERC20\n    function registerMinterERC20(address ERC20) public isOwner {\n        require(address(this) != ERC20, \"Do nothing by yourself\");\n        require(ERC20.isContract(), \"The address is not a contract address\");\n        require(\n            !isMinterERC20(ERC20),\n            \"This address has already been registered\"\n        );\n        minterERC20s[ERC20] = 1;\n    }\n\n    // ERC20\n    function unregisterMinterERC20(address ERC20) public isOwner {\n        require(isMinterERC20(ERC20), \"This address is not registered\");\n        delete minterERC20s[ERC20];\n    }\n\n    // ERC721\n    function isMinterERC721(address ERC721) public view returns (bool) {\n        return minterERC721s[ERC721] > 0;\n    }\n\n    // ERC721\n    function registerMinterERC721(address ERC721) public isOwner {\n        require(address(this) != ERC721, \"Do nothing by yourself\");\n        require(ERC721.isContract(), \"The address is not a contract address\");\n        require(\n            !isMinterERC721(ERC721),\n            \"This address has already been registered\"\n        );\n        minterERC721s[ERC721] = 1;\n    }\n\n    // ERC721\n    function unregisterMinterERC721(address ERC721) public isOwner {\n        require(isMinterERC721(ERC721), \"This address is not registered\");\n        delete minterERC721s[ERC721];\n    }\n\n    // eth(ETH or ERC20)\n    function crossOut(\n        string memory to, // chainID(int) + address\n        uint256 amount,\n        address ERC20\n    ) public payable returns (bool) {\n        address from = msg.sender;\n        require(amount > 0, \"ERROR: Zero amount\");\n        if (ERC20 != address(0)) {\n            require(msg.value == 0, \"ERC20: Does not accept Ethereum Coin\");\n            require(\n                ERC20.isContract(),\n                \"The address is not a contract address\"\n            );\n            IERC20 token = IERC20(ERC20);\n            uint256 allowance = token.allowance(from, address(this));\n            require(allowance >= amount, \"No enough amount for authorization\");\n            uint256 fromBalance = token.balanceOf(from);\n            require(fromBalance >= amount, \"No enough balance of the token\");\n            token.safeTransferFrom(from, address(this), amount);\n            if (isMinterERC20(ERC20)) {\n                // ERC20token\n                IERC20Minter minterToken = IERC20Minter(ERC20);\n                minterToken.burn(amount);\n            }\n        } else {\n            require(msg.value == amount, \"Inconsistency Ethereum amount\");\n        }\n        emit CrossOutFunds(from, to, amount, ERC20);\n        return true;\n    }\n\n    function crossOutNFT(\n        string memory to,\n        address ERC721,\n        uint256 tokenId\n    ) public returns (bool) {\n        address from = msg.sender;\n        require(ERC721.isContract(), \"The address is not a contract address\");\n        require(tokenId > 0, \"ERROR: Zero amount\");\n        IERC721 token = IERC721(ERC721);\n        token.safeTransferFrom(from, address(this), tokenId);\n        if (isMinterERC721(ERC721)) {\n            // ERC721token\n            IERC721Minter minterToken = IERC721Minter(ERC721);\n            minterToken.burn(tokenId);\n        }\n        emit CrossOutNFT(from, to, tokenId, ERC721);\n        return true;\n    }\n\n    function isCompletedTx(string memory txKey) public view returns (bool) {\n        return completedTxs[txKey] > 0;\n    }\n\n    function ifManager(address _manager) public view returns (bool) {\n        return managers[_manager] == 1;\n    }\n\n    function allManagers() public view returns (address[] memory) {\n        return managerArray;\n    }\n\n    event DepositFunds(address from, uint256 amount);\n    event CrossOutFunds(address from, string to, uint256 amount, address ERC20);\n    event CrossOutNFT(address from, string to, uint256 tokenId, address ERC721);\n    event TransferFunds(address to, uint256 amount);\n    event TxWithdrawCompleted(string txKey);\n    event TxManagerChangeCompleted(string txKey);\n    event TxUpgradeCompleted(string txKey);\n}\n",
  "sourcePath": "/Users/terry/go/src/github.com/terry108/multisig/contracts/DynamicMultiSig.sol",
  "compiler": {
    "name": "solc",
    "version": "0.8.0+commit.c7dfd78e.Emscripten.clang"
  },
  "schemaVersion": "3.4.3",
  "updatedAt": "2021-09-14T09:45:25.059Z",
  "devdoc": {
    "kind": "dev",
    "methods": {},
    "version": 1
  },
  "userdoc": {
    "kind": "user",
    "methods": {},
    "version": 1
  }
}