{
  "contractName": "DynamicMultiSig",
  "abi": [
    {
      "inputs": [
        {
          "internalType": "address[]",
          "name": "_managers",
          "type": "address[]"
        }
      ],
      "stateMutability": "nonpayable",
      "type": "constructor"
    },
    {
      "anonymous": false,
      "inputs": [
        {
          "indexed": false,
          "internalType": "address",
          "name": "from",
          "type": "address"
        },
        {
          "indexed": false,
          "internalType": "string",
          "name": "to",
          "type": "string"
        },
        {
          "indexed": false,
          "internalType": "uint256",
          "name": "amount",
          "type": "uint256"
        },
        {
          "indexed": false,
          "internalType": "address",
          "name": "ERC20",
          "type": "address"
        }
      ],
      "name": "CrossOutFunds",
      "type": "event"
    },
    {
      "anonymous": false,
      "inputs": [
        {
          "indexed": false,
          "internalType": "address",
          "name": "from",
          "type": "address"
        },
        {
          "indexed": false,
          "internalType": "uint256",
          "name": "amount",
          "type": "uint256"
        }
      ],
      "name": "DepositFunds",
      "type": "event"
    },
    {
      "anonymous": false,
      "inputs": [
        {
          "indexed": false,
          "internalType": "address",
          "name": "to",
          "type": "address"
        },
        {
          "indexed": false,
          "internalType": "uint256",
          "name": "amount",
          "type": "uint256"
        }
      ],
      "name": "TransferFunds",
      "type": "event"
    },
    {
      "anonymous": false,
      "inputs": [
        {
          "indexed": false,
          "internalType": "string",
          "name": "txKey",
          "type": "string"
        }
      ],
      "name": "TxManagerChangeCompleted",
      "type": "event"
    },
    {
      "anonymous": false,
      "inputs": [
        {
          "indexed": false,
          "internalType": "string",
          "name": "txKey",
          "type": "string"
        }
      ],
      "name": "TxUpgradeCompleted",
      "type": "event"
    },
    {
      "anonymous": false,
      "inputs": [
        {
          "indexed": false,
          "internalType": "string",
          "name": "txKey",
          "type": "string"
        }
      ],
      "name": "TxWithdrawCompleted",
      "type": "event"
    },
    {
      "stateMutability": "payable",
      "type": "fallback"
    },
    {
      "inputs": [],
      "name": "current_min_signatures",
      "outputs": [
        {
          "internalType": "uint8",
          "name": "",
          "type": "uint8"
        }
      ],
      "stateMutability": "view",
      "type": "function"
    },
    {
      "inputs": [],
      "name": "max_managers",
      "outputs": [
        {
          "internalType": "uint256",
          "name": "",
          "type": "uint256"
        }
      ],
      "stateMutability": "view",
      "type": "function"
    },
    {
      "inputs": [],
      "name": "min_managers",
      "outputs": [
        {
          "internalType": "uint256",
          "name": "",
          "type": "uint256"
        }
      ],
      "stateMutability": "view",
      "type": "function"
    },
    {
      "inputs": [],
      "name": "owner",
      "outputs": [
        {
          "internalType": "address",
          "name": "",
          "type": "address"
        }
      ],
      "stateMutability": "view",
      "type": "function"
    },
    {
      "inputs": [],
      "name": "rate",
      "outputs": [
        {
          "internalType": "uint256",
          "name": "",
          "type": "uint256"
        }
      ],
      "stateMutability": "view",
      "type": "function"
    },
    {
      "inputs": [],
      "name": "signatureLength",
      "outputs": [
        {
          "internalType": "uint256",
          "name": "",
          "type": "uint256"
        }
      ],
      "stateMutability": "view",
      "type": "function"
    },
    {
      "inputs": [],
      "name": "upgrade",
      "outputs": [
        {
          "internalType": "bool",
          "name": "",
          "type": "bool"
        }
      ],
      "stateMutability": "view",
      "type": "function"
    },
    {
      "inputs": [],
      "name": "upgradeContractAddress",
      "outputs": [
        {
          "internalType": "address",
          "name": "",
          "type": "address"
        }
      ],
      "stateMutability": "view",
      "type": "function"
    },
    {
      "stateMutability": "payable",
      "type": "receive"
    },
    {
      "inputs": [
        {
          "internalType": "string",
          "name": "txKey",
          "type": "string"
        },
        {
          "internalType": "address payable",
          "name": "to",
          "type": "address"
        },
        {
          "internalType": "uint256",
          "name": "amount",
          "type": "uint256"
        },
        {
          "internalType": "bool",
          "name": "isERC20",
          "type": "bool"
        },
        {
          "internalType": "address",
          "name": "ERC20",
          "type": "address"
        },
        {
          "internalType": "bytes",
          "name": "signatures",
          "type": "bytes"
        }
      ],
      "name": "createOrSignWithdraw",
      "outputs": [],
      "stateMutability": "nonpayable",
      "type": "function"
    },
    {
      "inputs": [
        {
          "internalType": "string",
          "name": "txKey",
          "type": "string"
        },
        {
          "internalType": "address[]",
          "name": "adds",
          "type": "address[]"
        },
        {
          "internalType": "address[]",
          "name": "removes",
          "type": "address[]"
        },
        {
          "internalType": "uint8",
          "name": "count",
          "type": "uint8"
        },
        {
          "internalType": "bytes",
          "name": "signatures",
          "type": "bytes"
        }
      ],
      "name": "createOrSignManagerChange",
      "outputs": [],
      "stateMutability": "nonpayable",
      "type": "function"
    },
    {
      "inputs": [
        {
          "internalType": "string",
          "name": "txKey",
          "type": "string"
        },
        {
          "internalType": "address",
          "name": "upgradeContract",
          "type": "address"
        },
        {
          "internalType": "bytes",
          "name": "signatures",
          "type": "bytes"
        }
      ],
      "name": "createOrSignUpgrade",
      "outputs": [],
      "stateMutability": "nonpayable",
      "type": "function"
    },
    {
      "inputs": [],
      "name": "closeUpgrade",
      "outputs": [],
      "stateMutability": "nonpayable",
      "type": "function"
    },
    {
      "inputs": [],
      "name": "upgradeContractS1",
      "outputs": [],
      "stateMutability": "nonpayable",
      "type": "function"
    },
    {
      "inputs": [
        {
          "internalType": "address",
          "name": "ERC20",
          "type": "address"
        }
      ],
      "name": "upgradeContractS2",
      "outputs": [],
      "stateMutability": "nonpayable",
      "type": "function"
    },
    {
      "inputs": [
        {
          "internalType": "address",
          "name": "ERC20",
          "type": "address"
        }
      ],
      "name": "isMinterERC20",
      "outputs": [
        {
          "internalType": "bool",
          "name": "",
          "type": "bool"
        }
      ],
      "stateMutability": "view",
      "type": "function"
    },
    {
      "inputs": [
        {
          "internalType": "address",
          "name": "ERC20",
          "type": "address"
        }
      ],
      "name": "registerMinterERC20",
      "outputs": [],
      "stateMutability": "nonpayable",
      "type": "function"
    },
    {
      "inputs": [
        {
          "internalType": "address",
          "name": "ERC20",
          "type": "address"
        }
      ],
      "name": "unregisterMinterERC20",
      "outputs": [],
      "stateMutability": "nonpayable",
      "type": "function"
    },
    {
      "inputs": [
        {
          "internalType": "address",
          "name": "ERC721",
          "type": "address"
        }
      ],
      "name": "isMinterERC721",
      "outputs": [
        {
          "internalType": "bool",
          "name": "",
          "type": "bool"
        }
      ],
      "stateMutability": "view",
      "type": "function"
    },
    {
      "inputs": [
        {
          "internalType": "address",
          "name": "ERC721",
          "type": "address"
        }
      ],
      "name": "registerMinterERC721",
      "outputs": [],
      "stateMutability": "nonpayable",
      "type": "function"
    },
    {
      "inputs": [
        {
          "internalType": "address",
          "name": "ERC721",
          "type": "address"
        }
      ],
      "name": "unregisterMinterERC721",
      "outputs": [],
      "stateMutability": "nonpayable",
      "type": "function"
    },
    {
      "inputs": [
        {
          "internalType": "string",
          "name": "to",
          "type": "string"
        },
        {
          "internalType": "uint256",
          "name": "amount",
          "type": "uint256"
        },
        {
          "internalType": "address",
          "name": "ERC20",
          "type": "address"
        }
      ],
      "name": "crossOut",
      "outputs": [
        {
          "internalType": "bool",
          "name": "",
          "type": "bool"
        }
      ],
      "stateMutability": "payable",
      "type": "function"
    },
    {
      "inputs": [
        {
          "internalType": "string",
          "name": "to",
          "type": "string"
        },
        {
          "internalType": "address",
          "name": "ERC721",
          "type": "address"
        },
        {
          "internalType": "uint256",
          "name": "tokenId",
          "type": "uint256"
        }
      ],
      "name": "crossOutNFT",
      "outputs": [
        {
          "internalType": "bool",
          "name": "",
          "type": "bool"
        }
      ],
      "stateMutability": "nonpayable",
      "type": "function"
    },
    {
      "inputs": [
        {
          "internalType": "string",
          "name": "txKey",
          "type": "string"
        }
      ],
      "name": "isCompletedTx",
      "outputs": [
        {
          "internalType": "bool",
          "name": "",
          "type": "bool"
        }
      ],
      "stateMutability": "view",
      "type": "function"
    },
    {
      "inputs": [
        {
          "internalType": "address",
          "name": "_manager",
          "type": "address"
        }
      ],
      "name": "ifManager",
      "outputs": [
        {
          "internalType": "bool",
          "name": "",
          "type": "bool"
        }
      ],
      "stateMutability": "view",
      "type": "function"
    },
    {
      "inputs": [],
      "name": "allManagers",
      "outputs": [
        {
          "internalType": "address[]",
          "name": "",
          "type": "address[]"
        }
      ],
      "stateMutability": "view",
      "type": "function"
    }
  ],
  "bytecode": "0x608060405260008060006101000a81548160ff02191690831515021790555060008060016101000a81548173ffffffffffffffffffffffffffffffffffffffff021916908373ffffffffffffffffffffffffffffffffffffffff160217905550600f6001556003600255604260035560416004553480156200008057600080fd5b5060405162006dab38038062006dab8339818101604052810190620000a69190620006ed565b60015481511115620000ef576040517f08c379a0000000000000000000000000000000000000000000000000000000008152600401620000e690620008f0565b60405180910390fd5b6002548151101562000138576040517f08c379a00000000000000000000000000000000000000000000000000000000081526004016200012f90620008ac565b60405180910390fd5b33600560016101000a81548173ffffffffffffffffffffffffffffffffffffffff021916908373ffffffffffffffffffffffffffffffffffffffff16021790555080600990805190602001906200019192919062000586565b5060005b6009805490508160ff161015620004095760016008600060098460ff1681548110620001ea577f4e487b7100000000000000000000000000000000000000000000000000000000600052603260045260246000fd5b9060005260206000200160009054906101000a900473ffffffffffffffffffffffffffffffffffffffff1673ffffffffffffffffffffffffffffffffffffffff1673ffffffffffffffffffffffffffffffffffffffff16815260200190815260200160002060006101000a81548160ff021916908360ff16021790555060016006600060098460ff1681548110620002ab577f4e487b7100000000000000000000000000000000000000000000000000000000600052603260045260246000fd5b9060005260206000200160009054906101000a900473ffffffffffffffffffffffffffffffffffffffff1673ffffffffffffffffffffffffffffffffffffffff1673ffffffffffffffffffffffffffffffffffffffff16815260200190815260200160002060006101000a81548160ff021916908360ff160217905550600760098260ff168154811062000368577f4e487b7100000000000000000000000000000000000000000000000000000000600052603260045260246000fd5b9060005260206000200160009054906101000a900473ffffffffffffffffffffffffffffffffffffffff169080600181540180825580915050600190039060005260206000200160009091909190916101000a81548173ffffffffffffffffffffffffffffffffffffffff021916908373ffffffffffffffffffffffffffffffffffffffff1602179055508080620004009062000b24565b91505062000195565b50600060086000600560019054906101000a900473ffffffffffffffffffffffffffffffffffffffff1673ffffffffffffffffffffffffffffffffffffffff1673ffffffffffffffffffffffffffffffffffffffff16815260200190815260200160002060009054906101000a900460ff1660ff1614620004c1576040517f08c379a0000000000000000000000000000000000000000000000000000000008152600401620004b89062000912565b60405180910390fd5b620004d7600980549050620004f860201b60201c565b600560006101000a81548160ff021916908360ff1602179055505062000bfa565b60008082116200053f576040517f08c379a00000000000000000000000000000000000000000000000000000000081526004016200053690620008ce565b60405180910390fd5b6000600160648460035462000555919062000a3d565b620005619190620009a8565b6200056d919062000a9e565b90506064816200057e919062000a05565b915050919050565b82805482825590600052602060002090810192821562000602579160200282015b82811115620006015782518260006101000a81548173ffffffffffffffffffffffffffffffffffffffff021916908373ffffffffffffffffffffffffffffffffffffffff16021790555091602001919060010190620005a7565b5b50905062000611919062000615565b5090565b5b808211156200063057600081600090555060010162000616565b5090565b60006200064b620006458462000968565b62000934565b905080838252602082019050828560208602820111156200066b57600080fd5b60005b858110156200069f5781620006848882620006a9565b8452602084019350602083019250506001810190506200066e565b5050509392505050565b600081519050620006ba8162000be0565b92915050565b600082601f830112620006d257600080fd5b8151620006e484826020860162000634565b91505092915050565b6000602082840312156200070057600080fd5b600082015167ffffffffffffffff8111156200071b57600080fd5b6200072984828501620006c0565b91505092915050565b60006200074160278362000997565b91507f4e6f74207265616368696e6720746865206d696e206e756d626572206f66206d60008301527f616e6167657273000000000000000000000000000000000000000000000000006020830152604082019050919050565b6000620007a960148362000997565b91507f4d616e616765722043616e277420656d7074792e0000000000000000000000006000830152602082019050919050565b6000620007eb60278362000997565b91507f457863656564656420746865206d6178696d756d206e756d626572206f66206d60008301527f616e6167657273000000000000000000000000000000000000000000000000006020830152604082019050919050565b60006200085360268362000997565b91507f436f6e74726163742063726561746f722063616e6e6f7420616374206173206d60008301527f616e6167657200000000000000000000000000000000000000000000000000006020830152604082019050919050565b60006020820190508181036000830152620008c78162000732565b9050919050565b60006020820190508181036000830152620008e9816200079a565b9050919050565b600060208201905081810360008301526200090b81620007dc565b9050919050565b600060208201905081810360008301526200092d8162000844565b9050919050565b6000604051905081810181811067ffffffffffffffff821117156200095e576200095d62000bb1565b5b8060405250919050565b600067ffffffffffffffff82111562000986576200098562000bb1565b5b602082029050602081019050919050565b600082825260208201905092915050565b6000620009b58262000b0d565b9150620009c28362000b0d565b9250827fffffffffffffffffffffffffffffffffffffffffffffffffffffffffffffffff03821115620009fa57620009f962000b53565b5b828201905092915050565b600062000a128262000b0d565b915062000a1f8362000b0d565b92508262000a325762000a3162000b82565b5b828204905092915050565b600062000a4a8262000b0d565b915062000a578362000b0d565b9250817fffffffffffffffffffffffffffffffffffffffffffffffffffffffffffffffff048311821515161562000a935762000a9262000b53565b5b828202905092915050565b600062000aab8262000b0d565b915062000ab88362000b0d565b92508282101562000ace5762000acd62000b53565b5b828203905092915050565b600062000ae68262000aed565b9050919050565b600073ffffffffffffffffffffffffffffffffffffffff82169050919050565b6000819050919050565b600060ff82169050919050565b600062000b318262000b17565b915060ff82141562000b485762000b4762000b53565b5b600182019050919050565b7f4e487b7100000000000000000000000000000000000000000000000000000000600052601160045260246000fd5b7f4e487b7100000000000000000000000000000000000000000000000000000000600052601260045260246000fd5b7f4e487b7100000000000000000000000000000000000000000000000000000000600052604160045260246000fd5b62000beb8162000ad9565b811462000bf757600080fd5b50565b6161a18062000c0a6000396000f3fe6080604052600436106101695760003560e01c80637de24876116100d1578063ad4b61a81161008a578063d4cacbaa11610064578063d4cacbaa1461056d578063d55ec69714610584578063e079cee9146105af578063f7f2ff74146105da576101a9565b8063ad4b61a8146104dc578063bc8870ed14610507578063c76bbdc514610530576101a9565b80637de24876146103ce5780638da5cb5b146103f75780639c30b35e146104225780639dcdc9781461044d578063a5e399b314610476578063ab6c2b10146104b3576101a9565b806330b2d84d1161012357806330b2d84d146102ae57806334774b71146102d9578063408e8b7a146103025780635bda3fcf1461032b5780636a7142e11461035457806375173b7014610391576101a9565b8062719226146101ab5780630889d1f0146101d45780631b9a9323146102045780631dda9c051461022f578063279fb6e0146102465780632c4e722e14610283576101a9565b366101a9577fd241e73300212f6df233a8e6d3146b88a9d4964e06621d54b5ff6afeba7b1b88333460405161019f92919061554e565b60405180910390a1005b005b3480156101b757600080fd5b506101d260048036038101906101cd9190614408565b610605565b005b6101ee60048036038101906101e991906144df565b61090e565b6040516101fb9190615599565b60405180910390f35b34801561021057600080fd5b50610219610d14565b6040516102269190615c49565b60405180910390f35b34801561023b57600080fd5b50610244610d1a565b005b34801561025257600080fd5b5061026d600480360381019061026891906141d6565b610ef4565b60405161027a9190615599565b60405180910390f35b34801561028f57600080fd5b50610298610f4f565b6040516102a59190615c49565b60405180910390f35b3480156102ba57600080fd5b506102c3610f55565b6040516102d0919061545e565b60405180910390f35b3480156102e557600080fd5b5061030060048036038101906102fb91906141d6565b610f7b565b005b34801561030e57600080fd5b5061032960048036038101906103249190614322565b61117d565b005b34801561033757600080fd5b50610352600480360381019061034d91906141d6565b6114f3565b005b34801561036057600080fd5b5061037b600480360381019061037691906141d6565b6118f9565b6040516103889190615599565b60405180910390f35b34801561039d57600080fd5b506103b860048036038101906103b391906141d6565b611954565b6040516103c59190615599565b60405180910390f35b3480156103da57600080fd5b506103f560048036038101906103f091906141d6565b6119b0565b005b34801561040357600080fd5b5061040c611bb2565b604051610419919061545e565b60405180910390f35b34801561042e57600080fd5b50610437611bd8565b6040516104449190615577565b60405180910390f35b34801561045957600080fd5b50610474600480360381019061046f91906141d6565b611c66565b005b34801561048257600080fd5b5061049d60048036038101906104989190614228565b611d90565b6040516104aa9190615599565b60405180910390f35b3480156104bf57600080fd5b506104da60048036038101906104d59190614269565b611dca565b005b3480156104e857600080fd5b506104f1612229565b6040516104fe9190615c49565b60405180910390f35b34801561051357600080fd5b5061052e600480360381019061052991906141d6565b61222f565b005b34801561053c57600080fd5b50610557600480360381019061055291906143a1565b612359565b6040516105649190615599565b60405180910390f35b34801561057957600080fd5b5061058261253e565b005b34801561059057600080fd5b50610599612637565b6040516105a69190615599565b60405180910390f35b3480156105bb57600080fd5b506105c4612648565b6040516105d19190615c64565b60405180910390f35b3480156105e657600080fd5b506105ef61265b565b6040516105fc9190615c49565b60405180910390f35b6001600860003373ffffffffffffffffffffffffffffffffffffffff1673ffffffffffffffffffffffffffffffffffffffff16815260200190815260200160002060009054906101000a900460ff1660ff1614610697576040517f08c379a000000000000000000000000000000000000000000000000000000000815260040161068e906158a9565b60405180910390fd5b60408551146106db576040517f08c379a00000000000000000000000000000000000000000000000000000000081526004016106d290615b29565b60405180910390fd5b6000845111806106ec575060008351115b61072b576040517f08c379a000000000000000000000000000000000000000000000000000000000815260040161072290615ac9565b60405180910390fd5b6000600b8660405161073d9190615447565b908152602001604051809103902060009054906101000a900460ff1660ff161461079c576040517f08c379a000000000000000000000000000000000000000000000000000000000815260040161079390615809565b60405180910390fd5b6107a68484612661565b60008585848660026040516020016107c29594939291906156c1565b6040516020818303038152906040528051906020012090506000600a600083815260200190815260200160002060009054906101000a900460ff1660ff1614610840576040517f08c379a000000000000000000000000000000000000000000000000000000000815260040161083790615789565b60405180910390fd5b61084a8183612ac0565b610889576040517f08c379a000000000000000000000000000000000000000000000000000000000815260040161088090615aa9565b60405180910390fd5b61089284612b35565b61089b85612eb7565b6108a9600980549050613045565b600560006101000a81548160ff021916908360ff1602179055506108cf868260016130c8565b7fac9b82db4e104d515319a481096bfd91a4f40ee10837d5a2c8d51b9a03dc48ae866040516108fe91906155f9565b60405180910390a1505050505050565b60008033905060008411610957576040517f08c379a000000000000000000000000000000000000000000000000000000000815260040161094e90615949565b60405180910390fd5b600073ffffffffffffffffffffffffffffffffffffffff168373ffffffffffffffffffffffffffffffffffffffff1614610c8857600034146109ce576040517f08c379a00000000000000000000000000000000000000000000000000000000081526004016109c590615869565b60405180910390fd5b6109ed8373ffffffffffffffffffffffffffffffffffffffff16613130565b610a2c576040517f08c379a0000000000000000000000000000000000000000000000000000000008152600401610a2390615c29565b60405180910390fd5b600083905060008173ffffffffffffffffffffffffffffffffffffffff1663dd62ed3e84306040518363ffffffff1660e01b8152600401610a6e9291906154a2565b60206040518083038186803b158015610a8657600080fd5b505afa158015610a9a573d6000803e3d6000fd5b505050506040513d601f19601f82011682018060405250810190610abe9190614546565b905085811015610b03576040517f08c379a0000000000000000000000000000000000000000000000000000000008152600401610afa90615a09565b60405180910390fd5b60008273ffffffffffffffffffffffffffffffffffffffff166370a08231856040518263ffffffff1660e01b8152600401610b3e919061545e565b60206040518083038186803b158015610b5657600080fd5b505afa158015610b6a573d6000803e3d6000fd5b505050506040513d601f19601f82011682018060405250810190610b8e9190614546565b905086811015610bd3576040517f08c379a0000000000000000000000000000000000000000000000000000000008152600401610bca90615a89565b60405180910390fd5b610c008430898673ffffffffffffffffffffffffffffffffffffffff16613143909392919063ffffffff16565b610c09866118f9565b15610c805760008690508073ffffffffffffffffffffffffffffffffffffffff166342966c68896040518263ffffffff1660e01b8152600401610c4c9190615c49565b600060405180830381600087803b158015610c6657600080fd5b505af1158015610c7a573d6000803e3d6000fd5b50505050505b505050610ccb565b833414610cca576040517f08c379a0000000000000000000000000000000000000000000000000000000008152600401610cc190615ae9565b60405180910390fd5b5b7f5ddf9724d8fe5d9e12499be2867f93d41a582733dcd65f74a486ad7e3066714681868686604051610d009493929190615502565b60405180910390a160019150509392505050565b60045481565b3373ffffffffffffffffffffffffffffffffffffffff16600560019054906101000a900473ffffffffffffffffffffffffffffffffffffffff1673ffffffffffffffffffffffffffffffffffffffff1614610daa576040517f08c379a0000000000000000000000000000000000000000000000000000000008152600401610da190615b89565b60405180910390fd5b60008054906101000a900460ff16610df7576040517f08c379a0000000000000000000000000000000000000000000000000000000008152600401610dee906159a9565b60405180910390fd5b600073ffffffffffffffffffffffffffffffffffffffff16600060019054906101000a900473ffffffffffffffffffffffffffffffffffffffff1673ffffffffffffffffffffffffffffffffffffffff161415610e89576040517f08c379a0000000000000000000000000000000000000000000000000000000008152600401610e8090615a29565b60405180910390fd5b600060019054906101000a900473ffffffffffffffffffffffffffffffffffffffff1673ffffffffffffffffffffffffffffffffffffffff166108fc479081150290604051600060405180830381858888f19350505050158015610ef1573d6000803e3d6000fd5b50565b600080600d60008473ffffffffffffffffffffffffffffffffffffffff1673ffffffffffffffffffffffffffffffffffffffff16815260200190815260200160002060009054906101000a900460ff1660ff16119050919050565b60035481565b600060019054906101000a900473ffffffffffffffffffffffffffffffffffffffff1681565b3373ffffffffffffffffffffffffffffffffffffffff16600560019054906101000a900473ffffffffffffffffffffffffffffffffffffffff1673ffffffffffffffffffffffffffffffffffffffff161461100b576040517f08c379a000000000000000000000000000000000000000000000000000000000815260040161100290615b89565b60405180910390fd5b8073ffffffffffffffffffffffffffffffffffffffff163073ffffffffffffffffffffffffffffffffffffffff16141561107a576040517f08c379a000000000000000000000000000000000000000000000000000000000815260040161107190615929565b60405180910390fd5b6110998173ffffffffffffffffffffffffffffffffffffffff16613130565b6110d8576040517f08c379a00000000000000000000000000000000000000000000000000000000081526004016110cf90615c29565b60405180910390fd5b6110e1816118f9565b15611121576040517f08c379a000000000000000000000000000000000000000000000000000000000815260040161111890615749565b60405180910390fd5b6001600c60008373ffffffffffffffffffffffffffffffffffffffff1673ffffffffffffffffffffffffffffffffffffffff16815260200190815260200160002060006101000a81548160ff021916908360ff16021790555050565b6001600860003373ffffffffffffffffffffffffffffffffffffffff1673ffffffffffffffffffffffffffffffffffffffff16815260200190815260200160002060009054906101000a900460ff1660ff161461120f576040517f08c379a0000000000000000000000000000000000000000000000000000000008152600401611206906158a9565b60405180910390fd5b6040835114611253576040517f08c379a000000000000000000000000000000000000000000000000000000000815260040161124a90615b29565b60405180910390fd5b6000600b846040516112659190615447565b908152602001604051809103902060009054906101000a900460ff1660ff16146112c4576040517f08c379a00000000000000000000000000000000000000000000000000000000081526004016112bb90615809565b60405180910390fd5b60008054906101000a900460ff1615611312576040517f08c379a000000000000000000000000000000000000000000000000000000000815260040161130990615b09565b60405180910390fd5b6113318273ffffffffffffffffffffffffffffffffffffffff16613130565b611370576040517f08c379a000000000000000000000000000000000000000000000000000000000815260040161136790615c29565b60405180910390fd5b60008383600260405160200161138893929190615683565b6040516020818303038152906040528051906020012090506000600a600083815260200190815260200160002060009054906101000a900460ff1660ff1614611406576040517f08c379a00000000000000000000000000000000000000000000000000000000081526004016113fd90615789565b60405180910390fd5b6114108183612ac0565b61144f576040517f08c379a000000000000000000000000000000000000000000000000000000000815260040161144690615aa9565b60405180910390fd5b60016000806101000a81548160ff02191690831515021790555082600060016101000a81548173ffffffffffffffffffffffffffffffffffffffff021916908373ffffffffffffffffffffffffffffffffffffffff1602179055506114b6848260016130c8565b7f5e06c4b22547d430736ce834764dbfee08f1c4cf7ae3d53178aa56effa593ed0846040516114e591906155f9565b60405180910390a150505050565b3373ffffffffffffffffffffffffffffffffffffffff16600560019054906101000a900473ffffffffffffffffffffffffffffffffffffffff1673ffffffffffffffffffffffffffffffffffffffff1614611583576040517f08c379a000000000000000000000000000000000000000000000000000000000815260040161157a90615b89565b60405180910390fd5b60008054906101000a900460ff166115d0576040517f08c379a00000000000000000000000000000000000000000000000000000000081526004016115c7906159a9565b60405180910390fd5b600073ffffffffffffffffffffffffffffffffffffffff16600060019054906101000a900473ffffffffffffffffffffffffffffffffffffffff1673ffffffffffffffffffffffffffffffffffffffff161415611662576040517f08c379a000000000000000000000000000000000000000000000000000000000815260040161165990615a29565b60405180910390fd5b8073ffffffffffffffffffffffffffffffffffffffff163073ffffffffffffffffffffffffffffffffffffffff1614156116d1576040517f08c379a00000000000000000000000000000000000000000000000000000000081526004016116c890615929565b60405180910390fd5b6116f08173ffffffffffffffffffffffffffffffffffffffff16613130565b61172f576040517f08c379a000000000000000000000000000000000000000000000000000000000815260040161172690615c29565b60405180910390fd5b600081905060008173ffffffffffffffffffffffffffffffffffffffff166370a08231306040518263ffffffff1660e01b815260040161176f919061545e565b60206040518083038186803b15801561178757600080fd5b505afa15801561179b573d6000803e3d6000fd5b505050506040513d601f19601f820116820180604052508101906117bf9190614546565b90506000811015611805576040517f08c379a00000000000000000000000000000000000000000000000000000000081526004016117fc90615829565b60405180910390fd5b611852600060019054906101000a900473ffffffffffffffffffffffffffffffffffffffff16828473ffffffffffffffffffffffffffffffffffffffff166131cc9092919063ffffffff16565b61185b836118f9565b156118f45760008390508073ffffffffffffffffffffffffffffffffffffffff166307f1af44600060019054906101000a900473ffffffffffffffffffffffffffffffffffffffff166040518263ffffffff1660e01b81526004016118c0919061545e565b600060405180830381600087803b1580156118da57600080fd5b505af11580156118ee573d6000803e3d6000fd5b50505050505b505050565b600080600c60008473ffffffffffffffffffffffffffffffffffffffff1673ffffffffffffffffffffffffffffffffffffffff16815260200190815260200160002060009054906101000a900460ff1660ff16119050919050565b60006001600860008473ffffffffffffffffffffffffffffffffffffffff1673ffffffffffffffffffffffffffffffffffffffff16815260200190815260200160002060009054906101000a900460ff1660ff16149050919050565b3373ffffffffffffffffffffffffffffffffffffffff16600560019054906101000a900473ffffffffffffffffffffffffffffffffffffffff1673ffffffffffffffffffffffffffffffffffffffff1614611a40576040517f08c379a0000000000000000000000000000000000000000000000000000000008152600401611a3790615b89565b60405180910390fd5b8073ffffffffffffffffffffffffffffffffffffffff163073ffffffffffffffffffffffffffffffffffffffff161415611aaf576040517f08c379a0000000000000000000000000000000000000000000000000000000008152600401611aa690615929565b60405180910390fd5b611ace8173ffffffffffffffffffffffffffffffffffffffff16613130565b611b0d576040517f08c379a0000000000000000000000000000000000000000000000000000000008152600401611b0490615c29565b60405180910390fd5b611b1681610ef4565b15611b56576040517f08c379a0000000000000000000000000000000000000000000000000000000008152600401611b4d90615749565b60405180910390fd5b6001600d60008373ffffffffffffffffffffffffffffffffffffffff1673ffffffffffffffffffffffffffffffffffffffff16815260200190815260200160002060006101000a81548160ff021916908360ff16021790555050565b600560019054906101000a900473ffffffffffffffffffffffffffffffffffffffff1681565b60606009805480602002602001604051908101604052809291908181526020018280548015611c5c57602002820191906000526020600020905b8160009054906101000a900473ffffffffffffffffffffffffffffffffffffffff1673ffffffffffffffffffffffffffffffffffffffff1681526020019060010190808311611c12575b5050505050905090565b3373ffffffffffffffffffffffffffffffffffffffff16600560019054906101000a900473ffffffffffffffffffffffffffffffffffffffff1673ffffffffffffffffffffffffffffffffffffffff1614611cf6576040517f08c379a0000000000000000000000000000000000000000000000000000000008152600401611ced90615b89565b60405180910390fd5b611cff816118f9565b611d3e576040517f08c379a0000000000000000000000000000000000000000000000000000000008152600401611d3590615a69565b60405180910390fd5b600c60008273ffffffffffffffffffffffffffffffffffffffff1673ffffffffffffffffffffffffffffffffffffffff16815260200190815260200160002060006101000a81549060ff021916905550565b600080600b83604051611da39190615447565b908152602001604051809103902060009054906101000a900460ff1660ff16119050919050565b6001600860003373ffffffffffffffffffffffffffffffffffffffff1673ffffffffffffffffffffffffffffffffffffffff16815260200190815260200160002060009054906101000a900460ff1660ff1614611e5c576040517f08c379a0000000000000000000000000000000000000000000000000000000008152600401611e53906158a9565b60405180910390fd5b6040865114611ea0576040517f08c379a0000000000000000000000000000000000000000000000000000000008152600401611e9790615b29565b60405180910390fd5b600073ffffffffffffffffffffffffffffffffffffffff168573ffffffffffffffffffffffffffffffffffffffff161415611f10576040517f08c379a0000000000000000000000000000000000000000000000000000000008152600401611f0790615769565b60405180910390fd5b60008411611f53576040517f08c379a0000000000000000000000000000000000000000000000000000000008152600401611f4a906159e9565b60405180910390fd5b6000600b87604051611f659190615447565b908152602001604051809103902060009054906101000a900460ff1660ff1614611fc4576040517f08c379a0000000000000000000000000000000000000000000000000000000008152600401611fbb90615809565b60405180910390fd5b8215611fda57611fd5828686613252565b61201e565b8347101561201d576040517f08c379a0000000000000000000000000000000000000000000000000000000008152600401612014906158c9565b60405180910390fd5b5b60008686868686600260405160200161203c9695949392919061561b565b6040516020818303038152906040528051906020012090506000600a600083815260200190815260200160002060009054906101000a900460ff1660ff16146120ba576040517f08c379a00000000000000000000000000000000000000000000000000000000081526004016120b190615789565b60405180910390fd5b6120c48183612ac0565b612103576040517f08c379a00000000000000000000000000000000000000000000000000000000081526004016120fa90615aa9565b60405180910390fd5b83156121195761211483878761347f565b6121dd565b8447101561215c576040517f08c379a0000000000000000000000000000000000000000000000000000000008152600401612153906158c9565b60405180910390fd5b8573ffffffffffffffffffffffffffffffffffffffff166108fc869081150290604051600060405180830381858888f193505050501580156121a2573d6000803e3d6000fd5b507fc95f8b91b103304386b955ef73fadac189f8ad66b33369b6c34a17a60db7bd0a86866040516121d4929190615479565b60405180910390a15b6121e9878260016130c8565b7f8ed8b1f0dd3babfdf1477ba2b27a5b0d2f1c9148448fd22cf2c75e658293c7b18760405161221891906155f9565b60405180910390a150505050505050565b60025481565b3373ffffffffffffffffffffffffffffffffffffffff16600560019054906101000a900473ffffffffffffffffffffffffffffffffffffffff1673ffffffffffffffffffffffffffffffffffffffff16146122bf576040517f08c379a00000000000000000000000000000000000000000000000000000000081526004016122b690615b89565b60405180910390fd5b6122c881610ef4565b612307576040517f08c379a00000000000000000000000000000000000000000000000000000000081526004016122fe90615a69565b60405180910390fd5b600d60008273ffffffffffffffffffffffffffffffffffffffff1673ffffffffffffffffffffffffffffffffffffffff16815260200190815260200160002060006101000a81549060ff021916905550565b60008033905061237e8473ffffffffffffffffffffffffffffffffffffffff16613130565b6123bd576040517f08c379a00000000000000000000000000000000000000000000000000000000081526004016123b490615c29565b60405180910390fd5b60008311612400576040517f08c379a00000000000000000000000000000000000000000000000000000000081526004016123f790615949565b60405180910390fd5b60008490508073ffffffffffffffffffffffffffffffffffffffff166342842e0e8330876040518463ffffffff1660e01b8152600401612442939291906154cb565b600060405180830381600087803b15801561245c57600080fd5b505af1158015612470573d6000803e3d6000fd5b5050505061247d85610ef4565b156124f45760008590508073ffffffffffffffffffffffffffffffffffffffff166342966c68866040518263ffffffff1660e01b81526004016124c09190615c49565b600060405180830381600087803b1580156124da57600080fd5b505af11580156124ee573d6000803e3d6000fd5b50505050505b7f5ddf9724d8fe5d9e12499be2867f93d41a582733dcd65f74a486ad7e30667146828786886040516125299493929190615502565b60405180910390a16001925050509392505050565b3373ffffffffffffffffffffffffffffffffffffffff16600560019054906101000a900473ffffffffffffffffffffffffffffffffffffffff1673ffffffffffffffffffffffffffffffffffffffff16146125ce576040517f08c379a00000000000000000000000000000000000000000000000000000000081526004016125c590615b89565b60405180910390fd5b60008054906101000a900460ff1661261b576040517f08c379a0000000000000000000000000000000000000000000000000000000008152600401612612906159a9565b60405180910390fd5b60008060006101000a81548160ff021916908315150217905550565b60008054906101000a900460ff1681565b600560009054906101000a900460ff1681565b60015481565b60008251905060005b818110156127cd5760008482815181106126ad577f4e487b7100000000000000000000000000000000000000000000000000000000600052603260045260246000fd5b60200260200101519050600073ffffffffffffffffffffffffffffffffffffffff168173ffffffffffffffffffffffffffffffffffffffff161415612727576040517f08c379a000000000000000000000000000000000000000000000000000000000815260040161271e90615909565b60405180910390fd5b6000600860008373ffffffffffffffffffffffffffffffffffffffff1673ffffffffffffffffffffffffffffffffffffffff16815260200190815260200160002060009054906101000a900460ff1660ff16146127b9576040517f08c379a00000000000000000000000000000000000000000000000000000000081526004016127b090615a49565b60405180910390fd5b5080806127c590615fe7565b91505061266a565b506127d78361360d565b612816576040517f08c379a000000000000000000000000000000000000000000000000000000000815260040161280d906157a9565b60405180910390fd5b612842600560019054906101000a900473ffffffffffffffffffffffffffffffffffffffff16846137ae565b612881576040517f08c379a000000000000000000000000000000000000000000000000000000000815260040161287890615c09565b60405180910390fd5b61288a8261360d565b6128c9576040517f08c379a00000000000000000000000000000000000000000000000000000000081526004016128c090615ba9565b60405180910390fd5b60008251905060005b81811015612a57576000848281518110612915577f4e487b7100000000000000000000000000000000000000000000000000000000600052603260045260246000fd5b602002602001015190506000600660008373ffffffffffffffffffffffffffffffffffffffff1673ffffffffffffffffffffffffffffffffffffffff16815260200190815260200160002060009054906101000a900460ff1660ff16146129b1576040517f08c379a00000000000000000000000000000000000000000000000000000000081526004016129a890615bc9565b60405180910390fd5b6001600860008373ffffffffffffffffffffffffffffffffffffffff1673ffffffffffffffffffffffffffffffffffffffff16815260200190815260200160002060009054906101000a900460ff1660ff1614612a43576040517f08c379a0000000000000000000000000000000000000000000000000000000008152600401612a3a906159c9565b60405180910390fd5b508080612a4f90615fe7565b9150506128d2565b5060015483518551600980549050612a6f9190615db2565b612a799190615eca565b1115612aba576040517f08c379a0000000000000000000000000000000000000000000000000000000008152600401612ab190615989565b60405180910390fd5b50505050565b60006103cf82511115612b08576040517f08c379a0000000000000000000000000000000000000000000000000000000008152600401612aff906158e9565b60405180910390fd5b6000612b148484613899565b9050600560009054906101000a900460ff1660ff1681101591505092915050565b600081511415612b4457612eb4565b60005b8151811015612bf25760086000838381518110612b8d577f4e487b7100000000000000000000000000000000000000000000000000000000600052603260045260246000fd5b602002602001015173ffffffffffffffffffffffffffffffffffffffff1673ffffffffffffffffffffffffffffffffffffffff16815260200190815260200160002060006101000a81549060ff02191690558080612bea90615fe7565b915050612b47565b5060005b600980549050811015612d3a5760006008600060098481548110612c43577f4e487b7100000000000000000000000000000000000000000000000000000000600052603260045260246000fd5b9060005260206000200160009054906101000a900473ffffffffffffffffffffffffffffffffffffffff1673ffffffffffffffffffffffffffffffffffffffff1673ffffffffffffffffffffffffffffffffffffffff16815260200190815260200160002060009054906101000a900460ff1660ff161415612d275760098181548110612cf9577f4e487b7100000000000000000000000000000000000000000000000000000000600052603260045260246000fd5b9060005260206000200160006101000a81549073ffffffffffffffffffffffffffffffffffffffff02191690555b8080612d3290615fe7565b915050612bf6565b5060006010905060005b600980549050811015612eb157600060098281548110612d8d577f4e487b7100000000000000000000000000000000000000000000000000000000600052603260045260246000fd5b9060005260206000200160009054906101000a900473ffffffffffffffffffffffffffffffffffffffff169050600073ffffffffffffffffffffffffffffffffffffffff168173ffffffffffffffffffffffffffffffffffffffff161415612e02576010831415612dfc578192505b50612e9e565b60108314612e9c578060098481548110612e45577f4e487b7100000000000000000000000000000000000000000000000000000000600052603260045260246000fd5b9060005260206000200160006101000a81548173ffffffffffffffffffffffffffffffffffffffff021916908373ffffffffffffffffffffffffffffffffffffffff1602179055508280612e9890615fe7565b9350505b505b8080612ea990615fe7565b915050612d44565b50505b50565b600081511415612ec657613042565b60005b8151811015613040576000828281518110612f0d577f4e487b7100000000000000000000000000000000000000000000000000000000600052603260045260246000fd5b602002602001015190506000600860008373ffffffffffffffffffffffffffffffffffffffff1673ffffffffffffffffffffffffffffffffffffffff16815260200190815260200160002060009054906101000a900460ff1660ff16141561302c576001600860008373ffffffffffffffffffffffffffffffffffffffff1673ffffffffffffffffffffffffffffffffffffffff16815260200190815260200160002060006101000a81548160ff021916908360ff1602179055506009819080600181540180825580915050600190039060005260206000200160009091909190916101000a81548173ffffffffffffffffffffffffffffffffffffffff021916908373ffffffffffffffffffffffffffffffffffffffff1602179055505b50808061303890615fe7565b915050612ec9565b505b50565b6000808211613089576040517f08c379a0000000000000000000000000000000000000000000000000000000008152600401613080906157c9565b60405180910390fd5b6000600160648460035461309d9190615e70565b6130a79190615db2565b6130b19190615eca565b90506064816130c09190615e3f565b915050919050565b80600b846040516130d99190615447565b908152602001604051809103902060006101000a81548160ff021916908360ff16021790555080600a600084815260200190815260200160002060006101000a81548160ff021916908360ff160217905550505050565b600080823b905060008111915050919050565b6131c6846323b872dd60e01b858585604051602401613164939291906154cb565b604051602081830303815290604052907bffffffffffffffffffffffffffffffffffffffffffffffffffffffff19166020820180517bffffffffffffffffffffffffffffffffffffffffffffffffffffffff8381831617835250505050613b44565b50505050565b61324d8363a9059cbb60e01b84846040516024016131eb92919061554e565b604051602081830303815290604052907bffffffffffffffffffffffffffffffffffffffffffffffffffffffff19166020820180517bffffffffffffffffffffffffffffffffffffffffffffffffffffffff8381831617835250505050613b44565b505050565b600073ffffffffffffffffffffffffffffffffffffffff168273ffffffffffffffffffffffffffffffffffffffff1614156132c2576040517f08c379a00000000000000000000000000000000000000000000000000000000081526004016132b990615729565b60405180910390fd5b8273ffffffffffffffffffffffffffffffffffffffff163073ffffffffffffffffffffffffffffffffffffffff161415613331576040517f08c379a000000000000000000000000000000000000000000000000000000000815260040161332890615929565b60405180910390fd5b6133508373ffffffffffffffffffffffffffffffffffffffff16613130565b61338f576040517f08c379a000000000000000000000000000000000000000000000000000000000815260040161338690615c29565b60405180910390fd5b613398836118f9565b156133a25761347a565b600083905060008173ffffffffffffffffffffffffffffffffffffffff166370a08231306040518263ffffffff1660e01b81526004016133e2919061545e565b60206040518083038186803b1580156133fa57600080fd5b505afa15801561340e573d6000803e3d6000fd5b505050506040513d601f19601f820116820180604052508101906134329190614546565b905082811015613477576040517f08c379a000000000000000000000000000000000000000000000000000000000815260040161346e90615829565b60405180910390fd5b50505b505050565b613488836118f9565b156135055760008390508073ffffffffffffffffffffffffffffffffffffffff166340c10f1984846040518363ffffffff1660e01b81526004016134cd92919061554e565b600060405180830381600087803b1580156134e757600080fd5b505af11580156134fb573d6000803e3d6000fd5b5050505050613608565b600083905060008173ffffffffffffffffffffffffffffffffffffffff166370a08231306040518263ffffffff1660e01b8152600401613545919061545e565b60206040518083038186803b15801561355d57600080fd5b505afa158015613571573d6000803e3d6000fd5b505050506040513d601f19601f820116820180604052508101906135959190614546565b9050828110156135da576040517f08c379a00000000000000000000000000000000000000000000000000000000081526004016135d190615829565b60405180910390fd5b61360584848473ffffffffffffffffffffffffffffffffffffffff166131cc9092919063ffffffff16565b50505b505050565b600080600090505b82518110156137a3576000838281518110613659577f4e487b7100000000000000000000000000000000000000000000000000000000600052603260045260246000fd5b60200260200101519050600073ffffffffffffffffffffffffffffffffffffffff168173ffffffffffffffffffffffffffffffffffffffff16141561369e57506137a3565b60006001836136ad9190615db2565b90505b845181101561378e5760008582815181106136f4577f4e487b7100000000000000000000000000000000000000000000000000000000600052603260045260246000fd5b60200260200101519050600073ffffffffffffffffffffffffffffffffffffffff168173ffffffffffffffffffffffffffffffffffffffff161415613739575061378e565b8073ffffffffffffffffffffffffffffffffffffffff168373ffffffffffffffffffffffffffffffffffffffff16141561377a5760009450505050506137a9565b50808061378690615fe7565b9150506136b0565b5050808061379b90615fe7565b915050613615565b50600190505b919050565b60008060005b835181101561388c578381815181106137f6577f4e487b7100000000000000000000000000000000000000000000000000000000600052603260045260246000fd5b60200260200101519150600073ffffffffffffffffffffffffffffffffffffffff168273ffffffffffffffffffffffffffffffffffffffff16141561383a5761388c565b8473ffffffffffffffffffffffffffffffffffffffff168273ffffffffffffffffffffffffffffffffffffffff16141561387957600092505050613893565b808061388490615fe7565b9150506137b4565b5060019150505b92915050565b6000806000905060006138b86004548551613c0b90919063ffffffff16565b905060008167ffffffffffffffff8111156138fc577f4e487b7100000000000000000000000000000000000000000000000000000000600052604160045260246000fd5b60405190808252806020026020018201604052801561392a5781602001602082028036833780820191505090505b50905060008060005b84811015613ae3576000613954846004548b613c219092919063ffffffff16565b905060006139628b83613d3f565b9050600073ffffffffffffffffffffffffffffffffffffffff168173ffffffffffffffffffffffffffffffffffffffff1614156139d4576040517f08c379a00000000000000000000000000000000000000000000000000000000081526004016139cb90615969565b60405180910390fd5b6001600860008373ffffffffffffffffffffffffffffffffffffffff1673ffffffffffffffffffffffffffffffffffffffff16815260200190815260200160002060009054906101000a900460ff1660ff161415613abe578780613a3790615fe7565b98505080868580613a4790616030565b965060ff1681518110613a83577f4e487b7100000000000000000000000000000000000000000000000000000000600052603260045260246000fd5b602002602001019073ffffffffffffffffffffffffffffffffffffffff16908173ffffffffffffffffffffffffffffffffffffffff16815250505b60045485613acc9190615db2565b945050508080613adb90615fe7565b915050613933565b506000613aef8461360d565b90506060935080613b35576040517f08c379a0000000000000000000000000000000000000000000000000000000008152600401613b2c906157e9565b60405180910390fd5b85965050505050505092915050565b6000613ba6826040518060400160405280602081526020017f5361666545524332303a206c6f772d6c6576656c2063616c6c206661696c65648152508573ffffffffffffffffffffffffffffffffffffffff16613e4a9092919063ffffffff16565b9050600081511115613c065780806020019051810190613bc691906141ff565b613c05576040517f08c379a0000000000000000000000000000000000000000000000000000000008152600401613bfc90615be9565b60405180910390fd5b5b505050565b60008183613c199190615e3f565b905092915050565b606081601f83613c319190615db2565b1015613c72576040517f08c379a0000000000000000000000000000000000000000000000000000000008152600401613c6990615889565b60405180910390fd5b8183613c7e9190615db2565b84511015613cc1576040517f08c379a0000000000000000000000000000000000000000000000000000000008152600401613cb890615b69565b60405180910390fd5b6060821560008114613ce25760405191506000825260208201604052613d33565b6040519150601f8416801560200281840101858101878315602002848b0101015b81831015613d205780518352602083019250602081019050613d03565b50868552601f19601f8301166040525050505b50809150509392505050565b600080600080600454855114613d5b5760009350505050613e44565b6020850151925060408501519150606085015160001a90507f7fffffffffffffffffffffffffffffff5d576e7357a4501ddfe92f46681b20a08260001c1115613daa5760009350505050613e44565b601b8160ff161015613dc657601b81613dc39190615e08565b90505b601b8160ff1614158015613dde5750601c8160ff1614155b15613def5760009350505050613e44565b60018682858560405160008152602001604052604051613e1294939291906155b4565b6020604051602081039080840390855afa158015613e34573d6000803e3d6000fd5b5050506020604051035193505050505b92915050565b6060613e598484600085613e62565b90509392505050565b606082471015613ea7576040517f08c379a0000000000000000000000000000000000000000000000000000000008152600401613e9e90615849565b60405180910390fd5b613eb085613130565b613eef576040517f08c379a0000000000000000000000000000000000000000000000000000000008152600401613ee690615b49565b60405180910390fd5b6000808673ffffffffffffffffffffffffffffffffffffffff168587604051613f189190615430565b60006040518083038185875af1925050503d8060008114613f55576040519150601f19603f3d011682016040523d82523d6000602084013e613f5a565b606091505b5091509150613f6a828286613f76565b92505050949350505050565b60608315613f8657829050613fd6565b600083511115613f995782518084602001fd5b816040517f08c379a0000000000000000000000000000000000000000000000000000000008152600401613fcd91906155f9565b60405180910390fd5b9392505050565b6000613ff0613feb84615cb0565b615c7f565b9050808382526020820190508285602086028201111561400f57600080fd5b60005b8581101561403f578161402588826140c5565b845260208401935060208301925050600181019050614012565b5050509392505050565b600061405c61405784615cdc565b615c7f565b90508281526020810184848401111561407457600080fd5b61407f848285615fa5565b509392505050565b600061409a61409584615d0c565b615c7f565b9050828152602081018484840111156140b257600080fd5b6140bd848285615fa5565b509392505050565b6000813590506140d4816160f8565b92915050565b6000813590506140e98161610f565b92915050565b600082601f83011261410057600080fd5b8135614110848260208601613fdd565b91505092915050565b60008135905061412881616126565b92915050565b60008151905061413d81616126565b92915050565b600082601f83011261415457600080fd5b8135614164848260208601614049565b91505092915050565b600082601f83011261417e57600080fd5b813561418e848260208601614087565b91505092915050565b6000813590506141a68161613d565b92915050565b6000815190506141bb8161613d565b92915050565b6000813590506141d081616154565b92915050565b6000602082840312156141e857600080fd5b60006141f6848285016140c5565b91505092915050565b60006020828403121561421157600080fd5b600061421f8482850161412e565b91505092915050565b60006020828403121561423a57600080fd5b600082013567ffffffffffffffff81111561425457600080fd5b6142608482850161416d565b91505092915050565b60008060008060008060c0878903121561428257600080fd5b600087013567ffffffffffffffff81111561429c57600080fd5b6142a889828a0161416d565b96505060206142b989828a016140da565b95505060406142ca89828a01614197565b94505060606142db89828a01614119565b93505060806142ec89828a016140c5565b92505060a087013567ffffffffffffffff81111561430957600080fd5b61431589828a01614143565b9150509295509295509295565b60008060006060848603121561433757600080fd5b600084013567ffffffffffffffff81111561435157600080fd5b61435d8682870161416d565b935050602061436e868287016140c5565b925050604084013567ffffffffffffffff81111561438b57600080fd5b61439786828701614143565b9150509250925092565b6000806000606084860312156143b657600080fd5b600084013567ffffffffffffffff8111156143d057600080fd5b6143dc8682870161416d565b93505060206143ed868287016140c5565b92505060406143fe86828701614197565b9150509250925092565b600080600080600060a0868803121561442057600080fd5b600086013567ffffffffffffffff81111561443a57600080fd5b6144468882890161416d565b955050602086013567ffffffffffffffff81111561446357600080fd5b61446f888289016140ef565b945050604086013567ffffffffffffffff81111561448c57600080fd5b614498888289016140ef565b93505060606144a9888289016141c1565b925050608086013567ffffffffffffffff8111156144c657600080fd5b6144d288828901614143565b9150509295509295909350565b6000806000606084860312156144f457600080fd5b600084013567ffffffffffffffff81111561450e57600080fd5b61451a8682870161416d565b935050602061452b86828701614197565b925050604061453c868287016140c5565b9150509250925092565b60006020828403121561455857600080fd5b6000614566848285016141ac565b91505092915050565b600061457b83836145a5565b60208301905092915050565b61459081615f6f565b82525050565b61459f81615f10565b82525050565b6145ae81615efe565b82525050565b6145bd81615efe565b82525050565b60006145ce82615d4c565b6145d88185615d7a565b93506145e383615d3c565b8060005b838110156146145781516145fb888261456f565b975061460683615d6d565b9250506001810190506145e7565b5085935050505092915050565b61462a81615f22565b82525050565b61463981615f2e565b82525050565b600061464a82615d57565b6146548185615d8b565b9350614664818560208601615fb4565b80840191505092915050565b600061467b82615d62565b6146858185615d96565b9350614695818560208601615fb4565b61469e816160e7565b840191505092915050565b60006146b482615d62565b6146be8185615da7565b93506146ce818560208601615fb4565b80840191505092915050565b60006146e7602383615d96565b91507f45524332303a207472616e7366657220746f20746865207a65726f206164647260008301527f65737300000000000000000000000000000000000000000000000000000000006020830152604082019050919050565b600061474d602883615d96565b91507f5468697320616464726573732068617320616c7265616479206265656e20726560008301527f67697374657265640000000000000000000000000000000000000000000000006020830152604082019050919050565b60006147b3602683615d96565b91507f57697468647261773a207472616e7366657220746f20746865207a65726f206160008301527f64647265737300000000000000000000000000000000000000000000000000006020830152604082019050919050565b6000614819601283615d96565b91507f496e76616c6964207369676e61747572657300000000000000000000000000006000830152602082019050919050565b6000614859602c83615d96565b91507f4475706c696361746520706172616d657465727320666f72207468652061646460008301527f7265737320746f206a6f696e00000000000000000000000000000000000000006020830152604082019050919050565b60006148bf601483615d96565b91507f4d616e616765722043616e277420656d7074792e0000000000000000000000006000830152602082019050919050565b60006148ff601483615d96565b91507f5369676e617475726573206475706c69636174650000000000000000000000006000830152602082019050919050565b600061493f601e83615d96565b91507f5472616e73616374696f6e20686173206265656e20636f6d706c6574656400006000830152602082019050919050565b600061497f601a83615d96565b91507f4e6f20656e6f7567682062616c616e6365206f6620746f6b656e0000000000006000830152602082019050919050565b60006149bf602683615d96565b91507f416464726573733a20696e73756666696369656e742062616c616e636520666f60008301527f722063616c6c00000000000000000000000000000000000000000000000000006020830152604082019050919050565b6000614a25602483615d96565b91507f45524332303a20446f6573206e6f742061636365707420457468657265756d2060008301527f436f696e000000000000000000000000000000000000000000000000000000006020830152604082019050919050565b6000614a8b600e83615d96565b91507f736c6963655f6f766572666c6f770000000000000000000000000000000000006000830152602082019050919050565b6000614acb601b83615d96565b91507f4f6e6c79206d616e616765722063616e206578656375746520697400000000006000830152602082019050919050565b6000614b0b603f83615d96565b91507f5468697320636f6e7472616374206164647265737320646f6573206e6f74206860008301527f6176652073756666696369656e742062616c616e6365206f66206574686572006020830152604082019050919050565b6000614b71601d83615d96565b91507f4d6178206c656e677468206f66207369676e6174757265733a203937350000006000830152602082019050919050565b6000614bb1602483615d96565b91507f4552524f523a204465746563746564207a65726f206164647265737320696e2060008301527f61646473000000000000000000000000000000000000000000000000000000006020830152604082019050919050565b6000614c17601683615d96565b91507f446f206e6f7468696e6720627920796f757273656c66000000000000000000006000830152602082019050919050565b6000614c57601283615d96565b91507f4552524f523a205a65726f20616d6f756e7400000000000000000000000000006000830152602082019050919050565b6000614c97601083615d96565b91507f5369676e617475726573206572726f72000000000000000000000000000000006000830152602082019050919050565b6000614cd7602783615d96565b91507f457863656564656420746865206d6178696d756d206e756d626572206f66206d60008301527f616e6167657273000000000000000000000000000000000000000000000000006020830152604082019050919050565b6000614d3d600683615d96565b91507f44656e69656400000000000000000000000000000000000000000000000000006000830152602082019050919050565b6000614d7d604483615d96565b91507f5468657265206172652061646472657373657320696e2074686520657869746960008301527f6e672061646472657373206c697374207468617420617265206e6f74206d616e60208301527f61676572000000000000000000000000000000000000000000000000000000006040830152606082019050919050565b6000614e09602883615d96565b91507f5769746864726177616c20616d6f756e74206d7573742062652067726561746560008301527f72207468616e20300000000000000000000000000000000000000000000000006020830152604082019050919050565b6000614e6f602283615d96565b91507f4e6f20656e6f75676820616d6f756e7420666f7220617574686f72697a61746960008301527f6f6e0000000000000000000000000000000000000000000000000000000000006020830152604082019050919050565b6000614ed5602383615d96565b91507f4552524f523a207472616e7366657220746f20746865207a65726f206164647260008301527f65737300000000000000000000000000000000000000000000000000000000006020830152604082019050919050565b6000614f3b604083615d96565b91507f5468652061646472657373206c6973742074686174206973206265696e67206160008301527f6464656420616c7265616479206578697374732061732061206d616e616765726020830152604082019050919050565b6000614fa1601e83615d96565b91507f546869732061646472657373206973206e6f74207265676973746572656400006000830152602082019050919050565b6000614fe1601e83615d96565b91507f4e6f20656e6f7567682062616c616e6365206f662074686520746f6b656e00006000830152602082019050919050565b6000615021601583615d96565b91507f56616c6964207369676e617475726573206661696c00000000000000000000006000830152602082019050919050565b6000615061602883615d96565b91507f546865726520617265206e6f206d616e6167657273206a6f696e696e67206f7260008301527f2065786974696e670000000000000000000000000000000000000000000000006020830152604082019050919050565b60006150c7601d83615d96565b91507f496e636f6e73697374656e637920457468657265756d20616d6f756e740000006000830152602082019050919050565b6000615107601483615d96565b91507f497420686173206265656e2075706772616465640000000000000000000000006000830152602082019050919050565b6000615147601983615d96565b91507f4669786564206c656e677468206f662074784b65793a203634000000000000006000830152602082019050919050565b6000615187601d83615d96565b91507f416464726573733a2063616c6c20746f206e6f6e2d636f6e74726163740000006000830152602082019050919050565b60006151c7601183615d96565b91507f736c6963655f6f75744f66426f756e64730000000000000000000000000000006000830152602082019050919050565b6000615207601983615d96565b91507f4f6e6c79206f776e65722063616e2065786563757465206974000000000000006000830152602082019050919050565b6000615247602c83615d96565b91507f4475706c696361746520706172616d657465727320666f72207468652061646460008301527f7265737320746f206578697400000000000000000000000000000000000000006020830152604082019050919050565b60006152ad601783615d96565b91507f43616e277420657869742073656564206d616e616765720000000000000000006000830152602082019050919050565b60006152ed602a83615d96565b91507f5361666545524332303a204552433230206f7065726174696f6e20646964206e60008301527f6f742073756363656564000000000000000000000000000000000000000000006020830152604082019050919050565b6000615353602683615d96565b91507f436f6e74726163742063726561746f722063616e6e6f7420616374206173206d60008301527f616e6167657200000000000000000000000000000000000000000000000000006020830152604082019050919050565b60006153b9602583615d96565b91507f5468652061646472657373206973206e6f74206120636f6e747261637420616460008301527f64726573730000000000000000000000000000000000000000000000000000006020830152604082019050919050565b61541b81615f58565b82525050565b61542a81615f62565b82525050565b600061543c828461463f565b915081905092915050565b600061545382846146a9565b915081905092915050565b600060208201905061547360008301846145b4565b92915050565b600060408201905061548e6000830185614587565b61549b6020830184615412565b9392505050565b60006040820190506154b760008301856145b4565b6154c460208301846145b4565b9392505050565b60006060820190506154e060008301866145b4565b6154ed60208301856145b4565b6154fa6040830184615412565b949350505050565b600060808201905061551760008301876145b4565b81810360208301526155298186614670565b90506155386040830185615412565b61554560608301846145b4565b95945050505050565b600060408201905061556360008301856145b4565b6155706020830184615412565b9392505050565b6000602082019050818103600083015261559181846145c3565b905092915050565b60006020820190506155ae6000830184614621565b92915050565b60006080820190506155c96000830187614630565b6155d66020830186615421565b6155e36040830185614630565b6155f06060830184614630565b95945050505050565b600060208201905081810360008301526156138184614670565b905092915050565b600060c08201905081810360008301526156358189614670565b90506156446020830188614596565b6156516040830187615412565b61565e6060830186614621565b61566b60808301856145b4565b61567860a0830184615412565b979650505050505050565b6000606082019050818103600083015261569d8186614670565b90506156ac60208301856145b4565b6156b96040830184615412565b949350505050565b600060a08201905081810360008301526156db8188614670565b905081810360208301526156ef81876145c3565b90506156fe6040830186615421565b818103606083015261571081856145c3565b905061571f6080830184615412565b9695505050505050565b60006020820190508181036000830152615742816146da565b9050919050565b6000602082019050818103600083015261576281614740565b9050919050565b60006020820190508181036000830152615782816147a6565b9050919050565b600060208201905081810360008301526157a28161480c565b9050919050565b600060208201905081810360008301526157c28161484c565b9050919050565b600060208201905081810360008301526157e2816148b2565b9050919050565b60006020820190508181036000830152615802816148f2565b9050919050565b6000602082019050818103600083015261582281614932565b9050919050565b6000602082019050818103600083015261584281614972565b9050919050565b60006020820190508181036000830152615862816149b2565b9050919050565b6000602082019050818103600083015261588281614a18565b9050919050565b600060208201905081810360008301526158a281614a7e565b9050919050565b600060208201905081810360008301526158c281614abe565b9050919050565b600060208201905081810360008301526158e281614afe565b9050919050565b6000602082019050818103600083015261590281614b64565b9050919050565b6000602082019050818103600083015261592281614ba4565b9050919050565b6000602082019050818103600083015261594281614c0a565b9050919050565b6000602082019050818103600083015261596281614c4a565b9050919050565b6000602082019050818103600083015261598281614c8a565b9050919050565b600060208201905081810360008301526159a281614cca565b9050919050565b600060208201905081810360008301526159c281614d30565b9050919050565b600060208201905081810360008301526159e281614d70565b9050919050565b60006020820190508181036000830152615a0281614dfc565b9050919050565b60006020820190508181036000830152615a2281614e62565b9050919050565b60006020820190508181036000830152615a4281614ec8565b9050919050565b60006020820190508181036000830152615a6281614f2e565b9050919050565b60006020820190508181036000830152615a8281614f94565b9050919050565b60006020820190508181036000830152615aa281614fd4565b9050919050565b60006020820190508181036000830152615ac281615014565b9050919050565b60006020820190508181036000830152615ae281615054565b9050919050565b60006020820190508181036000830152615b02816150ba565b9050919050565b60006020820190508181036000830152615b22816150fa565b9050919050565b60006020820190508181036000830152615b428161513a565b9050919050565b60006020820190508181036000830152615b628161517a565b9050919050565b60006020820190508181036000830152615b82816151ba565b9050919050565b60006020820190508181036000830152615ba2816151fa565b9050919050565b60006020820190508181036000830152615bc28161523a565b9050919050565b60006020820190508181036000830152615be2816152a0565b9050919050565b60006020820190508181036000830152615c02816152e0565b9050919050565b60006020820190508181036000830152615c2281615346565b9050919050565b60006020820190508181036000830152615c42816153ac565b9050919050565b6000602082019050615c5e6000830184615412565b92915050565b6000602082019050615c796000830184615421565b92915050565b6000604051905081810181811067ffffffffffffffff82111715615ca657615ca56160b8565b5b8060405250919050565b600067ffffffffffffffff821115615ccb57615cca6160b8565b5b602082029050602081019050919050565b600067ffffffffffffffff821115615cf757615cf66160b8565b5b601f19601f8301169050602081019050919050565b600067ffffffffffffffff821115615d2757615d266160b8565b5b601f19601f8301169050602081019050919050565b6000819050602082019050919050565b600081519050919050565b600081519050919050565b600081519050919050565b6000602082019050919050565b600082825260208201905092915050565b600081905092915050565b600082825260208201905092915050565b600081905092915050565b6000615dbd82615f58565b9150615dc883615f58565b9250827fffffffffffffffffffffffffffffffffffffffffffffffffffffffffffffffff03821115615dfd57615dfc61605a565b5b828201905092915050565b6000615e1382615f62565b9150615e1e83615f62565b92508260ff03821115615e3457615e3361605a565b5b828201905092915050565b6000615e4a82615f58565b9150615e5583615f58565b925082615e6557615e64616089565b5b828204905092915050565b6000615e7b82615f58565b9150615e8683615f58565b9250817fffffffffffffffffffffffffffffffffffffffffffffffffffffffffffffffff0483118215151615615ebf57615ebe61605a565b5b828202905092915050565b6000615ed582615f58565b9150615ee083615f58565b925082821015615ef357615ef261605a565b5b828203905092915050565b6000615f0982615f38565b9050919050565b6000615f1b82615f38565b9050919050565b60008115159050919050565b6000819050919050565b600073ffffffffffffffffffffffffffffffffffffffff82169050919050565b6000819050919050565b600060ff82169050919050565b6000615f7a82615f81565b9050919050565b6000615f8c82615f93565b9050919050565b6000615f9e82615f38565b9050919050565b82818337600083830152505050565b60005b83811015615fd2578082015181840152602081019050615fb7565b83811115615fe1576000848401525b50505050565b6000615ff282615f58565b91507fffffffffffffffffffffffffffffffffffffffffffffffffffffffffffffffff8214156160255761602461605a565b5b600182019050919050565b600061603b82615f62565b915060ff82141561604f5761604e61605a565b5b600182019050919050565b7f4e487b7100000000000000000000000000000000000000000000000000000000600052601160045260246000fd5b7f4e487b7100000000000000000000000000000000000000000000000000000000600052601260045260246000fd5b7f4e487b7100000000000000000000000000000000000000000000000000000000600052604160045260246000fd5b6000601f19601f8301169050919050565b61610181615efe565b811461610c57600080fd5b50565b61611881615f10565b811461612357600080fd5b50565b61612f81615f22565b811461613a57600080fd5b50565b61614681615f58565b811461615157600080fd5b50565b61615d81615f62565b811461616857600080fd5b5056fea264697066735822122079923ee4341ae26e07e20d56cc303e562037ecd9575b387dad086bdef57e464664736f6c63430008000033",
  "immutableReferences": {},
  "source": "// SPDX-License-Identifier: MIT\n\npragma solidity ^0.8.0;\n\nimport \"@openzeppelin/contracts/token/ERC20/IERC20.sol\";\nimport \"@openzeppelin/contracts/token/ERC20/utils/SafeERC20.sol\";\nimport \"@openzeppelin/contracts/token/ERC721/IERC721.sol\";\nimport \"@openzeppelin/contracts/utils/math/SafeMath.sol\";\nimport \"@openzeppelin/contracts/utils/Address.sol\";\nimport \"solidity-bytes-utils/contracts/BytesLib.sol\";\n\ninterface IERC20Minter {\n    function mint(address to, uint256 amount) external;\n\n    function burn(uint256 amount) external;\n\n    function replaceMinter(address newMinter) external;\n}\n\ninterface IERC721Minter {\n    function mint(address player, string memory tokenURI) external;\n\n    function burn(uint256 tokenId) external;\n\n    function replaceMinter(address newMinter) external;\n}\n\ncontract DynamicMultiSig {\n    using Address for address;\n    using SafeERC20 for IERC20;\n    using SafeMath for uint256;\n    using BytesLib for bytes;\n\n    modifier isOwner() {\n        require(owner == msg.sender, \"Only owner can execute it\");\n        _;\n    }\n    modifier isManager() {\n        require(managers[msg.sender] == 1, \"Only manager can execute it\");\n        _;\n    }\n    bool public upgrade = false;\n    address public upgradeContractAddress = address(0);\n    // \n    uint256 public max_managers = 15;\n    // \n    uint256 public min_managers = 3;\n    //  66%\n    uint256 public rate = 66;\n    // \n    uint256 public signatureLength = 65;\n    // \n    uint256 constant DENOMINATOR = 100;\n    // \n    uint256 constant VERSION = 2;\n    // \n    uint8 public current_min_signatures;\n    address public owner;\n    mapping(address => uint8) private seedManagers;\n    address[] private seedManagerArray;\n    mapping(address => uint8) private managers;\n    address[] private managerArray;\n    mapping(bytes32 => uint8) private completedKeccak256s;\n    mapping(string => uint8) private completedTxs;\n    mapping(address => uint8) private minterERC20s;\n    mapping(address => uint8) private minterERC721s;\n\n    constructor(address[] memory _managers) {\n        require(\n            _managers.length <= max_managers,\n            \"Exceeded the maximum number of managers\"\n        );\n        require(\n            _managers.length >= min_managers,\n            \"Not reaching the min number of managers\"\n        );\n        owner = msg.sender;\n        managerArray = _managers;\n        for (uint8 i = 0; i < managerArray.length; i++) {\n            managers[managerArray[i]] = 1;\n            seedManagers[managerArray[i]] = 1;\n            seedManagerArray.push(managerArray[i]);\n        }\n        require(managers[owner] == 0, \"Contract creator cannot act as manager\");\n        // \n        current_min_signatures = calMinSignatures(managerArray.length);\n    }\n\n    // function() external payable {\n    //     emit DepositFunds(msg.sender, msg.value);\n    // }\n    fallback() external payable {}\n\n    receive() external payable {\n        emit DepositFunds(msg.sender, msg.value);\n    }\n\n    function createOrSignWithdraw(\n        string memory txKey,\n        address payable to,\n        uint256 amount,\n        bool isERC20,\n        address ERC20,\n        bytes memory signatures\n    ) public isManager {\n        require(bytes(txKey).length == 64, \"Fixed length of txKey: 64\");\n        require(to != address(0), \"Withdraw: transfer to the zero address\");\n        require(amount > 0, \"Withdrawal amount must be greater than 0\");\n        // \n        require(completedTxs[txKey] == 0, \"Transaction has been completed\");\n        // \n        if (isERC20) {\n            validateTransferERC20(ERC20, to, amount);\n        } else {\n            require(\n                address(this).balance >= amount,\n                \"This contract address does not have sufficient balance of ether\"\n            );\n        }\n        bytes32 vHash = keccak256(\n            abi.encode(txKey, to, amount, isERC20, ERC20, VERSION)\n        );\n        // \n        require(completedKeccak256s[vHash] == 0, \"Invalid signatures\");\n        // \n        require(validSignature(vHash, signatures), \"Valid signatures fail\");\n        // \n        if (isERC20) {\n            transferERC20(ERC20, to, amount);\n        } else {\n            // \n            require(\n                address(this).balance >= amount,\n                \"This contract address does not have sufficient balance of ether\"\n            );\n            to.transfer(amount);\n            emit TransferFunds(to, amount);\n        }\n        // \n        completeTx(txKey, vHash, 1);\n        emit TxWithdrawCompleted(txKey);\n    }\n\n    function createOrSignManagerChange(\n        string memory txKey,\n        address[] memory adds,\n        address[] memory removes,\n        uint8 count,\n        bytes memory signatures\n    ) public isManager {\n        require(bytes(txKey).length == 64, \"Fixed length of txKey: 64\");\n        require(\n            adds.length > 0 || removes.length > 0,\n            \"There are no managers joining or exiting\"\n        );\n        // \n        require(completedTxs[txKey] == 0, \"Transaction has been completed\");\n        preValidateAddsAndRemoves(adds, removes);\n        bytes32 vHash = keccak256(\n            abi.encode(txKey, adds, count, removes, VERSION)\n        );\n        // \n        require(completedKeccak256s[vHash] == 0, \"Invalid signatures\");\n        // \n        require(validSignature(vHash, signatures), \"Valid signatures fail\");\n        // \n        removeManager(removes);\n        addManager(adds);\n        // \n        current_min_signatures = calMinSignatures(managerArray.length);\n        // \n        completeTx(txKey, vHash, 1);\n        // add event\n        emit TxManagerChangeCompleted(txKey);\n    }\n\n    function createOrSignUpgrade(\n        string memory txKey,\n        address upgradeContract,\n        bytes memory signatures\n    ) public isManager {\n        require(bytes(txKey).length == 64, \"Fixed length of txKey: 64\");\n        // \n        require(completedTxs[txKey] == 0, \"Transaction has been completed\");\n        require(!upgrade, \"It has been upgraded\");\n        require(\n            upgradeContract.isContract(),\n            \"The address is not a contract address\"\n        );\n        // \n        bytes32 vHash = keccak256(abi.encode(txKey, upgradeContract, VERSION));\n        // \n        require(completedKeccak256s[vHash] == 0, \"Invalid signatures\");\n        // \n        require(validSignature(vHash, signatures), \"Valid signatures fail\");\n        // \n        upgrade = true;\n        upgradeContractAddress = upgradeContract;\n        // \n        completeTx(txKey, vHash, 1);\n        // add event\n        emit TxUpgradeCompleted(txKey);\n    }\n\n    function validSignature(bytes32 hash, bytes memory signatures)\n        internal\n        view\n        returns (bool)\n    {\n        require(signatures.length <= 975, \"Max length of signatures: 975\");\n        // ,\n        uint256 sManagersCount = getManagerFromSignatures(hash, signatures);\n        // \n        return sManagersCount >= current_min_signatures;\n    }\n\n    function getManagerFromSignatures(bytes32 hash, bytes memory signatures)\n        internal\n        view\n        returns (uint256)\n    {\n        uint256 signCount = 0;\n        uint256 times = signatures.length.div(signatureLength);\n        address[] memory result = new address[](times);\n        uint256 k = 0;\n        uint8 j = 0;\n        for (uint256 i = 0; i < times; i++) {\n            bytes memory sign = signatures.slice(k, signatureLength);\n            address mAddress = ecrecovery(hash, sign);\n            require(mAddress != address(0), \"Signatures error\");\n            // \n            if (managers[mAddress] == 1) {\n                signCount++;\n                result[j++] = mAddress;\n            }\n            k += signatureLength;\n        }\n        // \n        bool suc = repeatability(result);\n        delete result;\n        require(suc, \"Signatures duplicate\");\n        return signCount;\n    }\n\n    function validateRepeatability(\n        address currentAddress,\n        address[] memory list\n    ) internal pure returns (bool) {\n        address tempAddress;\n        for (uint256 i = 0; i < list.length; i++) {\n            tempAddress = list[i];\n            if (tempAddress == address(0)) {\n                break;\n            }\n            if (tempAddress == currentAddress) {\n                return false;\n            }\n        }\n        return true;\n    }\n\n    function repeatability(address[] memory list) internal pure returns (bool) {\n        for (uint256 i = 0; i < list.length; i++) {\n            address address1 = list[i];\n            if (address1 == address(0)) {\n                break;\n            }\n            for (uint256 j = i + 1; j < list.length; j++) {\n                address address2 = list[j];\n                if (address2 == address(0)) {\n                    break;\n                }\n                if (address1 == address2) {\n                    return false;\n                }\n            }\n        }\n        return true;\n    }\n\n    function ecrecovery(bytes32 hash, bytes memory sig)\n        internal\n        view\n        returns (address)\n    {\n        bytes32 r;\n        bytes32 s;\n        uint8 v;\n        if (sig.length != signatureLength) {\n            return address(0);\n        }\n        assembly {\n            r := mload(add(sig, 32))\n            s := mload(add(sig, 64))\n            v := byte(0, mload(add(sig, 96)))\n        }\n        if (\n            uint256(s) >\n            0x7FFFFFFFFFFFFFFFFFFFFFFFFFFFFFFF5D576E7357A4501DDFE92F46681B20A0\n        ) {\n            return address(0);\n        }\n        // https://github.com/ethereum/go-ethereum/issues/2053\n        if (v < 27) {\n            v += 27;\n        }\n        if (v != 27 && v != 28) {\n            return address(0);\n        }\n        return ecrecover(hash, v, r, s);\n    }\n\n    function preValidateAddsAndRemoves(\n        address[] memory adds,\n        address[] memory removes\n    ) internal view {\n        // adds\n        uint256 addLen = adds.length;\n        for (uint256 i = 0; i < addLen; i++) {\n            address add = adds[i];\n            require(add != address(0), \"ERROR: Detected zero address in adds\");\n            require(\n                managers[add] == 0,\n                \"The address list that is being added already exists as a manager\"\n            );\n        }\n        require(\n            repeatability(adds),\n            \"Duplicate parameters for the address to join\"\n        );\n        // \n        require(\n            validateRepeatability(owner, adds),\n            \"Contract creator cannot act as manager\"\n        );\n        // removes\n        require(\n            repeatability(removes),\n            \"Duplicate parameters for the address to exit\"\n        );\n        uint256 removeLen = removes.length;\n        for (uint256 i = 0; i < removeLen; i++) {\n            address remove = removes[i];\n            require(seedManagers[remove] == 0, \"Can't exit seed manager\");\n            require(\n                managers[remove] == 1,\n                \"There are addresses in the exiting address list that are not manager\"\n            );\n        }\n        require(\n            managerArray.length + adds.length - removes.length <= max_managers,\n            \"Exceeded the maximum number of managers\"\n        );\n    }\n\n    /*\n      ``  `` \n    */\n    function calMinSignatures(uint256 managerCounts)\n        internal\n        view\n        returns (uint8)\n    {\n        require(managerCounts > 0, \"Manager Can't empty.\");\n        uint256 numerator = rate * managerCounts + DENOMINATOR - 1;\n        return uint8(numerator / DENOMINATOR);\n    }\n\n    function removeManager(address[] memory removes) internal {\n        if (removes.length == 0) {\n            return;\n        }\n        for (uint256 i = 0; i < removes.length; i++) {\n            delete managers[removes[i]];\n        }\n        // \n        for (uint256 i = 0; i < managerArray.length; i++) {\n            if (managers[managerArray[i]] == 0) {\n                delete managerArray[i];\n            }\n        }\n        uint256 tempIndex = 0x10;\n        for (uint256 i = 0; i < managerArray.length; i++) {\n            address temp = managerArray[i];\n            if (temp == address(0)) {\n                if (tempIndex == 0x10) tempIndex = i;\n                continue;\n            } else if (tempIndex != 0x10) {\n                managerArray[tempIndex] = temp;\n                tempIndex++;\n            }\n        }\n        // managerArray.length -= removes.length;\n    }\n\n    function addManager(address[] memory adds) internal {\n        if (adds.length == 0) {\n            return;\n        }\n        for (uint256 i = 0; i < adds.length; i++) {\n            address add = adds[i];\n            if (managers[add] == 0) {\n                managers[add] = 1;\n                managerArray.push(add);\n            }\n        }\n    }\n\n    function completeTx(\n        string memory txKey,\n        bytes32 keccak256Hash,\n        uint8 e\n    ) internal {\n        completedTxs[txKey] = e;\n        completedKeccak256s[keccak256Hash] = e;\n    }\n\n    function validateTransferERC20(\n        address ERC20,\n        address to,\n        uint256 amount\n    ) internal view {\n        require(to != address(0), \"ERC20: transfer to the zero address\");\n        require(address(this) != ERC20, \"Do nothing by yourself\");\n        require(ERC20.isContract(), \"The address is not a contract address\");\n        if (isMinterERC20(ERC20)) {\n            // ERC20\n            return;\n        }\n        IERC20 token = IERC20(ERC20);\n        uint256 balance = token.balanceOf(address(this));\n        require(balance >= amount, \"No enough balance of token\");\n    }\n\n    function transferERC20(\n        address ERC20,\n        address to,\n        uint256 amount\n    ) internal {\n        if (isMinterERC20(ERC20)) {\n            // ERC20\n            IERC20Minter minterToken = IERC20Minter(ERC20);\n            minterToken.mint(to, amount);\n            return;\n        }\n        IERC20 token = IERC20(ERC20);\n        uint256 balance = token.balanceOf(address(this));\n        require(balance >= amount, \"No enough balance of token\");\n        token.safeTransfer(to, amount);\n    }\n\n    function transferERC721(\n        address ERC721,\n        address to,\n        uint256 tokenId,\n        string memory tokenURI\n    ) internal {\n        if (isMinterERC20(ERC721)) {\n            // ERC20\n            IERC721Minter minterToken = IERC721Minter(ERC721);\n            minterToken.mint(to, tokenURI);\n            return;\n        }\n        address from = msg.sender;\n        IERC721 token = IERC721(ERC721);\n        token.safeTransferFrom(from, to, tokenId);\n    }\n\n    function closeUpgrade() public isOwner {\n        require(upgrade, \"Denied\");\n        upgrade = false;\n    }\n\n    function upgradeContractS1() public isOwner {\n        require(upgrade, \"Denied\");\n        require(\n            upgradeContractAddress != address(0),\n            \"ERROR: transfer to the zero address\"\n        );\n        payable(address(uint160(upgradeContractAddress))).transfer(\n            address(this).balance\n        );\n    }\n\n    function upgradeContractS2(address ERC20) public isOwner {\n        require(upgrade, \"Denied\");\n        require(\n            upgradeContractAddress != address(0),\n            \"ERROR: transfer to the zero address\"\n        );\n        require(address(this) != ERC20, \"Do nothing by yourself\");\n        require(ERC20.isContract(), \"The address is not a contract address\");\n        IERC20 token = IERC20(ERC20);\n        uint256 balance = token.balanceOf(address(this));\n        require(balance >= 0, \"No enough balance of token\");\n        token.safeTransfer(upgradeContractAddress, balance);\n        if (isMinterERC20(ERC20)) {\n            // ERC20\n            IERC20Minter minterToken = IERC20Minter(ERC20);\n            minterToken.replaceMinter(upgradeContractAddress);\n        }\n    }\n\n    // ERC20\n    function isMinterERC20(address ERC20) public view returns (bool) {\n        return minterERC20s[ERC20] > 0;\n    }\n\n    // ERC20\n    function registerMinterERC20(address ERC20) public isOwner {\n        require(address(this) != ERC20, \"Do nothing by yourself\");\n        require(ERC20.isContract(), \"The address is not a contract address\");\n        require(\n            !isMinterERC20(ERC20),\n            \"This address has already been registered\"\n        );\n        minterERC20s[ERC20] = 1;\n    }\n\n    // ERC20\n    function unregisterMinterERC20(address ERC20) public isOwner {\n        require(isMinterERC20(ERC20), \"This address is not registered\");\n        delete minterERC20s[ERC20];\n    }\n\n    // ERC721\n    function isMinterERC721(address ERC721) public view returns (bool) {\n        return minterERC721s[ERC721] > 0;\n    }\n\n    // ERC721\n    function registerMinterERC721(address ERC721) public isOwner {\n        require(address(this) != ERC721, \"Do nothing by yourself\");\n        require(ERC721.isContract(), \"The address is not a contract address\");\n        require(\n            !isMinterERC721(ERC721),\n            \"This address has already been registered\"\n        );\n        minterERC721s[ERC721] = 1;\n    }\n\n    // ERC721\n    function unregisterMinterERC721(address ERC721) public isOwner {\n        require(isMinterERC721(ERC721), \"This address is not registered\");\n        delete minterERC721s[ERC721];\n    }\n\n    // eth(ETH or ERC20)\n    function crossOut(\n        string memory to, // chainID(int) + address\n        uint256 amount,\n        address ERC20\n    ) public payable returns (bool) {\n        address from = msg.sender;\n        require(amount > 0, \"ERROR: Zero amount\");\n        if (ERC20 != address(0)) {\n            require(msg.value == 0, \"ERC20: Does not accept Ethereum Coin\");\n            require(\n                ERC20.isContract(),\n                \"The address is not a contract address\"\n            );\n            IERC20 token = IERC20(ERC20);\n            uint256 allowance = token.allowance(from, address(this));\n            require(allowance >= amount, \"No enough amount for authorization\");\n            uint256 fromBalance = token.balanceOf(from);\n            require(fromBalance >= amount, \"No enough balance of the token\");\n            token.safeTransferFrom(from, address(this), amount);\n            if (isMinterERC20(ERC20)) {\n                // ERC20token\n                IERC20Minter minterToken = IERC20Minter(ERC20);\n                minterToken.burn(amount);\n            }\n        } else {\n            require(msg.value == amount, \"Inconsistency Ethereum amount\");\n        }\n        emit CrossOutFunds(from, to, amount, ERC20);\n        return true;\n    }\n\n    function crossOutNFT(\n        string memory to,\n        address ERC721,\n        uint256 tokenId\n    ) public returns (bool) {\n        address from = msg.sender;\n        require(ERC721.isContract(), \"The address is not a contract address\");\n        require(tokenId > 0, \"ERROR: Zero amount\");\n        IERC721 token = IERC721(ERC721);\n        token.safeTransferFrom(from, address(this), tokenId);\n        if (isMinterERC721(ERC721)) {\n            // ERC721token\n            IERC721Minter minterToken = IERC721Minter(ERC721);\n            minterToken.burn(tokenId);\n        }\n        emit CrossOutFunds(from, to, tokenId, ERC721);\n        return true;\n    }\n\n    function isCompletedTx(string memory txKey) public view returns (bool) {\n        return completedTxs[txKey] > 0;\n    }\n\n    function ifManager(address _manager) public view returns (bool) {\n        return managers[_manager] == 1;\n    }\n\n    function allManagers() public view returns (address[] memory) {\n        return managerArray;\n    }\n\n    event DepositFunds(address from, uint256 amount);\n    event CrossOutFunds(address from, string to, uint256 amount, address ERC20);\n    event TransferFunds(address to, uint256 amount);\n    event TxWithdrawCompleted(string txKey);\n    event TxManagerChangeCompleted(string txKey);\n    event TxUpgradeCompleted(string txKey);\n}\n",
  "sourcePath": "/Users/terry/go/src/github.com/terry108/multisig/contracts/DynamicMultiSig.sol",
  "compiler": {
    "name": "solc",
    "version": "0.8.0+commit.c7dfd78e.Emscripten.clang"
  },
  "schemaVersion": "3.4.3",
  "updatedAt": "2021-09-09T02:38:47.873Z",
  "devdoc": {
    "kind": "dev",
    "methods": {},
    "version": 1
  },
  "userdoc": {
    "kind": "user",
    "methods": {},
    "version": 1
  }
}