{
  "contractName": "ERC1155Minter",
  "abi": [
    {
      "inputs": [
        {
          "internalType": "string",
          "name": "uri_",
          "type": "string"
        },
        {
          "internalType": "address",
          "name": "minter",
          "type": "address"
        }
      ],
      "stateMutability": "nonpayable",
      "type": "constructor"
    },
    {
      "anonymous": false,
      "inputs": [
        {
          "indexed": true,
          "internalType": "address",
          "name": "account",
          "type": "address"
        },
        {
          "indexed": true,
          "internalType": "address",
          "name": "operator",
          "type": "address"
        },
        {
          "indexed": false,
          "internalType": "bool",
          "name": "approved",
          "type": "bool"
        }
      ],
      "name": "ApprovalForAll",
      "type": "event"
    },
    {
      "anonymous": false,
      "inputs": [
        {
          "indexed": true,
          "internalType": "address",
          "name": "operator",
          "type": "address"
        },
        {
          "indexed": true,
          "internalType": "address",
          "name": "from",
          "type": "address"
        },
        {
          "indexed": true,
          "internalType": "address",
          "name": "to",
          "type": "address"
        },
        {
          "indexed": false,
          "internalType": "uint256[]",
          "name": "ids",
          "type": "uint256[]"
        },
        {
          "indexed": false,
          "internalType": "uint256[]",
          "name": "values",
          "type": "uint256[]"
        }
      ],
      "name": "TransferBatch",
      "type": "event"
    },
    {
      "anonymous": false,
      "inputs": [
        {
          "indexed": true,
          "internalType": "address",
          "name": "operator",
          "type": "address"
        },
        {
          "indexed": true,
          "internalType": "address",
          "name": "from",
          "type": "address"
        },
        {
          "indexed": true,
          "internalType": "address",
          "name": "to",
          "type": "address"
        },
        {
          "indexed": false,
          "internalType": "uint256",
          "name": "id",
          "type": "uint256"
        },
        {
          "indexed": false,
          "internalType": "uint256",
          "name": "value",
          "type": "uint256"
        }
      ],
      "name": "TransferSingle",
      "type": "event"
    },
    {
      "anonymous": false,
      "inputs": [
        {
          "indexed": false,
          "internalType": "string",
          "name": "value",
          "type": "string"
        },
        {
          "indexed": true,
          "internalType": "uint256",
          "name": "id",
          "type": "uint256"
        }
      ],
      "name": "URI",
      "type": "event"
    },
    {
      "inputs": [
        {
          "internalType": "address",
          "name": "account",
          "type": "address"
        },
        {
          "internalType": "uint256",
          "name": "id",
          "type": "uint256"
        }
      ],
      "name": "balanceOf",
      "outputs": [
        {
          "internalType": "uint256",
          "name": "",
          "type": "uint256"
        }
      ],
      "stateMutability": "view",
      "type": "function"
    },
    {
      "inputs": [
        {
          "internalType": "address[]",
          "name": "accounts",
          "type": "address[]"
        },
        {
          "internalType": "uint256[]",
          "name": "ids",
          "type": "uint256[]"
        }
      ],
      "name": "balanceOfBatch",
      "outputs": [
        {
          "internalType": "uint256[]",
          "name": "",
          "type": "uint256[]"
        }
      ],
      "stateMutability": "view",
      "type": "function"
    },
    {
      "inputs": [],
      "name": "current_minter",
      "outputs": [
        {
          "internalType": "address",
          "name": "",
          "type": "address"
        }
      ],
      "stateMutability": "view",
      "type": "function"
    },
    {
      "inputs": [
        {
          "internalType": "address",
          "name": "account",
          "type": "address"
        },
        {
          "internalType": "address",
          "name": "operator",
          "type": "address"
        }
      ],
      "name": "isApprovedForAll",
      "outputs": [
        {
          "internalType": "bool",
          "name": "",
          "type": "bool"
        }
      ],
      "stateMutability": "view",
      "type": "function"
    },
    {
      "inputs": [
        {
          "internalType": "address",
          "name": "from",
          "type": "address"
        },
        {
          "internalType": "address",
          "name": "to",
          "type": "address"
        },
        {
          "internalType": "uint256[]",
          "name": "ids",
          "type": "uint256[]"
        },
        {
          "internalType": "uint256[]",
          "name": "amounts",
          "type": "uint256[]"
        },
        {
          "internalType": "bytes",
          "name": "data",
          "type": "bytes"
        }
      ],
      "name": "safeBatchTransferFrom",
      "outputs": [],
      "stateMutability": "nonpayable",
      "type": "function"
    },
    {
      "inputs": [
        {
          "internalType": "address",
          "name": "from",
          "type": "address"
        },
        {
          "internalType": "address",
          "name": "to",
          "type": "address"
        },
        {
          "internalType": "uint256",
          "name": "id",
          "type": "uint256"
        },
        {
          "internalType": "uint256",
          "name": "amount",
          "type": "uint256"
        },
        {
          "internalType": "bytes",
          "name": "data",
          "type": "bytes"
        }
      ],
      "name": "safeTransferFrom",
      "outputs": [],
      "stateMutability": "nonpayable",
      "type": "function"
    },
    {
      "inputs": [
        {
          "internalType": "address",
          "name": "operator",
          "type": "address"
        },
        {
          "internalType": "bool",
          "name": "approved",
          "type": "bool"
        }
      ],
      "name": "setApprovalForAll",
      "outputs": [],
      "stateMutability": "nonpayable",
      "type": "function"
    },
    {
      "inputs": [
        {
          "internalType": "bytes4",
          "name": "interfaceId",
          "type": "bytes4"
        }
      ],
      "name": "supportsInterface",
      "outputs": [
        {
          "internalType": "bool",
          "name": "",
          "type": "bool"
        }
      ],
      "stateMutability": "view",
      "type": "function"
    },
    {
      "inputs": [
        {
          "internalType": "uint256",
          "name": "",
          "type": "uint256"
        }
      ],
      "name": "uri",
      "outputs": [
        {
          "internalType": "string",
          "name": "",
          "type": "string"
        }
      ],
      "stateMutability": "view",
      "type": "function"
    },
    {
      "inputs": [
        {
          "internalType": "address",
          "name": "account",
          "type": "address"
        },
        {
          "internalType": "uint256",
          "name": "id",
          "type": "uint256"
        },
        {
          "internalType": "uint256",
          "name": "amount",
          "type": "uint256"
        },
        {
          "internalType": "bytes",
          "name": "data",
          "type": "bytes"
        }
      ],
      "name": "mint",
      "outputs": [],
      "stateMutability": "nonpayable",
      "type": "function"
    },
    {
      "inputs": [
        {
          "internalType": "address",
          "name": "to",
          "type": "address"
        },
        {
          "internalType": "uint256[]",
          "name": "ids",
          "type": "uint256[]"
        },
        {
          "internalType": "uint256[]",
          "name": "amounts",
          "type": "uint256[]"
        },
        {
          "internalType": "bytes",
          "name": "data",
          "type": "bytes"
        }
      ],
      "name": "mintBatch",
      "outputs": [],
      "stateMutability": "nonpayable",
      "type": "function"
    },
    {
      "inputs": [
        {
          "internalType": "address",
          "name": "account",
          "type": "address"
        },
        {
          "internalType": "uint256",
          "name": "id",
          "type": "uint256"
        },
        {
          "internalType": "uint256",
          "name": "value",
          "type": "uint256"
        }
      ],
      "name": "burn",
      "outputs": [],
      "stateMutability": "nonpayable",
      "type": "function"
    },
    {
      "inputs": [
        {
          "internalType": "address",
          "name": "account",
          "type": "address"
        },
        {
          "internalType": "uint256[]",
          "name": "ids",
          "type": "uint256[]"
        },
        {
          "internalType": "uint256[]",
          "name": "values",
          "type": "uint256[]"
        }
      ],
      "name": "burnBatch",
      "outputs": [],
      "stateMutability": "nonpayable",
      "type": "function"
    },
    {
      "inputs": [
        {
          "internalType": "address",
          "name": "newMinter",
          "type": "address"
        }
      ],
      "name": "replaceMinter",
      "outputs": [],
      "stateMutability": "nonpayable",
      "type": "function"
    }
  ],
  "bytecode": "0x60806040526000600360006101000a81548173ffffffffffffffffffffffffffffffffffffffff021916908373ffffffffffffffffffffffffffffffffffffffff1602179055503480156200005357600080fd5b5060405162003d3638038062003d368339818101604052810190620000799190620002a6565b81620000948162000151640100000000026401000000009004565b50600073ffffffffffffffffffffffffffffffffffffffff168173ffffffffffffffffffffffffffffffffffffffff16141562000108576040517f08c379a0000000000000000000000000000000000000000000000000000000008152600401620000ff9062000342565b60405180910390fd5b80600360006101000a81548173ffffffffffffffffffffffffffffffffffffffff021916908373ffffffffffffffffffffffffffffffffffffffff1602179055505050620004f4565b8060029080519060200190620001699291906200016d565b5050565b8280546200017b9062000446565b90600052602060002090601f0160209004810192826200019f5760008555620001eb565b82601f10620001ba57805160ff1916838001178555620001eb565b82800160010185558215620001eb579182015b82811115620001ea578251825591602001919060010190620001cd565b5b509050620001fa9190620001fe565b5090565b5b8082111562000219576000816000905550600101620001ff565b5090565b6000620002346200022e8462000398565b62000364565b9050828152602081018484840111156200024d57600080fd5b6200025a84828562000410565b509392505050565b6000815190506200027381620004da565b92915050565b600082601f8301126200028b57600080fd5b81516200029d8482602086016200021d565b91505092915050565b60008060408385031215620002ba57600080fd5b600083015167ffffffffffffffff811115620002d557600080fd5b620002e38582860162000279565b9250506020620002f68582860162000262565b9150509250929050565b60006200030f601383620003cb565b91507f4552524f523a205a65726f2061646472657373000000000000000000000000006000830152602082019050919050565b600060208201905081810360008301526200035d8162000300565b9050919050565b6000604051905081810181811067ffffffffffffffff821117156200038e576200038d620004ab565b5b8060405250919050565b600067ffffffffffffffff821115620003b657620003b5620004ab565b5b601f19601f8301169050602081019050919050565b600082825260208201905092915050565b6000620003e982620003f0565b9050919050565b600073ffffffffffffffffffffffffffffffffffffffff82169050919050565b60005b838110156200043057808201518184015260208101905062000413565b8381111562000440576000848401525b50505050565b600060028204905060018216806200045f57607f821691505b602082108114156200047657620004756200047c565b5b50919050565b7f4e487b7100000000000000000000000000000000000000000000000000000000600052602260045260246000fd5b7f4e487b7100000000000000000000000000000000000000000000000000000000600052604160045260246000fd5b620004e581620003dc565b8114620004f157600080fd5b50565b61383280620005046000396000f3fe608060405234801561001057600080fd5b5060043610610106576000357c0100000000000000000000000000000000000000000000000000000000900480634e1273f4116100a9578063a22cb46511610083578063a22cb46514610275578063e985e9c514610291578063f242432a146102c1578063f5298aca146102dd57610106565b80634e1273f41461020d5780636b20c4541461023d578063731133e91461025957610106565b80630e89341c116100e55780630e89341c146101875780631f7fdffa146101b75780632e5ed955146101d35780632eb2c2d6146101f157610106565b8062fdd58e1461010b57806301ffc9a71461013b57806307f1af441461016b575b600080fd5b61012560048036038101906101209190612756565b6102f9565b604051610132919061332e565b60405180910390f35b610155600480360381019061015091906128c8565b6103c2565b6040516101629190613131565b60405180910390f35b6101856004803603810190610180919061243d565b6104a4565b005b6101a1600480360381019061019c919061291a565b61057f565b6040516101ae919061314c565b60405180910390f35b6101d160048036038101906101cc919061266f565b610613565b005b6101db6106bc565b6040516101e89190612ffb565b60405180910390f35b61020b600480360381019061020691906124a2565b6106e2565b005b6102276004803603810190610222919061285c565b610783565b60405161023491906130d8565b60405180910390f35b610257600480360381019061025291906125f0565b610934565b005b610273600480360381019061026e91906127e1565b6109db565b005b61028f600480360381019061028a919061271a565b610a84565b005b6102ab60048036038101906102a69190612466565b610c05565b6040516102b89190613131565b60405180910390f35b6102db60048036038101906102d69190612561565b610c99565b005b6102f760048036038101906102f29190612792565b610d3a565b005b60008073ffffffffffffffffffffffffffffffffffffffff168373ffffffffffffffffffffffffffffffffffffffff16141561036a576040517f08c379a0000000000000000000000000000000000000000000000000000000008152600401610361906131ae565b60405180910390fd5b60008083815260200190815260200160002060008473ffffffffffffffffffffffffffffffffffffffff1673ffffffffffffffffffffffffffffffffffffffff16815260200190815260200160002054905092915050565b60007fd9b67a26000000000000000000000000000000000000000000000000000000007bffffffffffffffffffffffffffffffffffffffffffffffffffffffff1916827bffffffffffffffffffffffffffffffffffffffffffffffffffffffff1916148061048d57507f0e89341c000000000000000000000000000000000000000000000000000000007bffffffffffffffffffffffffffffffffffffffffffffffffffffffff1916827bffffffffffffffffffffffffffffffffffffffffffffffffffffffff1916145b8061049d575061049c82610de1565b5b9050919050565b6104ac610e4b565b73ffffffffffffffffffffffffffffffffffffffff16600360009054906101000a900473ffffffffffffffffffffffffffffffffffffffff1673ffffffffffffffffffffffffffffffffffffffff161461053b576040517f08c379a00000000000000000000000000000000000000000000000000000000081526004016105329061328e565b60405180910390fd5b80600360006101000a81548173ffffffffffffffffffffffffffffffffffffffff021916908373ffffffffffffffffffffffffffffffffffffffff16021790555050565b60606002805461058e906135a8565b80601f01602080910402602001604051908101604052809291908181526020018280546105ba906135a8565b80156106075780601f106105dc57610100808354040283529160200191610607565b820191906000526020600020905b8154815290600101906020018083116105ea57829003601f168201915b50505050509050919050565b61061b610e4b565b73ffffffffffffffffffffffffffffffffffffffff16600360009054906101000a900473ffffffffffffffffffffffffffffffffffffffff1673ffffffffffffffffffffffffffffffffffffffff16146106aa576040517f08c379a00000000000000000000000000000000000000000000000000000000081526004016106a19061328e565b60405180910390fd5b6106b684848484610e53565b50505050565b600360009054906101000a900473ffffffffffffffffffffffffffffffffffffffff1681565b6106ea610e4b565b73ffffffffffffffffffffffffffffffffffffffff168573ffffffffffffffffffffffffffffffffffffffff161480610730575061072f8561072a610e4b565b610c05565b5b61076f576040517f08c379a00000000000000000000000000000000000000000000000000000000081526004016107669061322e565b60405180910390fd5b61077c85858585856110bd565b5050505050565b606081518351146107c9576040517f08c379a00000000000000000000000000000000000000000000000000000000081526004016107c0906132ce565b60405180910390fd5b6000835167ffffffffffffffff81111561080c577f4e487b7100000000000000000000000000000000000000000000000000000000600052604160045260246000fd5b60405190808252806020026020018201604052801561083a5781602001602082028036833780820191505090505b50905060005b8451811015610929576108d3858281518110610885577f4e487b7100000000000000000000000000000000000000000000000000000000600052603260045260246000fd5b60200260200101518583815181106108c6577f4e487b7100000000000000000000000000000000000000000000000000000000600052603260045260246000fd5b60200260200101516102f9565b82828151811061090c577f4e487b7100000000000000000000000000000000000000000000000000000000600052603260045260246000fd5b60200260200101818152505080610922906135da565b9050610840565b508091505092915050565b61093c610e4b565b73ffffffffffffffffffffffffffffffffffffffff16600360009054906101000a900473ffffffffffffffffffffffffffffffffffffffff1673ffffffffffffffffffffffffffffffffffffffff16146109cb576040517f08c379a00000000000000000000000000000000000000000000000000000000081526004016109c29061328e565b60405180910390fd5b6109d683838361141d565b505050565b6109e3610e4b565b73ffffffffffffffffffffffffffffffffffffffff16600360009054906101000a900473ffffffffffffffffffffffffffffffffffffffff1673ffffffffffffffffffffffffffffffffffffffff1614610a72576040517f08c379a0000000000000000000000000000000000000000000000000000000008152600401610a699061328e565b60405180910390fd5b610a7e8484848461171a565b50505050565b8173ffffffffffffffffffffffffffffffffffffffff16610aa3610e4b565b73ffffffffffffffffffffffffffffffffffffffff161415610afa576040517f08c379a0000000000000000000000000000000000000000000000000000000008152600401610af1906132ae565b60405180910390fd5b8060016000610b07610e4b565b73ffffffffffffffffffffffffffffffffffffffff1673ffffffffffffffffffffffffffffffffffffffff16815260200190815260200160002060008473ffffffffffffffffffffffffffffffffffffffff1673ffffffffffffffffffffffffffffffffffffffff16815260200190815260200160002060006101000a81548160ff0219169083151502179055508173ffffffffffffffffffffffffffffffffffffffff16610bb4610e4b565b73ffffffffffffffffffffffffffffffffffffffff167f17307eab39ab6107e8899845ad3d59bd9653f200f220920489ca2b5937696c3183604051610bf99190613131565b60405180910390a35050565b6000600160008473ffffffffffffffffffffffffffffffffffffffff1673ffffffffffffffffffffffffffffffffffffffff16815260200190815260200160002060008373ffffffffffffffffffffffffffffffffffffffff1673ffffffffffffffffffffffffffffffffffffffff16815260200190815260200160002060009054906101000a900460ff16905092915050565b610ca1610e4b565b73ffffffffffffffffffffffffffffffffffffffff168573ffffffffffffffffffffffffffffffffffffffff161480610ce75750610ce685610ce1610e4b565b610c05565b5b610d26576040517f08c379a0000000000000000000000000000000000000000000000000000000008152600401610d1d906131ee565b60405180910390fd5b610d3385858585856118b0565b5050505050565b610d42610e4b565b73ffffffffffffffffffffffffffffffffffffffff16600360009054906101000a900473ffffffffffffffffffffffffffffffffffffffff1673ffffffffffffffffffffffffffffffffffffffff1614610dd1576040517f08c379a0000000000000000000000000000000000000000000000000000000008152600401610dc89061328e565b60405180910390fd5b610ddc838383611b32565b505050565b60007f01ffc9a7000000000000000000000000000000000000000000000000000000007bffffffffffffffffffffffffffffffffffffffffffffffffffffffff1916827bffffffffffffffffffffffffffffffffffffffffffffffffffffffff1916149050919050565b600033905090565b600073ffffffffffffffffffffffffffffffffffffffff168473ffffffffffffffffffffffffffffffffffffffff161415610ec3576040517f08c379a0000000000000000000000000000000000000000000000000000000008152600401610eba9061330e565b60405180910390fd5b8151835114610f07576040517f08c379a0000000000000000000000000000000000000000000000000000000008152600401610efe906132ee565b60405180910390fd5b6000610f11610e4b565b9050610f2281600087878787611d4f565b60005b845181101561102757838181518110610f67577f4e487b7100000000000000000000000000000000000000000000000000000000600052603260045260246000fd5b6020026020010151600080878481518110610fab577f4e487b7100000000000000000000000000000000000000000000000000000000600052603260045260246000fd5b6020026020010151815260200190815260200160002060008873ffffffffffffffffffffffffffffffffffffffff1673ffffffffffffffffffffffffffffffffffffffff168152602001908152602001600020600082825461100d919061349c565b92505081905550808061101f906135da565b915050610f25565b508473ffffffffffffffffffffffffffffffffffffffff16600073ffffffffffffffffffffffffffffffffffffffff168273ffffffffffffffffffffffffffffffffffffffff167f4a39dc06d4c0dbc64b70af90fd698a233a518aa5d07e595d983b8c0526c8f7fb878760405161109f9291906130fa565b60405180910390a46110b681600087878787611d57565b5050505050565b8151835114611101576040517f08c379a00000000000000000000000000000000000000000000000000000000081526004016110f8906132ee565b60405180910390fd5b600073ffffffffffffffffffffffffffffffffffffffff168473ffffffffffffffffffffffffffffffffffffffff161415611171576040517f08c379a00000000000000000000000000000000000000000000000000000000081526004016111689061320e565b60405180910390fd5b600061117b610e4b565b905061118b818787878787611d4f565b60005b84518110156113885760008582815181106111d2577f4e487b7100000000000000000000000000000000000000000000000000000000600052603260045260246000fd5b602002602001015190506000858381518110611217577f4e487b7100000000000000000000000000000000000000000000000000000000600052603260045260246000fd5b60200260200101519050600080600084815260200190815260200160002060008b73ffffffffffffffffffffffffffffffffffffffff1673ffffffffffffffffffffffffffffffffffffffff168152602001908152602001600020549050818110156112b8576040517f08c379a00000000000000000000000000000000000000000000000000000000081526004016112af9061326e565b60405180910390fd5b81810360008085815260200190815260200160002060008c73ffffffffffffffffffffffffffffffffffffffff1673ffffffffffffffffffffffffffffffffffffffff168152602001908152602001600020819055508160008085815260200190815260200160002060008b73ffffffffffffffffffffffffffffffffffffffff1673ffffffffffffffffffffffffffffffffffffffff168152602001908152602001600020600082825461136d919061349c565b9250508190555050505080611381906135da565b905061118e565b508473ffffffffffffffffffffffffffffffffffffffff168673ffffffffffffffffffffffffffffffffffffffff168273ffffffffffffffffffffffffffffffffffffffff167f4a39dc06d4c0dbc64b70af90fd698a233a518aa5d07e595d983b8c0526c8f7fb87876040516113ff9291906130fa565b60405180910390a4611415818787878787611d57565b505050505050565b600073ffffffffffffffffffffffffffffffffffffffff168373ffffffffffffffffffffffffffffffffffffffff16141561148d576040517f08c379a00000000000000000000000000000000000000000000000000000000081526004016114849061324e565b60405180910390fd5b80518251146114d1576040517f08c379a00000000000000000000000000000000000000000000000000000000081526004016114c8906132ee565b60405180910390fd5b60006114db610e4b565b90506114fb81856000868660405180602001604052806000815250611d4f565b60005b8351811015611694576000848281518110611542577f4e487b7100000000000000000000000000000000000000000000000000000000600052603260045260246000fd5b602002602001015190506000848381518110611587577f4e487b7100000000000000000000000000000000000000000000000000000000600052603260045260246000fd5b60200260200101519050600080600084815260200190815260200160002060008973ffffffffffffffffffffffffffffffffffffffff1673ffffffffffffffffffffffffffffffffffffffff16815260200190815260200160002054905081811015611628576040517f08c379a000000000000000000000000000000000000000000000000000000000815260040161161f906131ce565b60405180910390fd5b81810360008085815260200190815260200160002060008a73ffffffffffffffffffffffffffffffffffffffff1673ffffffffffffffffffffffffffffffffffffffff16815260200190815260200160002081905550505050808061168c906135da565b9150506114fe565b50600073ffffffffffffffffffffffffffffffffffffffff168473ffffffffffffffffffffffffffffffffffffffff168273ffffffffffffffffffffffffffffffffffffffff167f4a39dc06d4c0dbc64b70af90fd698a233a518aa5d07e595d983b8c0526c8f7fb868660405161170c9291906130fa565b60405180910390a450505050565b600073ffffffffffffffffffffffffffffffffffffffff168473ffffffffffffffffffffffffffffffffffffffff16141561178a576040517f08c379a00000000000000000000000000000000000000000000000000000000081526004016117819061330e565b60405180910390fd5b6000611794610e4b565b90506117b5816000876117a688611f5f565b6117af88611f5f565b87611d4f565b8260008086815260200190815260200160002060008773ffffffffffffffffffffffffffffffffffffffff1673ffffffffffffffffffffffffffffffffffffffff1681526020019081526020016000206000828254611814919061349c565b925050819055508473ffffffffffffffffffffffffffffffffffffffff16600073ffffffffffffffffffffffffffffffffffffffff168273ffffffffffffffffffffffffffffffffffffffff167fc3d58168c5ae7397731d063d5bbf3d657854427343f4c083240f7aacaa2d0f628787604051611892929190613349565b60405180910390a46118a981600087878787612025565b5050505050565b600073ffffffffffffffffffffffffffffffffffffffff168473ffffffffffffffffffffffffffffffffffffffff161415611920576040517f08c379a00000000000000000000000000000000000000000000000000000000081526004016119179061320e565b60405180910390fd5b600061192a610e4b565b905061194a81878761193b88611f5f565b61194488611f5f565b87611d4f565b600080600086815260200190815260200160002060008873ffffffffffffffffffffffffffffffffffffffff1673ffffffffffffffffffffffffffffffffffffffff168152602001908152602001600020549050838110156119e1576040517f08c379a00000000000000000000000000000000000000000000000000000000081526004016119d89061326e565b60405180910390fd5b83810360008087815260200190815260200160002060008973ffffffffffffffffffffffffffffffffffffffff1673ffffffffffffffffffffffffffffffffffffffff168152602001908152602001600020819055508360008087815260200190815260200160002060008873ffffffffffffffffffffffffffffffffffffffff1673ffffffffffffffffffffffffffffffffffffffff1681526020019081526020016000206000828254611a96919061349c565b925050819055508573ffffffffffffffffffffffffffffffffffffffff168773ffffffffffffffffffffffffffffffffffffffff168373ffffffffffffffffffffffffffffffffffffffff167fc3d58168c5ae7397731d063d5bbf3d657854427343f4c083240f7aacaa2d0f628888604051611b13929190613349565b60405180910390a4611b29828888888888612025565b50505050505050565b600073ffffffffffffffffffffffffffffffffffffffff168373ffffffffffffffffffffffffffffffffffffffff161415611ba2576040517f08c379a0000000000000000000000000000000000000000000000000000000008152600401611b999061324e565b60405180910390fd5b6000611bac610e4b565b9050611bdc81856000611bbe87611f5f565b611bc787611f5f565b60405180602001604052806000815250611d4f565b600080600085815260200190815260200160002060008673ffffffffffffffffffffffffffffffffffffffff1673ffffffffffffffffffffffffffffffffffffffff16815260200190815260200160002054905082811015611c73576040517f08c379a0000000000000000000000000000000000000000000000000000000008152600401611c6a906131ce565b60405180910390fd5b82810360008086815260200190815260200160002060008773ffffffffffffffffffffffffffffffffffffffff1673ffffffffffffffffffffffffffffffffffffffff16815260200190815260200160002081905550600073ffffffffffffffffffffffffffffffffffffffff168573ffffffffffffffffffffffffffffffffffffffff168373ffffffffffffffffffffffffffffffffffffffff167fc3d58168c5ae7397731d063d5bbf3d657854427343f4c083240f7aacaa2d0f628787604051611d40929190613349565b60405180910390a45050505050565b505050505050565b611d768473ffffffffffffffffffffffffffffffffffffffff1661222d565b15611f57578373ffffffffffffffffffffffffffffffffffffffff1663bc197c8187878686866040518663ffffffff167c0100000000000000000000000000000000000000000000000000000000028152600401611dd8959493929190613016565b602060405180830381600087803b158015611df257600080fd5b505af1925050508015611e2357506040513d601f19601f82011682018060405250810190611e2091906128f1565b60015b611eb257611e2f6136ea565b80611e3a5750611e77565b806040517f08c379a0000000000000000000000000000000000000000000000000000000008152600401611e6e919061314c565b60405180910390fd5b6040517f08c379a0000000000000000000000000000000000000000000000000000000008152600401611ea99061316e565b60405180910390fd5b63bc197c817c0100000000000000000000000000000000000000000000000000000000027bffffffffffffffffffffffffffffffffffffffffffffffffffffffff1916817bffffffffffffffffffffffffffffffffffffffffffffffffffffffff191614611f55576040517f08c379a0000000000000000000000000000000000000000000000000000000008152600401611f4c9061318e565b60405180910390fd5b505b505050505050565b60606000600167ffffffffffffffff811115611fa4577f4e487b7100000000000000000000000000000000000000000000000000000000600052604160045260246000fd5b604051908082528060200260200182016040528015611fd25781602001602082028036833780820191505090505b5090508281600081518110612010577f4e487b7100000000000000000000000000000000000000000000000000000000600052603260045260246000fd5b60200260200101818152505080915050919050565b6120448473ffffffffffffffffffffffffffffffffffffffff1661222d565b15612225578373ffffffffffffffffffffffffffffffffffffffff1663f23a6e6187878686866040518663ffffffff167c01000000000000000000000000000000000000000000000000000000000281526004016120a695949392919061307e565b602060405180830381600087803b1580156120c057600080fd5b505af19250505080156120f157506040513d601f19601f820116820180604052508101906120ee91906128f1565b60015b612180576120fd6136ea565b806121085750612145565b806040517f08c379a000000000000000000000000000000000000000000000000000000000815260040161213c919061314c565b60405180910390fd5b6040517f08c379a00000000000000000000000000000000000000000000000000000000081526004016121779061316e565b60405180910390fd5b63f23a6e617c0100000000000000000000000000000000000000000000000000000000027bffffffffffffffffffffffffffffffffffffffffffffffffffffffff1916817bffffffffffffffffffffffffffffffffffffffffffffffffffffffff191614612223576040517f08c379a000000000000000000000000000000000000000000000000000000000815260040161221a9061318e565b60405180910390fd5b505b505050505050565b600080823b905060008111915050919050565b600061225361224e846133a3565b613372565b9050808382526020820190508285602086028201111561227257600080fd5b60005b858110156122a257816122888882612356565b845260208401935060208301925050600181019050612275565b5050509392505050565b60006122bf6122ba846133cf565b613372565b905080838252602082019050828560208602820111156122de57600080fd5b60005b8581101561230e57816122f48882612428565b8452602084019350602083019250506001810190506122e1565b5050509392505050565b600061232b612326846133fb565b613372565b90508281526020810184848401111561234357600080fd5b61234e848285613566565b509392505050565b600081359050612365816137a0565b92915050565b600082601f83011261237c57600080fd5b813561238c848260208601612240565b91505092915050565b600082601f8301126123a657600080fd5b81356123b68482602086016122ac565b91505092915050565b6000813590506123ce816137b7565b92915050565b6000813590506123e3816137ce565b92915050565b6000815190506123f8816137ce565b92915050565b600082601f83011261240f57600080fd5b813561241f848260208601612318565b91505092915050565b600081359050612437816137e5565b92915050565b60006020828403121561244f57600080fd5b600061245d84828501612356565b91505092915050565b6000806040838503121561247957600080fd5b600061248785828601612356565b925050602061249885828601612356565b9150509250929050565b600080600080600060a086880312156124ba57600080fd5b60006124c888828901612356565b95505060206124d988828901612356565b945050604086013567ffffffffffffffff8111156124f657600080fd5b61250288828901612395565b935050606086013567ffffffffffffffff81111561251f57600080fd5b61252b88828901612395565b925050608086013567ffffffffffffffff81111561254857600080fd5b612554888289016123fe565b9150509295509295909350565b600080600080600060a0868803121561257957600080fd5b600061258788828901612356565b955050602061259888828901612356565b94505060406125a988828901612428565b93505060606125ba88828901612428565b925050608086013567ffffffffffffffff8111156125d757600080fd5b6125e3888289016123fe565b9150509295509295909350565b60008060006060848603121561260557600080fd5b600061261386828701612356565b935050602084013567ffffffffffffffff81111561263057600080fd5b61263c86828701612395565b925050604084013567ffffffffffffffff81111561265957600080fd5b61266586828701612395565b9150509250925092565b6000806000806080858703121561268557600080fd5b600061269387828801612356565b945050602085013567ffffffffffffffff8111156126b057600080fd5b6126bc87828801612395565b935050604085013567ffffffffffffffff8111156126d957600080fd5b6126e587828801612395565b925050606085013567ffffffffffffffff81111561270257600080fd5b61270e878288016123fe565b91505092959194509250565b6000806040838503121561272d57600080fd5b600061273b85828601612356565b925050602061274c858286016123bf565b9150509250929050565b6000806040838503121561276957600080fd5b600061277785828601612356565b925050602061278885828601612428565b9150509250929050565b6000806000606084860312156127a757600080fd5b60006127b586828701612356565b93505060206127c686828701612428565b92505060406127d786828701612428565b9150509250925092565b600080600080608085870312156127f757600080fd5b600061280587828801612356565b945050602061281687828801612428565b935050604061282787828801612428565b925050606085013567ffffffffffffffff81111561284457600080fd5b612850878288016123fe565b91505092959194509250565b6000806040838503121561286f57600080fd5b600083013567ffffffffffffffff81111561288957600080fd5b6128958582860161236b565b925050602083013567ffffffffffffffff8111156128b257600080fd5b6128be85828601612395565b9150509250929050565b6000602082840312156128da57600080fd5b60006128e8848285016123d4565b91505092915050565b60006020828403121561290357600080fd5b6000612911848285016123e9565b91505092915050565b60006020828403121561292c57600080fd5b600061293a84828501612428565b91505092915050565b600061294f8383612fdd565b60208301905092915050565b612964816134f2565b82525050565b60006129758261343b565b61297f8185613469565b935061298a8361342b565b8060005b838110156129bb5781516129a28882612943565b97506129ad8361345c565b92505060018101905061298e565b5085935050505092915050565b6129d181613504565b82525050565b60006129e282613446565b6129ec818561347a565b93506129fc818560208601613575565b612a05816136b0565b840191505092915050565b6000612a1b82613451565b612a25818561348b565b9350612a35818560208601613575565b612a3e816136b0565b840191505092915050565b6000612a5660348361348b565b91507f455243313135353a207472616e7366657220746f206e6f6e204552433131353560008301527f526563656976657220696d706c656d656e7465720000000000000000000000006020830152604082019050919050565b6000612abc60288361348b565b91507f455243313135353a204552433131353552656365697665722072656a6563746560008301527f6420746f6b656e730000000000000000000000000000000000000000000000006020830152604082019050919050565b6000612b22602b8361348b565b91507f455243313135353a2062616c616e636520717565727920666f7220746865207a60008301527f65726f20616464726573730000000000000000000000000000000000000000006020830152604082019050919050565b6000612b8860248361348b565b91507f455243313135353a206275726e20616d6f756e7420657863656564732062616c60008301527f616e6365000000000000000000000000000000000000000000000000000000006020830152604082019050919050565b6000612bee60298361348b565b91507f455243313135353a2063616c6c6572206973206e6f74206f776e6572206e6f7260008301527f20617070726f76656400000000000000000000000000000000000000000000006020830152604082019050919050565b6000612c5460258361348b565b91507f455243313135353a207472616e7366657220746f20746865207a65726f20616460008301527f64726573730000000000000000000000000000000000000000000000000000006020830152604082019050919050565b6000612cba60328361348b565b91507f455243313135353a207472616e736665722063616c6c6572206973206e6f742060008301527f6f776e6572206e6f7220617070726f76656400000000000000000000000000006020830152604082019050919050565b6000612d2060238361348b565b91507f455243313135353a206275726e2066726f6d20746865207a65726f206164647260008301527f65737300000000000000000000000000000000000000000000000000000000006020830152604082019050919050565b6000612d86602a8361348b565b91507f455243313135353a20696e73756666696369656e742062616c616e636520666f60008301527f72207472616e73666572000000000000000000000000000000000000000000006020830152604082019050919050565b6000612dec60248361348b565b91507f6f6e6c794d696e7465723a2063616c6c6572206973206e6f7420746865206d6960008301527f6e746572000000000000000000000000000000000000000000000000000000006020830152604082019050919050565b6000612e5260298361348b565b91507f455243313135353a2073657474696e6720617070726f76616c2073746174757360008301527f20666f722073656c6600000000000000000000000000000000000000000000006020830152604082019050919050565b6000612eb860298361348b565b91507f455243313135353a206163636f756e747320616e6420696473206c656e67746860008301527f206d69736d6174636800000000000000000000000000000000000000000000006020830152604082019050919050565b6000612f1e60288361348b565b91507f455243313135353a2069647320616e6420616d6f756e7473206c656e6774682060008301527f6d69736d617463680000000000000000000000000000000000000000000000006020830152604082019050919050565b6000612f8460218361348b565b91507f455243313135353a206d696e7420746f20746865207a65726f2061646472657360008301527f73000000000000000000000000000000000000000000000000000000000000006020830152604082019050919050565b612fe68161355c565b82525050565b612ff58161355c565b82525050565b6000602082019050613010600083018461295b565b92915050565b600060a08201905061302b600083018861295b565b613038602083018761295b565b818103604083015261304a818661296a565b9050818103606083015261305e818561296a565b9050818103608083015261307281846129d7565b90509695505050505050565b600060a082019050613093600083018861295b565b6130a0602083018761295b565b6130ad6040830186612fec565b6130ba6060830185612fec565b81810360808301526130cc81846129d7565b90509695505050505050565b600060208201905081810360008301526130f2818461296a565b905092915050565b60006040820190508181036000830152613114818561296a565b90508181036020830152613128818461296a565b90509392505050565b600060208201905061314660008301846129c8565b92915050565b600060208201905081810360008301526131668184612a10565b905092915050565b6000602082019050818103600083015261318781612a49565b9050919050565b600060208201905081810360008301526131a781612aaf565b9050919050565b600060208201905081810360008301526131c781612b15565b9050919050565b600060208201905081810360008301526131e781612b7b565b9050919050565b6000602082019050818103600083015261320781612be1565b9050919050565b6000602082019050818103600083015261322781612c47565b9050919050565b6000602082019050818103600083015261324781612cad565b9050919050565b6000602082019050818103600083015261326781612d13565b9050919050565b6000602082019050818103600083015261328781612d79565b9050919050565b600060208201905081810360008301526132a781612ddf565b9050919050565b600060208201905081810360008301526132c781612e45565b9050919050565b600060208201905081810360008301526132e781612eab565b9050919050565b6000602082019050818103600083015261330781612f11565b9050919050565b6000602082019050818103600083015261332781612f77565b9050919050565b60006020820190506133436000830184612fec565b92915050565b600060408201905061335e6000830185612fec565b61336b6020830184612fec565b9392505050565b6000604051905081810181811067ffffffffffffffff8211171561339957613398613681565b5b8060405250919050565b600067ffffffffffffffff8211156133be576133bd613681565b5b602082029050602081019050919050565b600067ffffffffffffffff8211156133ea576133e9613681565b5b602082029050602081019050919050565b600067ffffffffffffffff82111561341657613415613681565b5b601f19601f8301169050602081019050919050565b6000819050602082019050919050565b600081519050919050565b600081519050919050565b600081519050919050565b6000602082019050919050565b600082825260208201905092915050565b600082825260208201905092915050565b600082825260208201905092915050565b60006134a78261355c565b91506134b28361355c565b9250827fffffffffffffffffffffffffffffffffffffffffffffffffffffffffffffffff038211156134e7576134e6613623565b5b828201905092915050565b60006134fd8261353c565b9050919050565b60008115159050919050565b60007fffffffff0000000000000000000000000000000000000000000000000000000082169050919050565b600073ffffffffffffffffffffffffffffffffffffffff82169050919050565b6000819050919050565b82818337600083830152505050565b60005b83811015613593578082015181840152602081019050613578565b838111156135a2576000848401525b50505050565b600060028204905060018216806135c057607f821691505b602082108114156135d4576135d3613652565b5b50919050565b60006135e58261355c565b91507fffffffffffffffffffffffffffffffffffffffffffffffffffffffffffffffff82141561361857613617613623565b5b600182019050919050565b7f4e487b7100000000000000000000000000000000000000000000000000000000600052601160045260246000fd5b7f4e487b7100000000000000000000000000000000000000000000000000000000600052602260045260246000fd5b7f4e487b7100000000000000000000000000000000000000000000000000000000600052604160045260246000fd5b6000601f19601f8301169050919050565b60007c010000000000000000000000000000000000000000000000000000000082049050919050565b600060443d10156136fa5761379d565b60046000803e61370b6000516136c1565b6308c379a0811461371c575061379d565b60405160043d036004823e80513d602482011167ffffffffffffffff821117156137485750505061379d565b808201805167ffffffffffffffff81111561376757505050505061379d565b8060208301013d85018111156137825750505050505061379d565b61378b826136b0565b60208401016040528296505050505050505b90565b6137a9816134f2565b81146137b457600080fd5b50565b6137c081613504565b81146137cb57600080fd5b50565b6137d781613510565b81146137e257600080fd5b50565b6137ee8161355c565b81146137f957600080fd5b5056fea2646970667358221220d2416e40e1d53f7ba3e4670956e1d7ba775446c59113d6ae54452d83773997ff64736f6c63430008000033",
  "immutableReferences": {},
  "source": "// SPDX-License-Identifier: MIT\n\npragma solidity ^0.8.0;\n\nimport \"@openzeppelin/contracts/token/ERC1155/ERC1155.sol\";\n\ncontract ERC1155Minter is ERC1155 {\n    address public current_minter = address(0);\n\n    modifier onlyMinter() {\n        require(\n            current_minter == _msgSender(),\n            \"onlyMinter: caller is not the minter\"\n        );\n        _;\n    }\n\n    constructor(string memory uri_, address minter) ERC1155(uri_) {\n        require(minter != address(0), \"ERROR: Zero address\");\n        current_minter = minter;\n    }\n\n    function mint(\n        address account,\n        uint256 id,\n        uint256 amount,\n        bytes memory data\n    ) external onlyMinter {\n       _mint(account, id, amount, data);\n    }\n\n     function mintBatch(\n        address to,\n        uint256[] memory ids,\n        uint256[] memory amounts,\n        bytes memory data\n    ) external onlyMinter {\n        _mintBatch(to, ids, amounts, data);\n    }\n\n    function burn(\n        address account,\n        uint256 id,\n        uint256 value\n    ) external onlyMinter {\n        _burn(account, id, value);\n    }\n\n    function burnBatch(\n        address account,\n        uint256[] memory ids,\n        uint256[] memory values\n    ) external onlyMinter {\n        _burnBatch(account, ids, values);\n    }\n\n    function replaceMinter(address newMinter) external onlyMinter {\n        current_minter = newMinter;\n    }\n\n}\n",
  "sourcePath": "/Users/terry/go/src/github.com/terry108/multisig/contracts/ERC1155Minter.sol",
  "compiler": {
    "name": "solc",
    "version": "0.8.0+commit.c7dfd78e.Emscripten.clang"
  },
  "schemaVersion": "3.4.3",
  "updatedAt": "2021-09-16T08:08:16.147Z",
  "devdoc": {
    "kind": "dev",
    "methods": {
      "balanceOf(address,uint256)": {
        "details": "See {IERC1155-balanceOf}. Requirements: - `account` cannot be the zero address."
      },
      "balanceOfBatch(address[],uint256[])": {
        "details": "See {IERC1155-balanceOfBatch}. Requirements: - `accounts` and `ids` must have the same length."
      },
      "isApprovedForAll(address,address)": {
        "details": "See {IERC1155-isApprovedForAll}."
      },
      "safeBatchTransferFrom(address,address,uint256[],uint256[],bytes)": {
        "details": "See {IERC1155-safeBatchTransferFrom}."
      },
      "safeTransferFrom(address,address,uint256,uint256,bytes)": {
        "details": "See {IERC1155-safeTransferFrom}."
      },
      "setApprovalForAll(address,bool)": {
        "details": "See {IERC1155-setApprovalForAll}."
      },
      "supportsInterface(bytes4)": {
        "details": "See {IERC165-supportsInterface}."
      },
      "uri(uint256)": {
        "details": "See {IERC1155MetadataURI-uri}. This implementation returns the same URI for *all* token types. It relies on the token type ID substitution mechanism https://eips.ethereum.org/EIPS/eip-1155#metadata[defined in the EIP]. Clients calling this function must replace the `\\{id\\}` substring with the actual token type ID."
      }
    },
    "version": 1
  },
  "userdoc": {
    "kind": "user",
    "methods": {},
    "version": 1
  }
}