{
  "contractName": "ERC20Minter",
  "abi": [
    {
      "inputs": [
        {
          "internalType": "string",
          "name": "name",
          "type": "string"
        },
        {
          "internalType": "string",
          "name": "symbol",
          "type": "string"
        },
        {
          "internalType": "address",
          "name": "minter",
          "type": "address"
        }
      ],
      "stateMutability": "nonpayable",
      "type": "constructor"
    },
    {
      "anonymous": false,
      "inputs": [
        {
          "indexed": true,
          "internalType": "address",
          "name": "owner",
          "type": "address"
        },
        {
          "indexed": true,
          "internalType": "address",
          "name": "spender",
          "type": "address"
        },
        {
          "indexed": false,
          "internalType": "uint256",
          "name": "value",
          "type": "uint256"
        }
      ],
      "name": "Approval",
      "type": "event"
    },
    {
      "anonymous": false,
      "inputs": [
        {
          "indexed": true,
          "internalType": "address",
          "name": "from",
          "type": "address"
        },
        {
          "indexed": true,
          "internalType": "address",
          "name": "to",
          "type": "address"
        },
        {
          "indexed": false,
          "internalType": "uint256",
          "name": "value",
          "type": "uint256"
        }
      ],
      "name": "Transfer",
      "type": "event"
    },
    {
      "inputs": [
        {
          "internalType": "address",
          "name": "owner",
          "type": "address"
        },
        {
          "internalType": "address",
          "name": "spender",
          "type": "address"
        }
      ],
      "name": "allowance",
      "outputs": [
        {
          "internalType": "uint256",
          "name": "",
          "type": "uint256"
        }
      ],
      "stateMutability": "view",
      "type": "function"
    },
    {
      "inputs": [
        {
          "internalType": "address",
          "name": "spender",
          "type": "address"
        },
        {
          "internalType": "uint256",
          "name": "amount",
          "type": "uint256"
        }
      ],
      "name": "approve",
      "outputs": [
        {
          "internalType": "bool",
          "name": "",
          "type": "bool"
        }
      ],
      "stateMutability": "nonpayable",
      "type": "function"
    },
    {
      "inputs": [
        {
          "internalType": "address",
          "name": "account",
          "type": "address"
        }
      ],
      "name": "balanceOf",
      "outputs": [
        {
          "internalType": "uint256",
          "name": "",
          "type": "uint256"
        }
      ],
      "stateMutability": "view",
      "type": "function"
    },
    {
      "inputs": [],
      "name": "current_minter",
      "outputs": [
        {
          "internalType": "address",
          "name": "",
          "type": "address"
        }
      ],
      "stateMutability": "view",
      "type": "function"
    },
    {
      "inputs": [],
      "name": "decimals",
      "outputs": [
        {
          "internalType": "uint8",
          "name": "",
          "type": "uint8"
        }
      ],
      "stateMutability": "view",
      "type": "function"
    },
    {
      "inputs": [
        {
          "internalType": "address",
          "name": "spender",
          "type": "address"
        },
        {
          "internalType": "uint256",
          "name": "subtractedValue",
          "type": "uint256"
        }
      ],
      "name": "decreaseAllowance",
      "outputs": [
        {
          "internalType": "bool",
          "name": "",
          "type": "bool"
        }
      ],
      "stateMutability": "nonpayable",
      "type": "function"
    },
    {
      "inputs": [
        {
          "internalType": "address",
          "name": "spender",
          "type": "address"
        },
        {
          "internalType": "uint256",
          "name": "addedValue",
          "type": "uint256"
        }
      ],
      "name": "increaseAllowance",
      "outputs": [
        {
          "internalType": "bool",
          "name": "",
          "type": "bool"
        }
      ],
      "stateMutability": "nonpayable",
      "type": "function"
    },
    {
      "inputs": [],
      "name": "name",
      "outputs": [
        {
          "internalType": "string",
          "name": "",
          "type": "string"
        }
      ],
      "stateMutability": "view",
      "type": "function"
    },
    {
      "inputs": [],
      "name": "symbol",
      "outputs": [
        {
          "internalType": "string",
          "name": "",
          "type": "string"
        }
      ],
      "stateMutability": "view",
      "type": "function"
    },
    {
      "inputs": [],
      "name": "totalSupply",
      "outputs": [
        {
          "internalType": "uint256",
          "name": "",
          "type": "uint256"
        }
      ],
      "stateMutability": "view",
      "type": "function"
    },
    {
      "inputs": [
        {
          "internalType": "address",
          "name": "recipient",
          "type": "address"
        },
        {
          "internalType": "uint256",
          "name": "amount",
          "type": "uint256"
        }
      ],
      "name": "transfer",
      "outputs": [
        {
          "internalType": "bool",
          "name": "",
          "type": "bool"
        }
      ],
      "stateMutability": "nonpayable",
      "type": "function"
    },
    {
      "inputs": [
        {
          "internalType": "address",
          "name": "sender",
          "type": "address"
        },
        {
          "internalType": "address",
          "name": "recipient",
          "type": "address"
        },
        {
          "internalType": "uint256",
          "name": "amount",
          "type": "uint256"
        }
      ],
      "name": "transferFrom",
      "outputs": [
        {
          "internalType": "bool",
          "name": "",
          "type": "bool"
        }
      ],
      "stateMutability": "nonpayable",
      "type": "function"
    },
    {
      "inputs": [
        {
          "internalType": "address",
          "name": "to",
          "type": "address"
        },
        {
          "internalType": "uint256",
          "name": "amount",
          "type": "uint256"
        }
      ],
      "name": "mint",
      "outputs": [],
      "stateMutability": "nonpayable",
      "type": "function"
    },
    {
      "inputs": [
        {
          "internalType": "uint256",
          "name": "amount",
          "type": "uint256"
        }
      ],
      "name": "burn",
      "outputs": [],
      "stateMutability": "nonpayable",
      "type": "function"
    },
    {
      "inputs": [
        {
          "internalType": "address",
          "name": "newMinter",
          "type": "address"
        }
      ],
      "name": "replaceMinter",
      "outputs": [],
      "stateMutability": "nonpayable",
      "type": "function"
    }
  ],
  "bytecode": "0x60806040526000600560006101000a81548173ffffffffffffffffffffffffffffffffffffffff021916908373ffffffffffffffffffffffffffffffffffffffff1602179055503480156200005357600080fd5b5060405162002213380380620022138339818101604052810190620000799190620002a5565b82828160039080519060200190620000939291906200016c565b508060049080519060200190620000ac9291906200016c565b505050600073ffffffffffffffffffffffffffffffffffffffff168173ffffffffffffffffffffffffffffffffffffffff16141562000122576040517f08c379a000000000000000000000000000000000000000000000000000000000815260040162000119906200036f565b60405180910390fd5b80600560006101000a81548173ffffffffffffffffffffffffffffffffffffffff021916908373ffffffffffffffffffffffffffffffffffffffff16021790555050505062000521565b8280546200017a9062000473565b90600052602060002090601f0160209004810192826200019e5760008555620001ea565b82601f10620001b957805160ff1916838001178555620001ea565b82800160010185558215620001ea579182015b82811115620001e9578251825591602001919060010190620001cc565b5b509050620001f99190620001fd565b5090565b5b8082111562000218576000816000905550600101620001fe565b5090565b6000620002336200022d84620003c5565b62000391565b9050828152602081018484840111156200024c57600080fd5b620002598482856200043d565b509392505050565b600081519050620002728162000507565b92915050565b600082601f8301126200028a57600080fd5b81516200029c8482602086016200021c565b91505092915050565b600080600060608486031215620002bb57600080fd5b600084015167ffffffffffffffff811115620002d657600080fd5b620002e48682870162000278565b935050602084015167ffffffffffffffff8111156200030257600080fd5b620003108682870162000278565b9250506040620003238682870162000261565b9150509250925092565b60006200033c601383620003f8565b91507f4552524f523a205a65726f2061646472657373000000000000000000000000006000830152602082019050919050565b600060208201905081810360008301526200038a816200032d565b9050919050565b6000604051905081810181811067ffffffffffffffff82111715620003bb57620003ba620004d8565b5b8060405250919050565b600067ffffffffffffffff821115620003e357620003e2620004d8565b5b601f19601f8301169050602081019050919050565b600082825260208201905092915050565b600062000416826200041d565b9050919050565b600073ffffffffffffffffffffffffffffffffffffffff82169050919050565b60005b838110156200045d57808201518184015260208101905062000440565b838111156200046d576000848401525b50505050565b600060028204905060018216806200048c57607f821691505b60208210811415620004a357620004a2620004a9565b5b50919050565b7f4e487b7100000000000000000000000000000000000000000000000000000000600052602260045260246000fd5b7f4e487b7100000000000000000000000000000000000000000000000000000000600052604160045260246000fd5b620005128162000409565b81146200051e57600080fd5b50565b611ce280620005316000396000f3fe608060405234801561001057600080fd5b50600436106100f55760003560e01c8063395093511161009757806395d89b411161006657806395d89b4114610286578063a457c2d7146102a4578063a9059cbb146102d4578063dd62ed3e14610304576100f5565b806339509351146101ee57806340c10f191461021e57806342966c681461023a57806370a0823114610256576100f5565b806318160ddd116100d357806318160ddd1461016457806323b872dd146101825780632e5ed955146101b2578063313ce567146101d0576100f5565b806306fdde03146100fa57806307f1af4414610118578063095ea7b314610134575b600080fd5b610102610334565b60405161010f91906118f7565b60405180910390f35b610132600480360381019061012d91906112f7565b6103c6565b005b61014e600480360381019061014991906113ab565b6104a1565b60405161015b91906118dc565b60405180910390f35b61016c6104bf565b6040516101799190611a79565b60405180910390f35b61019c6004803603810190610197919061135c565b6104c9565b6040516101a991906118dc565b60405180910390f35b6101ba6105c1565b6040516101c791906118c1565b60405180910390f35b6101d86105e7565b6040516101e59190611a94565b60405180910390f35b610208600480360381019061020391906113ab565b6105f0565b60405161021591906118dc565b60405180910390f35b610238600480360381019061023391906113ab565b61069c565b005b610254600480360381019061024f91906113e7565b610741565b005b610270600480360381019061026b91906112f7565b6107ec565b60405161027d9190611a79565b60405180910390f35b61028e610834565b60405161029b91906118f7565b60405180910390f35b6102be60048036038101906102b991906113ab565b6108c6565b6040516102cb91906118dc565b60405180910390f35b6102ee60048036038101906102e991906113ab565b6109b1565b6040516102fb91906118dc565b60405180910390f35b61031e60048036038101906103199190611320565b6109cf565b60405161032b9190611a79565b60405180910390f35b60606003805461034390611bdd565b80601f016020809104026020016040519081016040528092919081815260200182805461036f90611bdd565b80156103bc5780601f10610391576101008083540402835291602001916103bc565b820191906000526020600020905b81548152906001019060200180831161039f57829003601f168201915b5050505050905090565b6103ce610a56565b73ffffffffffffffffffffffffffffffffffffffff16600560009054906101000a900473ffffffffffffffffffffffffffffffffffffffff1673ffffffffffffffffffffffffffffffffffffffff161461045d576040517f08c379a0000000000000000000000000000000000000000000000000000000008152600401610454906119b9565b60405180910390fd5b80600560006101000a81548173ffffffffffffffffffffffffffffffffffffffff021916908373ffffffffffffffffffffffffffffffffffffffff16021790555050565b60006104b56104ae610a56565b8484610a5e565b6001905092915050565b6000600254905090565b60006104d6848484610c29565b6000600160008673ffffffffffffffffffffffffffffffffffffffff1673ffffffffffffffffffffffffffffffffffffffff1681526020019081526020016000206000610521610a56565b73ffffffffffffffffffffffffffffffffffffffff1673ffffffffffffffffffffffffffffffffffffffff168152602001908152602001600020549050828110156105a1576040517f08c379a000000000000000000000000000000000000000000000000000000000815260040161059890611999565b60405180910390fd5b6105b5856105ad610a56565b858403610a5e565b60019150509392505050565b600560009054906101000a900473ffffffffffffffffffffffffffffffffffffffff1681565b60006012905090565b60006106926105fd610a56565b84846001600061060b610a56565b73ffffffffffffffffffffffffffffffffffffffff1673ffffffffffffffffffffffffffffffffffffffff16815260200190815260200160002060008873ffffffffffffffffffffffffffffffffffffffff1673ffffffffffffffffffffffffffffffffffffffff1681526020019081526020016000205461068d9190611acb565b610a5e565b6001905092915050565b6106a4610a56565b73ffffffffffffffffffffffffffffffffffffffff16600560009054906101000a900473ffffffffffffffffffffffffffffffffffffffff1673ffffffffffffffffffffffffffffffffffffffff1614610733576040517f08c379a000000000000000000000000000000000000000000000000000000000815260040161072a906119b9565b60405180910390fd5b61073d8282610cfb565b5050565b610749610a56565b73ffffffffffffffffffffffffffffffffffffffff16600560009054906101000a900473ffffffffffffffffffffffffffffffffffffffff1673ffffffffffffffffffffffffffffffffffffffff16146107d8576040517f08c379a00000000000000000000000000000000000000000000000000000000081526004016107cf906119b9565b60405180910390fd5b6107e96107e3610a56565b82610e5b565b50565b60008060008373ffffffffffffffffffffffffffffffffffffffff1673ffffffffffffffffffffffffffffffffffffffff168152602001908152602001600020549050919050565b60606004805461084390611bdd565b80601f016020809104026020016040519081016040528092919081815260200182805461086f90611bdd565b80156108bc5780601f10610891576101008083540402835291602001916108bc565b820191906000526020600020905b81548152906001019060200180831161089f57829003601f168201915b5050505050905090565b600080600160006108d5610a56565b73ffffffffffffffffffffffffffffffffffffffff1673ffffffffffffffffffffffffffffffffffffffff16815260200190815260200160002060008573ffffffffffffffffffffffffffffffffffffffff1673ffffffffffffffffffffffffffffffffffffffff16815260200190815260200160002054905082811015610992576040517f08c379a000000000000000000000000000000000000000000000000000000000815260040161098990611a39565b60405180910390fd5b6109a661099d610a56565b85858403610a5e565b600191505092915050565b60006109c56109be610a56565b8484610c29565b6001905092915050565b6000600160008473ffffffffffffffffffffffffffffffffffffffff1673ffffffffffffffffffffffffffffffffffffffff16815260200190815260200160002060008373ffffffffffffffffffffffffffffffffffffffff1673ffffffffffffffffffffffffffffffffffffffff16815260200190815260200160002054905092915050565b600033905090565b600073ffffffffffffffffffffffffffffffffffffffff168373ffffffffffffffffffffffffffffffffffffffff161415610ace576040517f08c379a0000000000000000000000000000000000000000000000000000000008152600401610ac590611a19565b60405180910390fd5b600073ffffffffffffffffffffffffffffffffffffffff168273ffffffffffffffffffffffffffffffffffffffff161415610b3e576040517f08c379a0000000000000000000000000000000000000000000000000000000008152600401610b3590611959565b60405180910390fd5b80600160008573ffffffffffffffffffffffffffffffffffffffff1673ffffffffffffffffffffffffffffffffffffffff16815260200190815260200160002060008473ffffffffffffffffffffffffffffffffffffffff1673ffffffffffffffffffffffffffffffffffffffff168152602001908152602001600020819055508173ffffffffffffffffffffffffffffffffffffffff168373ffffffffffffffffffffffffffffffffffffffff167f8c5be1e5ebec7d5bd14f71427d1e84f3dd0314c0f7b2291e5b200ac8c7c3b92583604051610c1c9190611a79565b60405180910390a3505050565b610c34838383611032565b600560009054906101000a900473ffffffffffffffffffffffffffffffffffffffff1673ffffffffffffffffffffffffffffffffffffffff16610c75610a56565b73ffffffffffffffffffffffffffffffffffffffff1614158015610ce65750600560009054906101000a900473ffffffffffffffffffffffffffffffffffffffff1673ffffffffffffffffffffffffffffffffffffffff168273ffffffffffffffffffffffffffffffffffffffff16145b15610cf657610cf58282610e5b565b5b505050565b600073ffffffffffffffffffffffffffffffffffffffff168273ffffffffffffffffffffffffffffffffffffffff161415610d6b576040517f08c379a0000000000000000000000000000000000000000000000000000000008152600401610d6290611a59565b60405180910390fd5b610d77600083836112b3565b8060026000828254610d899190611acb565b92505081905550806000808473ffffffffffffffffffffffffffffffffffffffff1673ffffffffffffffffffffffffffffffffffffffff1681526020019081526020016000206000828254610dde9190611acb565b925050819055508173ffffffffffffffffffffffffffffffffffffffff16600073ffffffffffffffffffffffffffffffffffffffff167fddf252ad1be2c89b69c2b068fc378daa952ba7f163c4a11628f55a4df523b3ef83604051610e439190611a79565b60405180910390a3610e57600083836112c3565b5050565b600073ffffffffffffffffffffffffffffffffffffffff168273ffffffffffffffffffffffffffffffffffffffff161415610ecb576040517f08c379a0000000000000000000000000000000000000000000000000000000008152600401610ec2906119d9565b60405180910390fd5b610ed7826000836112b3565b60008060008473ffffffffffffffffffffffffffffffffffffffff1673ffffffffffffffffffffffffffffffffffffffff16815260200190815260200160002054905081811015610f5d576040517f08c379a0000000000000000000000000000000000000000000000000000000008152600401610f5490611939565b60405180910390fd5b8181036000808573ffffffffffffffffffffffffffffffffffffffff1673ffffffffffffffffffffffffffffffffffffffff168152602001908152602001600020819055508160026000828254610fb49190611b21565b92505081905550600073ffffffffffffffffffffffffffffffffffffffff168373ffffffffffffffffffffffffffffffffffffffff167fddf252ad1be2c89b69c2b068fc378daa952ba7f163c4a11628f55a4df523b3ef846040516110199190611a79565b60405180910390a361102d836000846112c3565b505050565b600073ffffffffffffffffffffffffffffffffffffffff168373ffffffffffffffffffffffffffffffffffffffff1614156110a2576040517f08c379a0000000000000000000000000000000000000000000000000000000008152600401611099906119f9565b60405180910390fd5b600073ffffffffffffffffffffffffffffffffffffffff168273ffffffffffffffffffffffffffffffffffffffff161415611112576040517f08c379a000000000000000000000000000000000000000000000000000000000815260040161110990611919565b60405180910390fd5b61111d8383836112b3565b60008060008573ffffffffffffffffffffffffffffffffffffffff1673ffffffffffffffffffffffffffffffffffffffff168152602001908152602001600020549050818110156111a3576040517f08c379a000000000000000000000000000000000000000000000000000000000815260040161119a90611979565b60405180910390fd5b8181036000808673ffffffffffffffffffffffffffffffffffffffff1673ffffffffffffffffffffffffffffffffffffffff16815260200190815260200160002081905550816000808573ffffffffffffffffffffffffffffffffffffffff1673ffffffffffffffffffffffffffffffffffffffff16815260200190815260200160002060008282546112369190611acb565b925050819055508273ffffffffffffffffffffffffffffffffffffffff168473ffffffffffffffffffffffffffffffffffffffff167fddf252ad1be2c89b69c2b068fc378daa952ba7f163c4a11628f55a4df523b3ef8460405161129a9190611a79565b60405180910390a36112ad8484846112c3565b50505050565b6112be8383836112c8565b505050565b505050565b505050565b6000813590506112dc81611c7e565b92915050565b6000813590506112f181611c95565b92915050565b60006020828403121561130957600080fd5b6000611317848285016112cd565b91505092915050565b6000806040838503121561133357600080fd5b6000611341858286016112cd565b9250506020611352858286016112cd565b9150509250929050565b60008060006060848603121561137157600080fd5b600061137f868287016112cd565b9350506020611390868287016112cd565b92505060406113a1868287016112e2565b9150509250925092565b600080604083850312156113be57600080fd5b60006113cc858286016112cd565b92505060206113dd858286016112e2565b9150509250929050565b6000602082840312156113f957600080fd5b6000611407848285016112e2565b91505092915050565b61141981611b55565b82525050565b61142881611b67565b82525050565b600061143982611aaf565b6114438185611aba565b9350611453818560208601611baa565b61145c81611c6d565b840191505092915050565b6000611474602383611aba565b91507f45524332303a207472616e7366657220746f20746865207a65726f206164647260008301527f65737300000000000000000000000000000000000000000000000000000000006020830152604082019050919050565b60006114da602283611aba565b91507f45524332303a206275726e20616d6f756e7420657863656564732062616c616e60008301527f63650000000000000000000000000000000000000000000000000000000000006020830152604082019050919050565b6000611540602283611aba565b91507f45524332303a20617070726f766520746f20746865207a65726f20616464726560008301527f73730000000000000000000000000000000000000000000000000000000000006020830152604082019050919050565b60006115a6602683611aba565b91507f45524332303a207472616e7366657220616d6f756e742065786365656473206260008301527f616c616e636500000000000000000000000000000000000000000000000000006020830152604082019050919050565b600061160c602883611aba565b91507f45524332303a207472616e7366657220616d6f756e742065786365656473206160008301527f6c6c6f77616e63650000000000000000000000000000000000000000000000006020830152604082019050919050565b6000611672602483611aba565b91507f6f6e6c794d696e7465723a2063616c6c6572206973206e6f7420746865206d6960008301527f6e746572000000000000000000000000000000000000000000000000000000006020830152604082019050919050565b60006116d8602183611aba565b91507f45524332303a206275726e2066726f6d20746865207a65726f2061646472657360008301527f73000000000000000000000000000000000000000000000000000000000000006020830152604082019050919050565b600061173e602583611aba565b91507f45524332303a207472616e736665722066726f6d20746865207a65726f20616460008301527f64726573730000000000000000000000000000000000000000000000000000006020830152604082019050919050565b60006117a4602483611aba565b91507f45524332303a20617070726f76652066726f6d20746865207a65726f2061646460008301527f72657373000000000000000000000000000000000000000000000000000000006020830152604082019050919050565b600061180a602583611aba565b91507f45524332303a2064656372656173656420616c6c6f77616e63652062656c6f7760008301527f207a65726f0000000000000000000000000000000000000000000000000000006020830152604082019050919050565b6000611870601f83611aba565b91507f45524332303a206d696e7420746f20746865207a65726f2061646472657373006000830152602082019050919050565b6118ac81611b93565b82525050565b6118bb81611b9d565b82525050565b60006020820190506118d66000830184611410565b92915050565b60006020820190506118f1600083018461141f565b92915050565b60006020820190508181036000830152611911818461142e565b905092915050565b6000602082019050818103600083015261193281611467565b9050919050565b60006020820190508181036000830152611952816114cd565b9050919050565b6000602082019050818103600083015261197281611533565b9050919050565b6000602082019050818103600083015261199281611599565b9050919050565b600060208201905081810360008301526119b2816115ff565b9050919050565b600060208201905081810360008301526119d281611665565b9050919050565b600060208201905081810360008301526119f2816116cb565b9050919050565b60006020820190508181036000830152611a1281611731565b9050919050565b60006020820190508181036000830152611a3281611797565b9050919050565b60006020820190508181036000830152611a52816117fd565b9050919050565b60006020820190508181036000830152611a7281611863565b9050919050565b6000602082019050611a8e60008301846118a3565b92915050565b6000602082019050611aa960008301846118b2565b92915050565b600081519050919050565b600082825260208201905092915050565b6000611ad682611b93565b9150611ae183611b93565b9250827fffffffffffffffffffffffffffffffffffffffffffffffffffffffffffffffff03821115611b1657611b15611c0f565b5b828201905092915050565b6000611b2c82611b93565b9150611b3783611b93565b925082821015611b4a57611b49611c0f565b5b828203905092915050565b6000611b6082611b73565b9050919050565b60008115159050919050565b600073ffffffffffffffffffffffffffffffffffffffff82169050919050565b6000819050919050565b600060ff82169050919050565b60005b83811015611bc8578082015181840152602081019050611bad565b83811115611bd7576000848401525b50505050565b60006002820490506001821680611bf557607f821691505b60208210811415611c0957611c08611c3e565b5b50919050565b7f4e487b7100000000000000000000000000000000000000000000000000000000600052601160045260246000fd5b7f4e487b7100000000000000000000000000000000000000000000000000000000600052602260045260246000fd5b6000601f19601f8301169050919050565b611c8781611b55565b8114611c9257600080fd5b50565b611c9e81611b93565b8114611ca957600080fd5b5056fea2646970667358221220a7ddaf39a1d30128f731a694516e518bd3ba099daa3a61a2fa9236cd839cbf4864736f6c63430008000033",
  "immutableReferences": {},
  "source": "// SPDX-License-Identifier: MIT\n\npragma solidity ^0.8.0;\n\nimport \"@openzeppelin/contracts/token/ERC20/ERC20.sol\";\nimport \"@openzeppelin/contracts/utils/Context.sol\";\n\ncontract ERC20Minter is Context, ERC20 {\n    address public current_minter = address(0);\n\n    modifier onlyMinter() {\n        require(current_minter == _msgSender(), \"onlyMinter: caller is not the minter\");\n        _;\n    }\n\n    constructor(string memory name, string memory symbol, address minter) ERC20(name, symbol) {\n        require(minter != address(0), \"ERROR: Zero address\");\n        current_minter = minter;\n    }\n\n    function mint(address to, uint256 amount) external onlyMinter {\n        _mint(to, amount);\n    }\n\n    function burn(uint256 amount) external onlyMinter {\n        _burn(_msgSender(), amount);\n    }\n\n    function replaceMinter(address newMinter) external onlyMinter {\n        current_minter = newMinter;\n    }\n\n    function _transfer(address sender, address recipient, uint256 amount) internal virtual override(ERC20) {\n        super._transfer(sender, recipient, amount);\n        if (_msgSender() != current_minter && recipient == current_minter) {\n            _burn(recipient, amount);\n        }\n    }\n\n    function _beforeTokenTransfer(address from, address to, uint256 amount) internal virtual override(ERC20) {\n        super._beforeTokenTransfer(from, to, amount);\n    }\n}",
  "sourcePath": "/Users/terry/go/src/github.com/terry108/multisig/contracts/ERC20Minter.sol",
  "compiler": {
    "name": "solc",
    "version": "0.8.0+commit.c7dfd78e.Emscripten.clang"
  },
  "schemaVersion": "3.4.3",
  "updatedAt": "2021-09-09T02:36:59.161Z",
  "devdoc": {
    "kind": "dev",
    "methods": {
      "allowance(address,address)": {
        "details": "See {IERC20-allowance}."
      },
      "approve(address,uint256)": {
        "details": "See {IERC20-approve}. Requirements: - `spender` cannot be the zero address."
      },
      "balanceOf(address)": {
        "details": "See {IERC20-balanceOf}."
      },
      "decimals()": {
        "details": "Returns the number of decimals used to get its user representation. For example, if `decimals` equals `2`, a balance of `505` tokens should be displayed to a user as `5.05` (`505 / 10 ** 2`). Tokens usually opt for a value of 18, imitating the relationship between Ether and Wei. This is the value {ERC20} uses, unless this function is overridden; NOTE: This information is only used for _display_ purposes: it in no way affects any of the arithmetic of the contract, including {IERC20-balanceOf} and {IERC20-transfer}."
      },
      "decreaseAllowance(address,uint256)": {
        "details": "Atomically decreases the allowance granted to `spender` by the caller. This is an alternative to {approve} that can be used as a mitigation for problems described in {IERC20-approve}. Emits an {Approval} event indicating the updated allowance. Requirements: - `spender` cannot be the zero address. - `spender` must have allowance for the caller of at least `subtractedValue`."
      },
      "increaseAllowance(address,uint256)": {
        "details": "Atomically increases the allowance granted to `spender` by the caller. This is an alternative to {approve} that can be used as a mitigation for problems described in {IERC20-approve}. Emits an {Approval} event indicating the updated allowance. Requirements: - `spender` cannot be the zero address."
      },
      "name()": {
        "details": "Returns the name of the token."
      },
      "symbol()": {
        "details": "Returns the symbol of the token, usually a shorter version of the name."
      },
      "totalSupply()": {
        "details": "See {IERC20-totalSupply}."
      },
      "transfer(address,uint256)": {
        "details": "See {IERC20-transfer}. Requirements: - `recipient` cannot be the zero address. - the caller must have a balance of at least `amount`."
      },
      "transferFrom(address,address,uint256)": {
        "details": "See {IERC20-transferFrom}. Emits an {Approval} event indicating the updated allowance. This is not required by the EIP. See the note at the beginning of {ERC20}. Requirements: - `sender` and `recipient` cannot be the zero address. - `sender` must have a balance of at least `amount`. - the caller must have allowance for ``sender``'s tokens of at least `amount`."
      }
    },
    "version": 1
  },
  "userdoc": {
    "kind": "user",
    "methods": {},
    "version": 1
  }
}