{
  "contractName": "ERC721Minter",
  "abi": [
    {
      "inputs": [
        {
          "internalType": "string",
          "name": "name",
          "type": "string"
        },
        {
          "internalType": "string",
          "name": "symbol",
          "type": "string"
        },
        {
          "internalType": "address",
          "name": "minter",
          "type": "address"
        }
      ],
      "stateMutability": "nonpayable",
      "type": "constructor"
    },
    {
      "anonymous": false,
      "inputs": [
        {
          "indexed": true,
          "internalType": "address",
          "name": "owner",
          "type": "address"
        },
        {
          "indexed": true,
          "internalType": "address",
          "name": "approved",
          "type": "address"
        },
        {
          "indexed": true,
          "internalType": "uint256",
          "name": "tokenId",
          "type": "uint256"
        }
      ],
      "name": "Approval",
      "type": "event"
    },
    {
      "anonymous": false,
      "inputs": [
        {
          "indexed": true,
          "internalType": "address",
          "name": "owner",
          "type": "address"
        },
        {
          "indexed": true,
          "internalType": "address",
          "name": "operator",
          "type": "address"
        },
        {
          "indexed": false,
          "internalType": "bool",
          "name": "approved",
          "type": "bool"
        }
      ],
      "name": "ApprovalForAll",
      "type": "event"
    },
    {
      "anonymous": false,
      "inputs": [
        {
          "indexed": true,
          "internalType": "address",
          "name": "from",
          "type": "address"
        },
        {
          "indexed": true,
          "internalType": "address",
          "name": "to",
          "type": "address"
        },
        {
          "indexed": true,
          "internalType": "uint256",
          "name": "tokenId",
          "type": "uint256"
        }
      ],
      "name": "Transfer",
      "type": "event"
    },
    {
      "inputs": [
        {
          "internalType": "address",
          "name": "to",
          "type": "address"
        },
        {
          "internalType": "uint256",
          "name": "tokenId",
          "type": "uint256"
        }
      ],
      "name": "approve",
      "outputs": [],
      "stateMutability": "nonpayable",
      "type": "function"
    },
    {
      "inputs": [
        {
          "internalType": "address",
          "name": "owner",
          "type": "address"
        }
      ],
      "name": "balanceOf",
      "outputs": [
        {
          "internalType": "uint256",
          "name": "",
          "type": "uint256"
        }
      ],
      "stateMutability": "view",
      "type": "function"
    },
    {
      "inputs": [],
      "name": "current_minter",
      "outputs": [
        {
          "internalType": "address",
          "name": "",
          "type": "address"
        }
      ],
      "stateMutability": "view",
      "type": "function"
    },
    {
      "inputs": [
        {
          "internalType": "uint256",
          "name": "tokenId",
          "type": "uint256"
        }
      ],
      "name": "getApproved",
      "outputs": [
        {
          "internalType": "address",
          "name": "",
          "type": "address"
        }
      ],
      "stateMutability": "view",
      "type": "function"
    },
    {
      "inputs": [
        {
          "internalType": "address",
          "name": "owner",
          "type": "address"
        },
        {
          "internalType": "address",
          "name": "operator",
          "type": "address"
        }
      ],
      "name": "isApprovedForAll",
      "outputs": [
        {
          "internalType": "bool",
          "name": "",
          "type": "bool"
        }
      ],
      "stateMutability": "view",
      "type": "function"
    },
    {
      "inputs": [],
      "name": "name",
      "outputs": [
        {
          "internalType": "string",
          "name": "",
          "type": "string"
        }
      ],
      "stateMutability": "view",
      "type": "function"
    },
    {
      "inputs": [
        {
          "internalType": "uint256",
          "name": "tokenId",
          "type": "uint256"
        }
      ],
      "name": "ownerOf",
      "outputs": [
        {
          "internalType": "address",
          "name": "",
          "type": "address"
        }
      ],
      "stateMutability": "view",
      "type": "function"
    },
    {
      "inputs": [
        {
          "internalType": "address",
          "name": "from",
          "type": "address"
        },
        {
          "internalType": "address",
          "name": "to",
          "type": "address"
        },
        {
          "internalType": "uint256",
          "name": "tokenId",
          "type": "uint256"
        }
      ],
      "name": "safeTransferFrom",
      "outputs": [],
      "stateMutability": "nonpayable",
      "type": "function"
    },
    {
      "inputs": [
        {
          "internalType": "address",
          "name": "from",
          "type": "address"
        },
        {
          "internalType": "address",
          "name": "to",
          "type": "address"
        },
        {
          "internalType": "uint256",
          "name": "tokenId",
          "type": "uint256"
        },
        {
          "internalType": "bytes",
          "name": "_data",
          "type": "bytes"
        }
      ],
      "name": "safeTransferFrom",
      "outputs": [],
      "stateMutability": "nonpayable",
      "type": "function"
    },
    {
      "inputs": [
        {
          "internalType": "address",
          "name": "operator",
          "type": "address"
        },
        {
          "internalType": "bool",
          "name": "approved",
          "type": "bool"
        }
      ],
      "name": "setApprovalForAll",
      "outputs": [],
      "stateMutability": "nonpayable",
      "type": "function"
    },
    {
      "inputs": [
        {
          "internalType": "bytes4",
          "name": "interfaceId",
          "type": "bytes4"
        }
      ],
      "name": "supportsInterface",
      "outputs": [
        {
          "internalType": "bool",
          "name": "",
          "type": "bool"
        }
      ],
      "stateMutability": "view",
      "type": "function"
    },
    {
      "inputs": [],
      "name": "symbol",
      "outputs": [
        {
          "internalType": "string",
          "name": "",
          "type": "string"
        }
      ],
      "stateMutability": "view",
      "type": "function"
    },
    {
      "inputs": [
        {
          "internalType": "uint256",
          "name": "tokenId",
          "type": "uint256"
        }
      ],
      "name": "tokenURI",
      "outputs": [
        {
          "internalType": "string",
          "name": "",
          "type": "string"
        }
      ],
      "stateMutability": "view",
      "type": "function"
    },
    {
      "inputs": [
        {
          "internalType": "address",
          "name": "from",
          "type": "address"
        },
        {
          "internalType": "address",
          "name": "to",
          "type": "address"
        },
        {
          "internalType": "uint256",
          "name": "tokenId",
          "type": "uint256"
        }
      ],
      "name": "transferFrom",
      "outputs": [],
      "stateMutability": "nonpayable",
      "type": "function"
    },
    {
      "inputs": [
        {
          "internalType": "address",
          "name": "player",
          "type": "address"
        },
        {
          "internalType": "string",
          "name": "tokenURI",
          "type": "string"
        }
      ],
      "name": "mint",
      "outputs": [
        {
          "internalType": "uint256",
          "name": "",
          "type": "uint256"
        }
      ],
      "stateMutability": "nonpayable",
      "type": "function"
    },
    {
      "inputs": [
        {
          "internalType": "uint256",
          "name": "tokenId",
          "type": "uint256"
        }
      ],
      "name": "burn",
      "outputs": [],
      "stateMutability": "nonpayable",
      "type": "function"
    },
    {
      "inputs": [
        {
          "internalType": "address",
          "name": "newMinter",
          "type": "address"
        }
      ],
      "name": "replaceMinter",
      "outputs": [],
      "stateMutability": "nonpayable",
      "type": "function"
    }
  ],
  "bytecode": "0x60806040526000600760006101000a81548173ffffffffffffffffffffffffffffffffffffffff021916908373ffffffffffffffffffffffffffffffffffffffff1602179055503480156200005357600080fd5b5060405162003644380380620036448339818101604052810190620000799190620002a5565b82828160009080519060200190620000939291906200016c565b508060019080519060200190620000ac9291906200016c565b505050600073ffffffffffffffffffffffffffffffffffffffff168173ffffffffffffffffffffffffffffffffffffffff16141562000122576040517f08c379a000000000000000000000000000000000000000000000000000000000815260040162000119906200036f565b60405180910390fd5b80600760006101000a81548173ffffffffffffffffffffffffffffffffffffffff021916908373ffffffffffffffffffffffffffffffffffffffff16021790555050505062000521565b8280546200017a9062000473565b90600052602060002090601f0160209004810192826200019e5760008555620001ea565b82601f10620001b957805160ff1916838001178555620001ea565b82800160010185558215620001ea579182015b82811115620001e9578251825591602001919060010190620001cc565b5b509050620001f99190620001fd565b5090565b5b8082111562000218576000816000905550600101620001fe565b5090565b6000620002336200022d84620003c5565b62000391565b9050828152602081018484840111156200024c57600080fd5b620002598482856200043d565b509392505050565b600081519050620002728162000507565b92915050565b600082601f8301126200028a57600080fd5b81516200029c8482602086016200021c565b91505092915050565b600080600060608486031215620002bb57600080fd5b600084015167ffffffffffffffff811115620002d657600080fd5b620002e48682870162000278565b935050602084015167ffffffffffffffff8111156200030257600080fd5b620003108682870162000278565b9250506040620003238682870162000261565b9150509250925092565b60006200033c601383620003f8565b91507f4552524f523a205a65726f2061646472657373000000000000000000000000006000830152602082019050919050565b600060208201905081810360008301526200038a816200032d565b9050919050565b6000604051905081810181811067ffffffffffffffff82111715620003bb57620003ba620004d8565b5b8060405250919050565b600067ffffffffffffffff821115620003e357620003e2620004d8565b5b601f19601f8301169050602081019050919050565b600082825260208201905092915050565b600062000416826200041d565b9050919050565b600073ffffffffffffffffffffffffffffffffffffffff82169050919050565b60005b838110156200045d57808201518184015260208101905062000440565b838111156200046d576000848401525b50505050565b600060028204905060018216806200048c57607f821691505b60208210811415620004a357620004a2620004a9565b5b50919050565b7f4e487b7100000000000000000000000000000000000000000000000000000000600052602260045260246000fd5b7f4e487b7100000000000000000000000000000000000000000000000000000000600052604160045260246000fd5b620005128162000409565b81146200051e57600080fd5b50565b61311380620005316000396000f3fe608060405234801561001057600080fd5b506004361061010b5760003560e01c806342966c68116100a2578063a22cb46511610071578063a22cb465146102b6578063b88d4fde146102d2578063c87b56dd146102ee578063d0def5211461031e578063e985e9c51461034e5761010b565b806342966c681461021c5780636352211e1461023857806370a082311461026857806395d89b41146102985761010b565b8063095ea7b3116100de578063095ea7b3146101aa57806323b872dd146101c65780632e5ed955146101e257806342842e0e146102005761010b565b806301ffc9a71461011057806306fdde031461014057806307f1af441461015e578063081812fc1461017a575b600080fd5b61012a600480360381019061012591906121cb565b61037e565b6040516101379190612a5b565b60405180910390f35b610148610460565b6040516101559190612a76565b60405180910390f35b61017860048036038101906101739190611fcc565b6104f2565b005b610194600480360381019061018f919061221d565b6105cd565b6040516101a191906129f4565b60405180910390f35b6101c460048036038101906101bf919061218f565b610652565b005b6101e060048036038101906101db9190612031565b61076a565b005b6101ea6107ca565b6040516101f791906129f4565b60405180910390f35b61021a60048036038101906102159190612031565b6107f0565b005b6102366004803603810190610231919061221d565b610810565b005b610252600480360381019061024d919061221d565b610903565b60405161025f91906129f4565b60405180910390f35b610282600480360381019061027d9190611fcc565b6109b5565b60405161028f9190612cd8565b60405180910390f35b6102a0610a6d565b6040516102ad9190612a76565b60405180910390f35b6102d060048036038101906102cb91906120fb565b610aff565b005b6102ec60048036038101906102e79190612080565b610c80565b005b6103086004803603810190610303919061221d565b610ce2565b6040516103159190612a76565b60405180910390f35b61033860048036038101906103339190612137565b610e34565b6040516103459190612cd8565b60405180910390f35b61036860048036038101906103639190611ff5565b610f48565b6040516103759190612a5b565b60405180910390f35b60007f80ac58cd000000000000000000000000000000000000000000000000000000007bffffffffffffffffffffffffffffffffffffffffffffffffffffffff1916827bffffffffffffffffffffffffffffffffffffffffffffffffffffffff1916148061044957507f5b5e139f000000000000000000000000000000000000000000000000000000007bffffffffffffffffffffffffffffffffffffffffffffffffffffffff1916827bffffffffffffffffffffffffffffffffffffffffffffffffffffffff1916145b80610459575061045882610fdc565b5b9050919050565b60606000805461046f90612f08565b80601f016020809104026020016040519081016040528092919081815260200182805461049b90612f08565b80156104e85780601f106104bd576101008083540402835291602001916104e8565b820191906000526020600020905b8154815290600101906020018083116104cb57829003601f168201915b5050505050905090565b6104fa611046565b73ffffffffffffffffffffffffffffffffffffffff16600760009054906101000a900473ffffffffffffffffffffffffffffffffffffffff1673ffffffffffffffffffffffffffffffffffffffff1614610589576040517f08c379a000000000000000000000000000000000000000000000000000000000815260040161058090612c18565b60405180910390fd5b80600760006101000a81548173ffffffffffffffffffffffffffffffffffffffff021916908373ffffffffffffffffffffffffffffffffffffffff16021790555050565b60006105d88261104e565b610617576040517f08c379a000000000000000000000000000000000000000000000000000000000815260040161060e90612bf8565b60405180910390fd5b6004600083815260200190815260200160002060009054906101000a900473ffffffffffffffffffffffffffffffffffffffff169050919050565b600061065d82610903565b90508073ffffffffffffffffffffffffffffffffffffffff168373ffffffffffffffffffffffffffffffffffffffff1614156106ce576040517f08c379a00000000000000000000000000000000000000000000000000000000081526004016106c590612c78565b60405180910390fd5b8073ffffffffffffffffffffffffffffffffffffffff166106ed611046565b73ffffffffffffffffffffffffffffffffffffffff16148061071c575061071b81610716611046565b610f48565b5b61075b576040517f08c379a000000000000000000000000000000000000000000000000000000000815260040161075290612b38565b60405180910390fd5b61076583836110ba565b505050565b61077b610775611046565b82611173565b6107ba576040517f08c379a00000000000000000000000000000000000000000000000000000000081526004016107b190612c98565b60405180910390fd5b6107c5838383611251565b505050565b600760009054906101000a900473ffffffffffffffffffffffffffffffffffffffff1681565b61080b83838360405180602001604052806000815250610c80565b505050565b610818611046565b73ffffffffffffffffffffffffffffffffffffffff16600760009054906101000a900473ffffffffffffffffffffffffffffffffffffffff1673ffffffffffffffffffffffffffffffffffffffff16146108a7576040517f08c379a000000000000000000000000000000000000000000000000000000000815260040161089e90612c18565b60405180910390fd5b6108b86108b2611046565b82611173565b6108f7576040517f08c379a00000000000000000000000000000000000000000000000000000000081526004016108ee90612cb8565b60405180910390fd5b61090081611322565b50565b6000806002600084815260200190815260200160002060009054906101000a900473ffffffffffffffffffffffffffffffffffffffff169050600073ffffffffffffffffffffffffffffffffffffffff168173ffffffffffffffffffffffffffffffffffffffff1614156109ac576040517f08c379a00000000000000000000000000000000000000000000000000000000081526004016109a390612b78565b60405180910390fd5b80915050919050565b60008073ffffffffffffffffffffffffffffffffffffffff168273ffffffffffffffffffffffffffffffffffffffff161415610a26576040517f08c379a0000000000000000000000000000000000000000000000000000000008152600401610a1d90612b58565b60405180910390fd5b600360008373ffffffffffffffffffffffffffffffffffffffff1673ffffffffffffffffffffffffffffffffffffffff168152602001908152602001600020549050919050565b606060018054610a7c90612f08565b80601f0160208091040260200160405190810160405280929190818152602001828054610aa890612f08565b8015610af55780601f10610aca57610100808354040283529160200191610af5565b820191906000526020600020905b815481529060010190602001808311610ad857829003601f168201915b5050505050905090565b610b07611046565b73ffffffffffffffffffffffffffffffffffffffff168273ffffffffffffffffffffffffffffffffffffffff161415610b75576040517f08c379a0000000000000000000000000000000000000000000000000000000008152600401610b6c90612af8565b60405180910390fd5b8060056000610b82611046565b73ffffffffffffffffffffffffffffffffffffffff1673ffffffffffffffffffffffffffffffffffffffff16815260200190815260200160002060008473ffffffffffffffffffffffffffffffffffffffff1673ffffffffffffffffffffffffffffffffffffffff16815260200190815260200160002060006101000a81548160ff0219169083151502179055508173ffffffffffffffffffffffffffffffffffffffff16610c2f611046565b73ffffffffffffffffffffffffffffffffffffffff167f17307eab39ab6107e8899845ad3d59bd9653f200f220920489ca2b5937696c3183604051610c749190612a5b565b60405180910390a35050565b610c91610c8b611046565b83611173565b610cd0576040517f08c379a0000000000000000000000000000000000000000000000000000000008152600401610cc790612c98565b60405180910390fd5b610cdc84848484611375565b50505050565b6060610ced8261104e565b610d2c576040517f08c379a0000000000000000000000000000000000000000000000000000000008152600401610d2390612bd8565b60405180910390fd5b6000600660008481526020019081526020016000208054610d4c90612f08565b80601f0160208091040260200160405190810160405280929190818152602001828054610d7890612f08565b8015610dc55780601f10610d9a57610100808354040283529160200191610dc5565b820191906000526020600020905b815481529060010190602001808311610da857829003601f168201915b505050505090506000610dd66113d1565b9050600081511415610dec578192505050610e2f565b600082511115610e21578082604051602001610e099291906129d0565b60405160208183030381529060405292505050610e2f565b610e2a846113e8565b925050505b919050565b6000610e3e611046565b73ffffffffffffffffffffffffffffffffffffffff16600760009054906101000a900473ffffffffffffffffffffffffffffffffffffffff1673ffffffffffffffffffffffffffffffffffffffff1614610ecd576040517f08c379a0000000000000000000000000000000000000000000000000000000008152600401610ec490612c18565b60405180910390fd5b610ed7600861148f565b6000610ee360086114a5565b9050610eef85826114b3565b610f3d8185858080601f016020809104026020016040519081016040528093929190818152602001838380828437600081840152601f19601f82011690508083019250505050505050611681565b809150509392505050565b6000600560008473ffffffffffffffffffffffffffffffffffffffff1673ffffffffffffffffffffffffffffffffffffffff16815260200190815260200160002060008373ffffffffffffffffffffffffffffffffffffffff1673ffffffffffffffffffffffffffffffffffffffff16815260200190815260200160002060009054906101000a900460ff16905092915050565b60007f01ffc9a7000000000000000000000000000000000000000000000000000000007bffffffffffffffffffffffffffffffffffffffffffffffffffffffff1916827bffffffffffffffffffffffffffffffffffffffffffffffffffffffff1916149050919050565b600033905090565b60008073ffffffffffffffffffffffffffffffffffffffff166002600084815260200190815260200160002060009054906101000a900473ffffffffffffffffffffffffffffffffffffffff1673ffffffffffffffffffffffffffffffffffffffff1614159050919050565b816004600083815260200190815260200160002060006101000a81548173ffffffffffffffffffffffffffffffffffffffff021916908373ffffffffffffffffffffffffffffffffffffffff160217905550808273ffffffffffffffffffffffffffffffffffffffff1661112d83610903565b73ffffffffffffffffffffffffffffffffffffffff167f8c5be1e5ebec7d5bd14f71427d1e84f3dd0314c0f7b2291e5b200ac8c7c3b92560405160405180910390a45050565b600061117e8261104e565b6111bd576040517f08c379a00000000000000000000000000000000000000000000000000000000081526004016111b490612b18565b60405180910390fd5b60006111c883610903565b90508073ffffffffffffffffffffffffffffffffffffffff168473ffffffffffffffffffffffffffffffffffffffff16148061123757508373ffffffffffffffffffffffffffffffffffffffff1661121f846105cd565b73ffffffffffffffffffffffffffffffffffffffff16145b8061124857506112478185610f48565b5b91505092915050565b61125c8383836116f5565b600760009054906101000a900473ffffffffffffffffffffffffffffffffffffffff1673ffffffffffffffffffffffffffffffffffffffff1661129d611046565b73ffffffffffffffffffffffffffffffffffffffff161415801561130e5750600760009054906101000a900473ffffffffffffffffffffffffffffffffffffffff1673ffffffffffffffffffffffffffffffffffffffff168273ffffffffffffffffffffffffffffffffffffffff16145b1561131d5761131c81611322565b5b505050565b61132b81611951565b600060066000838152602001908152602001600020805461134b90612f08565b905014611372576006600082815260200190815260200160002060006113719190611dce565b5b50565b611380848484611251565b61138c84848484611a62565b6113cb576040517f08c379a00000000000000000000000000000000000000000000000000000000081526004016113c290612a98565b60405180910390fd5b50505050565b606060405180602001604052806000815250905090565b60606113f38261104e565b611432576040517f08c379a000000000000000000000000000000000000000000000000000000000815260040161142990612c58565b60405180910390fd5b600061143c6113d1565b9050600081511161145c5760405180602001604052806000815250611487565b8061146684611bf9565b6040516020016114779291906129d0565b6040516020818303038152906040525b915050919050565b6001816000016000828254019250508190555050565b600081600001549050919050565b600073ffffffffffffffffffffffffffffffffffffffff168273ffffffffffffffffffffffffffffffffffffffff161415611523576040517f08c379a000000000000000000000000000000000000000000000000000000000815260040161151a90612bb8565b60405180910390fd5b61152c8161104e565b1561156c576040517f08c379a000000000000000000000000000000000000000000000000000000000815260040161156390612ab8565b60405180910390fd5b61157860008383611da6565b6001600360008473ffffffffffffffffffffffffffffffffffffffff1673ffffffffffffffffffffffffffffffffffffffff16815260200190815260200160002060008282546115c89190612d97565b92505081905550816002600083815260200190815260200160002060006101000a81548173ffffffffffffffffffffffffffffffffffffffff021916908373ffffffffffffffffffffffffffffffffffffffff160217905550808273ffffffffffffffffffffffffffffffffffffffff16600073ffffffffffffffffffffffffffffffffffffffff167fddf252ad1be2c89b69c2b068fc378daa952ba7f163c4a11628f55a4df523b3ef60405160405180910390a45050565b61168a8261104e565b6116c9576040517f08c379a00000000000000000000000000000000000000000000000000000000081526004016116c090612b98565b60405180910390fd5b806006600084815260200190815260200160002090805190602001906116f0929190611e0e565b505050565b8273ffffffffffffffffffffffffffffffffffffffff1661171582610903565b73ffffffffffffffffffffffffffffffffffffffff161461176b576040517f08c379a000000000000000000000000000000000000000000000000000000000815260040161176290612c38565b60405180910390fd5b600073ffffffffffffffffffffffffffffffffffffffff168273ffffffffffffffffffffffffffffffffffffffff1614156117db576040517f08c379a00000000000000000000000000000000000000000000000000000000081526004016117d290612ad8565b60405180910390fd5b6117e6838383611da6565b6117f16000826110ba565b6001600360008573ffffffffffffffffffffffffffffffffffffffff1673ffffffffffffffffffffffffffffffffffffffff16815260200190815260200160002060008282546118419190612e1e565b925050819055506001600360008473ffffffffffffffffffffffffffffffffffffffff1673ffffffffffffffffffffffffffffffffffffffff16815260200190815260200160002060008282546118989190612d97565b92505081905550816002600083815260200190815260200160002060006101000a81548173ffffffffffffffffffffffffffffffffffffffff021916908373ffffffffffffffffffffffffffffffffffffffff160217905550808273ffffffffffffffffffffffffffffffffffffffff168473ffffffffffffffffffffffffffffffffffffffff167fddf252ad1be2c89b69c2b068fc378daa952ba7f163c4a11628f55a4df523b3ef60405160405180910390a4505050565b600061195c82610903565b905061196a81600084611da6565b6119756000836110ba565b6001600360008373ffffffffffffffffffffffffffffffffffffffff1673ffffffffffffffffffffffffffffffffffffffff16815260200190815260200160002060008282546119c59190612e1e565b925050819055506002600083815260200190815260200160002060006101000a81549073ffffffffffffffffffffffffffffffffffffffff021916905581600073ffffffffffffffffffffffffffffffffffffffff168273ffffffffffffffffffffffffffffffffffffffff167fddf252ad1be2c89b69c2b068fc378daa952ba7f163c4a11628f55a4df523b3ef60405160405180910390a45050565b6000611a838473ffffffffffffffffffffffffffffffffffffffff16611db6565b15611bec578373ffffffffffffffffffffffffffffffffffffffff1663150b7a02611aac611046565b8786866040518563ffffffff1660e01b8152600401611ace9493929190612a0f565b602060405180830381600087803b158015611ae857600080fd5b505af1925050508015611b1957506040513d601f19601f82011682018060405250810190611b1691906121f4565b60015b611b9c573d8060008114611b49576040519150601f19603f3d011682016040523d82523d6000602084013e611b4e565b606091505b50600081511415611b94576040517f08c379a0000000000000000000000000000000000000000000000000000000008152600401611b8b90612a98565b60405180910390fd5b805181602001fd5b63150b7a0260e01b7bffffffffffffffffffffffffffffffffffffffffffffffffffffffff1916817bffffffffffffffffffffffffffffffffffffffffffffffffffffffff191614915050611bf1565b600190505b949350505050565b60606000821415611c41576040518060400160405280600181526020017f30000000000000000000000000000000000000000000000000000000000000008152509050611da1565b600082905060005b60008214611c73578080611c5c90612f3a565b915050600a82611c6c9190612ded565b9150611c49565b60008167ffffffffffffffff811115611cb5577f4e487b7100000000000000000000000000000000000000000000000000000000600052604160045260246000fd5b6040519080825280601f01601f191660200182016040528015611ce75781602001600182028036833780820191505090505b5090505b60008514611d9a57600182611d009190612e1e565b9150600a85611d0f9190612f83565b6030611d1b9190612d97565b60f81b818381518110611d57577f4e487b7100000000000000000000000000000000000000000000000000000000600052603260045260246000fd5b60200101907effffffffffffffffffffffffffffffffffffffffffffffffffffffffffffff1916908160001a905350600a85611d939190612ded565b9450611ceb565b8093505050505b919050565b611db1838383611dc9565b505050565b600080823b905060008111915050919050565b505050565b508054611dda90612f08565b6000825580601f10611dec5750611e0b565b601f016020900490600052602060002090810190611e0a9190611e94565b5b50565b828054611e1a90612f08565b90600052602060002090601f016020900481019282611e3c5760008555611e83565b82601f10611e5557805160ff1916838001178555611e83565b82800160010185558215611e83579182015b82811115611e82578251825591602001919060010190611e67565b5b509050611e909190611e94565b5090565b5b80821115611ead576000816000905550600101611e95565b5090565b6000611ec4611ebf84612d24565b612cf3565b905082815260208101848484011115611edc57600080fd5b611ee7848285612ec6565b509392505050565b600081359050611efe81613081565b92915050565b600081359050611f1381613098565b92915050565b600081359050611f28816130af565b92915050565b600081519050611f3d816130af565b92915050565b600082601f830112611f5457600080fd5b8135611f64848260208601611eb1565b91505092915050565b60008083601f840112611f7f57600080fd5b8235905067ffffffffffffffff811115611f9857600080fd5b602083019150836001820283011115611fb057600080fd5b9250929050565b600081359050611fc6816130c6565b92915050565b600060208284031215611fde57600080fd5b6000611fec84828501611eef565b91505092915050565b6000806040838503121561200857600080fd5b600061201685828601611eef565b925050602061202785828601611eef565b9150509250929050565b60008060006060848603121561204657600080fd5b600061205486828701611eef565b935050602061206586828701611eef565b925050604061207686828701611fb7565b9150509250925092565b6000806000806080858703121561209657600080fd5b60006120a487828801611eef565b94505060206120b587828801611eef565b93505060406120c687828801611fb7565b925050606085013567ffffffffffffffff8111156120e357600080fd5b6120ef87828801611f43565b91505092959194509250565b6000806040838503121561210e57600080fd5b600061211c85828601611eef565b925050602061212d85828601611f04565b9150509250929050565b60008060006040848603121561214c57600080fd5b600061215a86828701611eef565b935050602084013567ffffffffffffffff81111561217757600080fd5b61218386828701611f6d565b92509250509250925092565b600080604083850312156121a257600080fd5b60006121b085828601611eef565b92505060206121c185828601611fb7565b9150509250929050565b6000602082840312156121dd57600080fd5b60006121eb84828501611f19565b91505092915050565b60006020828403121561220657600080fd5b600061221484828501611f2e565b91505092915050565b60006020828403121561222f57600080fd5b600061223d84828501611fb7565b91505092915050565b61224f81612e52565b82525050565b61225e81612e64565b82525050565b600061226f82612d54565b6122798185612d6a565b9350612289818560208601612ed5565b61229281613070565b840191505092915050565b60006122a882612d5f565b6122b28185612d7b565b93506122c2818560208601612ed5565b6122cb81613070565b840191505092915050565b60006122e182612d5f565b6122eb8185612d8c565b93506122fb818560208601612ed5565b80840191505092915050565b6000612314603283612d7b565b91507f4552433732313a207472616e7366657220746f206e6f6e20455243373231526560008301527f63656976657220696d706c656d656e74657200000000000000000000000000006020830152604082019050919050565b600061237a601c83612d7b565b91507f4552433732313a20746f6b656e20616c7265616479206d696e746564000000006000830152602082019050919050565b60006123ba602483612d7b565b91507f4552433732313a207472616e7366657220746f20746865207a65726f2061646460008301527f72657373000000000000000000000000000000000000000000000000000000006020830152604082019050919050565b6000612420601983612d7b565b91507f4552433732313a20617070726f766520746f2063616c6c6572000000000000006000830152602082019050919050565b6000612460602c83612d7b565b91507f4552433732313a206f70657261746f7220717565727920666f72206e6f6e657860008301527f697374656e7420746f6b656e00000000000000000000000000000000000000006020830152604082019050919050565b60006124c6603883612d7b565b91507f4552433732313a20617070726f76652063616c6c6572206973206e6f74206f7760008301527f6e6572206e6f7220617070726f76656420666f7220616c6c00000000000000006020830152604082019050919050565b600061252c602a83612d7b565b91507f4552433732313a2062616c616e636520717565727920666f7220746865207a6560008301527f726f2061646472657373000000000000000000000000000000000000000000006020830152604082019050919050565b6000612592602983612d7b565b91507f4552433732313a206f776e657220717565727920666f72206e6f6e657869737460008301527f656e7420746f6b656e00000000000000000000000000000000000000000000006020830152604082019050919050565b60006125f8602e83612d7b565b91507f45524337323155524953746f726167653a2055524920736574206f66206e6f6e60008301527f6578697374656e7420746f6b656e0000000000000000000000000000000000006020830152604082019050919050565b600061265e602083612d7b565b91507f4552433732313a206d696e7420746f20746865207a65726f20616464726573736000830152602082019050919050565b600061269e603183612d7b565b91507f45524337323155524953746f726167653a2055524920717565727920666f722060008301527f6e6f6e6578697374656e7420746f6b656e0000000000000000000000000000006020830152604082019050919050565b6000612704602c83612d7b565b91507f4552433732313a20617070726f76656420717565727920666f72206e6f6e657860008301527f697374656e7420746f6b656e00000000000000000000000000000000000000006020830152604082019050919050565b600061276a602483612d7b565b91507f6f6e6c794d696e7465723a2063616c6c6572206973206e6f7420746865206d6960008301527f6e746572000000000000000000000000000000000000000000000000000000006020830152604082019050919050565b60006127d0602983612d7b565b91507f4552433732313a207472616e73666572206f6620746f6b656e2074686174206960008301527f73206e6f74206f776e00000000000000000000000000000000000000000000006020830152604082019050919050565b6000612836602f83612d7b565b91507f4552433732314d657461646174613a2055524920717565727920666f72206e6f60008301527f6e6578697374656e7420746f6b656e00000000000000000000000000000000006020830152604082019050919050565b600061289c602183612d7b565b91507f4552433732313a20617070726f76616c20746f2063757272656e74206f776e6560008301527f72000000000000000000000000000000000000000000000000000000000000006020830152604082019050919050565b6000612902603183612d7b565b91507f4552433732313a207472616e736665722063616c6c6572206973206e6f74206f60008301527f776e6572206e6f7220617070726f7665640000000000000000000000000000006020830152604082019050919050565b6000612968603083612d7b565b91507f4552433732314275726e61626c653a2063616c6c6572206973206e6f74206f7760008301527f6e6572206e6f7220617070726f766564000000000000000000000000000000006020830152604082019050919050565b6129ca81612ebc565b82525050565b60006129dc82856122d6565b91506129e882846122d6565b91508190509392505050565b6000602082019050612a096000830184612246565b92915050565b6000608082019050612a246000830187612246565b612a316020830186612246565b612a3e60408301856129c1565b8181036060830152612a508184612264565b905095945050505050565b6000602082019050612a706000830184612255565b92915050565b60006020820190508181036000830152612a90818461229d565b905092915050565b60006020820190508181036000830152612ab181612307565b9050919050565b60006020820190508181036000830152612ad18161236d565b9050919050565b60006020820190508181036000830152612af1816123ad565b9050919050565b60006020820190508181036000830152612b1181612413565b9050919050565b60006020820190508181036000830152612b3181612453565b9050919050565b60006020820190508181036000830152612b51816124b9565b9050919050565b60006020820190508181036000830152612b718161251f565b9050919050565b60006020820190508181036000830152612b9181612585565b9050919050565b60006020820190508181036000830152612bb1816125eb565b9050919050565b60006020820190508181036000830152612bd181612651565b9050919050565b60006020820190508181036000830152612bf181612691565b9050919050565b60006020820190508181036000830152612c11816126f7565b9050919050565b60006020820190508181036000830152612c318161275d565b9050919050565b60006020820190508181036000830152612c51816127c3565b9050919050565b60006020820190508181036000830152612c7181612829565b9050919050565b60006020820190508181036000830152612c918161288f565b9050919050565b60006020820190508181036000830152612cb1816128f5565b9050919050565b60006020820190508181036000830152612cd18161295b565b9050919050565b6000602082019050612ced60008301846129c1565b92915050565b6000604051905081810181811067ffffffffffffffff82111715612d1a57612d19613041565b5b8060405250919050565b600067ffffffffffffffff821115612d3f57612d3e613041565b5b601f19601f8301169050602081019050919050565b600081519050919050565b600081519050919050565b600082825260208201905092915050565b600082825260208201905092915050565b600081905092915050565b6000612da282612ebc565b9150612dad83612ebc565b9250827fffffffffffffffffffffffffffffffffffffffffffffffffffffffffffffffff03821115612de257612de1612fb4565b5b828201905092915050565b6000612df882612ebc565b9150612e0383612ebc565b925082612e1357612e12612fe3565b5b828204905092915050565b6000612e2982612ebc565b9150612e3483612ebc565b925082821015612e4757612e46612fb4565b5b828203905092915050565b6000612e5d82612e9c565b9050919050565b60008115159050919050565b60007fffffffff0000000000000000000000000000000000000000000000000000000082169050919050565b600073ffffffffffffffffffffffffffffffffffffffff82169050919050565b6000819050919050565b82818337600083830152505050565b60005b83811015612ef3578082015181840152602081019050612ed8565b83811115612f02576000848401525b50505050565b60006002820490506001821680612f2057607f821691505b60208210811415612f3457612f33613012565b5b50919050565b6000612f4582612ebc565b91507fffffffffffffffffffffffffffffffffffffffffffffffffffffffffffffffff821415612f7857612f77612fb4565b5b600182019050919050565b6000612f8e82612ebc565b9150612f9983612ebc565b925082612fa957612fa8612fe3565b5b828206905092915050565b7f4e487b7100000000000000000000000000000000000000000000000000000000600052601160045260246000fd5b7f4e487b7100000000000000000000000000000000000000000000000000000000600052601260045260246000fd5b7f4e487b7100000000000000000000000000000000000000000000000000000000600052602260045260246000fd5b7f4e487b7100000000000000000000000000000000000000000000000000000000600052604160045260246000fd5b6000601f19601f8301169050919050565b61308a81612e52565b811461309557600080fd5b50565b6130a181612e64565b81146130ac57600080fd5b50565b6130b881612e70565b81146130c357600080fd5b50565b6130cf81612ebc565b81146130da57600080fd5b5056fea2646970667358221220646f9c55c6845edf115ab89f7e1017b67c4ee05efcf5cce2caa6f9a411e6162464736f6c63430008000033",
  "immutableReferences": {},
  "source": "// SPDX-License-Identifier: MIT\n\npragma solidity ^0.8.0;\n\nimport \"@openzeppelin/contracts/token/ERC721/extensions/ERC721URIStorage.sol\";\nimport \"@openzeppelin/contracts/utils/Context.sol\";\nimport \"@openzeppelin/contracts/utils/Counters.sol\";\n\ncontract ERC721Minter is Context, ERC721URIStorage {\n    address public current_minter = address(0);\n    using Counters for Counters.Counter;\n    Counters.Counter private _tokenIds;\n\n    modifier onlyMinter() {\n        require(\n            current_minter == _msgSender(),\n            \"onlyMinter: caller is not the minter\"\n        );\n        _;\n    }\n\n    constructor(\n        string memory name,\n        string memory symbol,\n        address minter\n    ) ERC721(name, symbol) {\n        require(minter != address(0), \"ERROR: Zero address\");\n        current_minter = minter;\n    }\n\n    function mint(address player, string calldata tokenURI)\n        external\n        onlyMinter\n        returns (uint256)\n    {\n        _tokenIds.increment();\n\n        uint256 newItemId = _tokenIds.current();\n        _mint(player, newItemId);\n        _setTokenURI(newItemId, tokenURI);\n\n        return newItemId;\n    }\n\n    function burn(uint256 tokenId) external onlyMinter {\n        //solhint-disable-next-line max-line-length\n        require(\n            _isApprovedOrOwner(_msgSender(), tokenId),\n            \"ERC721Burnable: caller is not owner nor approved\"\n        );\n        _burn(tokenId);\n    }\n\n    function replaceMinter(address newMinter) external onlyMinter {\n        current_minter = newMinter;\n    }\n\n    function _transfer(\n        address from,\n        address to,\n        uint256 tokenId\n    ) internal virtual override(ERC721) {\n        super._transfer(from, to, tokenId);\n        if (_msgSender() != current_minter && to == current_minter) {\n            _burn(tokenId);\n        }\n    }\n\n    function _beforeTokenTransfer(\n        address from,\n        address to,\n        uint256 tokenId\n    ) internal virtual override(ERC721) {\n        super._beforeTokenTransfer(from, to, tokenId);\n    }\n}\n",
  "sourcePath": "/Users/terry/go/src/github.com/terry108/multisig/contracts/ERC721Minter.sol",
  "compiler": {
    "name": "solc",
    "version": "0.8.0+commit.c7dfd78e.Emscripten.clang"
  },
  "schemaVersion": "3.4.3",
  "updatedAt": "2021-09-14T09:45:25.173Z",
  "devdoc": {
    "kind": "dev",
    "methods": {
      "approve(address,uint256)": {
        "details": "See {IERC721-approve}."
      },
      "balanceOf(address)": {
        "details": "See {IERC721-balanceOf}."
      },
      "getApproved(uint256)": {
        "details": "See {IERC721-getApproved}."
      },
      "isApprovedForAll(address,address)": {
        "details": "See {IERC721-isApprovedForAll}."
      },
      "name()": {
        "details": "See {IERC721Metadata-name}."
      },
      "ownerOf(uint256)": {
        "details": "See {IERC721-ownerOf}."
      },
      "safeTransferFrom(address,address,uint256)": {
        "details": "See {IERC721-safeTransferFrom}."
      },
      "safeTransferFrom(address,address,uint256,bytes)": {
        "details": "See {IERC721-safeTransferFrom}."
      },
      "setApprovalForAll(address,bool)": {
        "details": "See {IERC721-setApprovalForAll}."
      },
      "supportsInterface(bytes4)": {
        "details": "See {IERC165-supportsInterface}."
      },
      "symbol()": {
        "details": "See {IERC721Metadata-symbol}."
      },
      "tokenURI(uint256)": {
        "details": "See {IERC721Metadata-tokenURI}."
      },
      "transferFrom(address,address,uint256)": {
        "details": "See {IERC721-transferFrom}."
      }
    },
    "version": 1
  },
  "userdoc": {
    "kind": "user",
    "methods": {},
    "version": 1
  }
}