{
  "contractName": "ERC721Minter",
  "abi": [
    {
      "inputs": [
        {
          "internalType": "string",
          "name": "name",
          "type": "string"
        },
        {
          "internalType": "string",
          "name": "symbol",
          "type": "string"
        },
        {
          "internalType": "address",
          "name": "minter",
          "type": "address"
        }
      ],
      "stateMutability": "nonpayable",
      "type": "constructor"
    },
    {
      "anonymous": false,
      "inputs": [
        {
          "indexed": true,
          "internalType": "address",
          "name": "owner",
          "type": "address"
        },
        {
          "indexed": true,
          "internalType": "address",
          "name": "approved",
          "type": "address"
        },
        {
          "indexed": true,
          "internalType": "uint256",
          "name": "tokenId",
          "type": "uint256"
        }
      ],
      "name": "Approval",
      "type": "event"
    },
    {
      "anonymous": false,
      "inputs": [
        {
          "indexed": true,
          "internalType": "address",
          "name": "owner",
          "type": "address"
        },
        {
          "indexed": true,
          "internalType": "address",
          "name": "operator",
          "type": "address"
        },
        {
          "indexed": false,
          "internalType": "bool",
          "name": "approved",
          "type": "bool"
        }
      ],
      "name": "ApprovalForAll",
      "type": "event"
    },
    {
      "anonymous": false,
      "inputs": [
        {
          "indexed": true,
          "internalType": "address",
          "name": "from",
          "type": "address"
        },
        {
          "indexed": true,
          "internalType": "address",
          "name": "to",
          "type": "address"
        },
        {
          "indexed": true,
          "internalType": "uint256",
          "name": "tokenId",
          "type": "uint256"
        }
      ],
      "name": "Transfer",
      "type": "event"
    },
    {
      "inputs": [
        {
          "internalType": "address",
          "name": "to",
          "type": "address"
        },
        {
          "internalType": "uint256",
          "name": "tokenId",
          "type": "uint256"
        }
      ],
      "name": "approve",
      "outputs": [],
      "stateMutability": "nonpayable",
      "type": "function"
    },
    {
      "inputs": [
        {
          "internalType": "address",
          "name": "owner",
          "type": "address"
        }
      ],
      "name": "balanceOf",
      "outputs": [
        {
          "internalType": "uint256",
          "name": "",
          "type": "uint256"
        }
      ],
      "stateMutability": "view",
      "type": "function"
    },
    {
      "inputs": [],
      "name": "current_minter",
      "outputs": [
        {
          "internalType": "address",
          "name": "",
          "type": "address"
        }
      ],
      "stateMutability": "view",
      "type": "function"
    },
    {
      "inputs": [
        {
          "internalType": "uint256",
          "name": "tokenId",
          "type": "uint256"
        }
      ],
      "name": "getApproved",
      "outputs": [
        {
          "internalType": "address",
          "name": "",
          "type": "address"
        }
      ],
      "stateMutability": "view",
      "type": "function"
    },
    {
      "inputs": [
        {
          "internalType": "address",
          "name": "owner",
          "type": "address"
        },
        {
          "internalType": "address",
          "name": "operator",
          "type": "address"
        }
      ],
      "name": "isApprovedForAll",
      "outputs": [
        {
          "internalType": "bool",
          "name": "",
          "type": "bool"
        }
      ],
      "stateMutability": "view",
      "type": "function"
    },
    {
      "inputs": [],
      "name": "name",
      "outputs": [
        {
          "internalType": "string",
          "name": "",
          "type": "string"
        }
      ],
      "stateMutability": "view",
      "type": "function"
    },
    {
      "inputs": [
        {
          "internalType": "uint256",
          "name": "tokenId",
          "type": "uint256"
        }
      ],
      "name": "ownerOf",
      "outputs": [
        {
          "internalType": "address",
          "name": "",
          "type": "address"
        }
      ],
      "stateMutability": "view",
      "type": "function"
    },
    {
      "inputs": [
        {
          "internalType": "address",
          "name": "from",
          "type": "address"
        },
        {
          "internalType": "address",
          "name": "to",
          "type": "address"
        },
        {
          "internalType": "uint256",
          "name": "tokenId",
          "type": "uint256"
        }
      ],
      "name": "safeTransferFrom",
      "outputs": [],
      "stateMutability": "nonpayable",
      "type": "function"
    },
    {
      "inputs": [
        {
          "internalType": "address",
          "name": "from",
          "type": "address"
        },
        {
          "internalType": "address",
          "name": "to",
          "type": "address"
        },
        {
          "internalType": "uint256",
          "name": "tokenId",
          "type": "uint256"
        },
        {
          "internalType": "bytes",
          "name": "_data",
          "type": "bytes"
        }
      ],
      "name": "safeTransferFrom",
      "outputs": [],
      "stateMutability": "nonpayable",
      "type": "function"
    },
    {
      "inputs": [
        {
          "internalType": "address",
          "name": "operator",
          "type": "address"
        },
        {
          "internalType": "bool",
          "name": "approved",
          "type": "bool"
        }
      ],
      "name": "setApprovalForAll",
      "outputs": [],
      "stateMutability": "nonpayable",
      "type": "function"
    },
    {
      "inputs": [
        {
          "internalType": "bytes4",
          "name": "interfaceId",
          "type": "bytes4"
        }
      ],
      "name": "supportsInterface",
      "outputs": [
        {
          "internalType": "bool",
          "name": "",
          "type": "bool"
        }
      ],
      "stateMutability": "view",
      "type": "function"
    },
    {
      "inputs": [],
      "name": "symbol",
      "outputs": [
        {
          "internalType": "string",
          "name": "",
          "type": "string"
        }
      ],
      "stateMutability": "view",
      "type": "function"
    },
    {
      "inputs": [
        {
          "internalType": "uint256",
          "name": "tokenId",
          "type": "uint256"
        }
      ],
      "name": "tokenURI",
      "outputs": [
        {
          "internalType": "string",
          "name": "",
          "type": "string"
        }
      ],
      "stateMutability": "view",
      "type": "function"
    },
    {
      "inputs": [
        {
          "internalType": "address",
          "name": "from",
          "type": "address"
        },
        {
          "internalType": "address",
          "name": "to",
          "type": "address"
        },
        {
          "internalType": "uint256",
          "name": "tokenId",
          "type": "uint256"
        }
      ],
      "name": "transferFrom",
      "outputs": [],
      "stateMutability": "nonpayable",
      "type": "function"
    },
    {
      "inputs": [
        {
          "internalType": "address",
          "name": "player",
          "type": "address"
        },
        {
          "internalType": "string",
          "name": "tokenURI",
          "type": "string"
        }
      ],
      "name": "mint",
      "outputs": [
        {
          "internalType": "uint256",
          "name": "",
          "type": "uint256"
        }
      ],
      "stateMutability": "nonpayable",
      "type": "function"
    },
    {
      "inputs": [
        {
          "internalType": "uint256",
          "name": "tokenId",
          "type": "uint256"
        }
      ],
      "name": "burn",
      "outputs": [],
      "stateMutability": "nonpayable",
      "type": "function"
    },
    {
      "inputs": [
        {
          "internalType": "address",
          "name": "newMinter",
          "type": "address"
        }
      ],
      "name": "replaceMinter",
      "outputs": [],
      "stateMutability": "nonpayable",
      "type": "function"
    }
  ],
  "bytecode": "0x60806040526000600760006101000a81548173ffffffffffffffffffffffffffffffffffffffff021916908373ffffffffffffffffffffffffffffffffffffffff1602179055503480156200005357600080fd5b5060405162003649380380620036498339818101604052810190620000799190620002a5565b82828160009080519060200190620000939291906200016c565b508060019080519060200190620000ac9291906200016c565b505050600073ffffffffffffffffffffffffffffffffffffffff168173ffffffffffffffffffffffffffffffffffffffff16141562000122576040517f08c379a000000000000000000000000000000000000000000000000000000000815260040162000119906200036f565b60405180910390fd5b80600760006101000a81548173ffffffffffffffffffffffffffffffffffffffff021916908373ffffffffffffffffffffffffffffffffffffffff16021790555050505062000521565b8280546200017a9062000473565b90600052602060002090601f0160209004810192826200019e5760008555620001ea565b82601f10620001b957805160ff1916838001178555620001ea565b82800160010185558215620001ea579182015b82811115620001e9578251825591602001919060010190620001cc565b5b509050620001f99190620001fd565b5090565b5b8082111562000218576000816000905550600101620001fe565b5090565b6000620002336200022d84620003c5565b62000391565b9050828152602081018484840111156200024c57600080fd5b620002598482856200043d565b509392505050565b600081519050620002728162000507565b92915050565b600082601f8301126200028a57600080fd5b81516200029c8482602086016200021c565b91505092915050565b600080600060608486031215620002bb57600080fd5b600084015167ffffffffffffffff811115620002d657600080fd5b620002e48682870162000278565b935050602084015167ffffffffffffffff8111156200030257600080fd5b620003108682870162000278565b9250506040620003238682870162000261565b9150509250925092565b60006200033c601383620003f8565b91507f4552524f523a205a65726f2061646472657373000000000000000000000000006000830152602082019050919050565b600060208201905081810360008301526200038a816200032d565b9050919050565b6000604051905081810181811067ffffffffffffffff82111715620003bb57620003ba620004d8565b5b8060405250919050565b600067ffffffffffffffff821115620003e357620003e2620004d8565b5b601f19601f8301169050602081019050919050565b600082825260208201905092915050565b600062000416826200041d565b9050919050565b600073ffffffffffffffffffffffffffffffffffffffff82169050919050565b60005b838110156200045d57808201518184015260208101905062000440565b838111156200046d576000848401525b50505050565b600060028204905060018216806200048c57607f821691505b60208210811415620004a357620004a2620004a9565b5b50919050565b7f4e487b7100000000000000000000000000000000000000000000000000000000600052602260045260246000fd5b7f4e487b7100000000000000000000000000000000000000000000000000000000600052604160045260246000fd5b620005128162000409565b81146200051e57600080fd5b50565b61311880620005316000396000f3fe608060405234801561001057600080fd5b506004361061010b5760003560e01c806342966c68116100a2578063a22cb46511610071578063a22cb465146102b6578063b88d4fde146102d2578063c87b56dd146102ee578063d0def5211461031e578063e985e9c51461034e5761010b565b806342966c681461021c5780636352211e1461023857806370a082311461026857806395d89b41146102985761010b565b8063095ea7b3116100de578063095ea7b3146101aa57806323b872dd146101c65780632e5ed955146101e257806342842e0e146102005761010b565b806301ffc9a71461011057806306fdde031461014057806307f1af441461015e578063081812fc1461017a575b600080fd5b61012a600480360381019061012591906121a0565b61037e565b6040516101379190612a30565b60405180910390f35b610148610460565b6040516101559190612a4b565b60405180910390f35b61017860048036038101906101739190611fa5565b6104f2565b005b610194600480360381019061018f91906121f2565b6105cd565b6040516101a191906129c9565b60405180910390f35b6101c460048036038101906101bf9190612164565b610652565b005b6101e060048036038101906101db919061200a565b61076a565b005b6101ea6107ca565b6040516101f791906129c9565b60405180910390f35b61021a6004803603810190610215919061200a565b6107f0565b005b610236600480360381019061023191906121f2565b610810565b005b610252600480360381019061024d91906121f2565b610903565b60405161025f91906129c9565b60405180910390f35b610282600480360381019061027d9190611fa5565b6109b5565b60405161028f9190612cad565b60405180910390f35b6102a0610a6d565b6040516102ad9190612a4b565b60405180910390f35b6102d060048036038101906102cb91906120d4565b610aff565b005b6102ec60048036038101906102e79190612059565b610c80565b005b610308600480360381019061030391906121f2565b610ce2565b6040516103159190612a4b565b60405180910390f35b61033860048036038101906103339190612110565b610e34565b6040516103459190612cad565b60405180910390f35b61036860048036038101906103639190611fce565b610f03565b6040516103759190612a30565b60405180910390f35b60007f80ac58cd000000000000000000000000000000000000000000000000000000007bffffffffffffffffffffffffffffffffffffffffffffffffffffffff1916827bffffffffffffffffffffffffffffffffffffffffffffffffffffffff1916148061044957507f5b5e139f000000000000000000000000000000000000000000000000000000007bffffffffffffffffffffffffffffffffffffffffffffffffffffffff1916827bffffffffffffffffffffffffffffffffffffffffffffffffffffffff1916145b80610459575061045882610f97565b5b9050919050565b60606000805461046f90612f0d565b80601f016020809104026020016040519081016040528092919081815260200182805461049b90612f0d565b80156104e85780601f106104bd576101008083540402835291602001916104e8565b820191906000526020600020905b8154815290600101906020018083116104cb57829003601f168201915b5050505050905090565b6104fa611001565b73ffffffffffffffffffffffffffffffffffffffff16600760009054906101000a900473ffffffffffffffffffffffffffffffffffffffff1673ffffffffffffffffffffffffffffffffffffffff1614610589576040517f08c379a000000000000000000000000000000000000000000000000000000000815260040161058090612bed565b60405180910390fd5b80600760006101000a81548173ffffffffffffffffffffffffffffffffffffffff021916908373ffffffffffffffffffffffffffffffffffffffff16021790555050565b60006105d882611009565b610617576040517f08c379a000000000000000000000000000000000000000000000000000000000815260040161060e90612bcd565b60405180910390fd5b6004600083815260200190815260200160002060009054906101000a900473ffffffffffffffffffffffffffffffffffffffff169050919050565b600061065d82610903565b90508073ffffffffffffffffffffffffffffffffffffffff168373ffffffffffffffffffffffffffffffffffffffff1614156106ce576040517f08c379a00000000000000000000000000000000000000000000000000000000081526004016106c590612c4d565b60405180910390fd5b8073ffffffffffffffffffffffffffffffffffffffff166106ed611001565b73ffffffffffffffffffffffffffffffffffffffff16148061071c575061071b81610716611001565b610f03565b5b61075b576040517f08c379a000000000000000000000000000000000000000000000000000000000815260040161075290612b0d565b60405180910390fd5b6107658383611075565b505050565b61077b610775611001565b8261112e565b6107ba576040517f08c379a00000000000000000000000000000000000000000000000000000000081526004016107b190612c6d565b60405180910390fd5b6107c583838361120c565b505050565b600760009054906101000a900473ffffffffffffffffffffffffffffffffffffffff1681565b61080b83838360405180602001604052806000815250610c80565b505050565b610818611001565b73ffffffffffffffffffffffffffffffffffffffff16600760009054906101000a900473ffffffffffffffffffffffffffffffffffffffff1673ffffffffffffffffffffffffffffffffffffffff16146108a7576040517f08c379a000000000000000000000000000000000000000000000000000000000815260040161089e90612bed565b60405180910390fd5b6108b86108b2611001565b8261112e565b6108f7576040517f08c379a00000000000000000000000000000000000000000000000000000000081526004016108ee90612c8d565b60405180910390fd5b610900816112dd565b50565b6000806002600084815260200190815260200160002060009054906101000a900473ffffffffffffffffffffffffffffffffffffffff169050600073ffffffffffffffffffffffffffffffffffffffff168173ffffffffffffffffffffffffffffffffffffffff1614156109ac576040517f08c379a00000000000000000000000000000000000000000000000000000000081526004016109a390612b4d565b60405180910390fd5b80915050919050565b60008073ffffffffffffffffffffffffffffffffffffffff168273ffffffffffffffffffffffffffffffffffffffff161415610a26576040517f08c379a0000000000000000000000000000000000000000000000000000000008152600401610a1d90612b2d565b60405180910390fd5b600360008373ffffffffffffffffffffffffffffffffffffffff1673ffffffffffffffffffffffffffffffffffffffff168152602001908152602001600020549050919050565b606060018054610a7c90612f0d565b80601f0160208091040260200160405190810160405280929190818152602001828054610aa890612f0d565b8015610af55780601f10610aca57610100808354040283529160200191610af5565b820191906000526020600020905b815481529060010190602001808311610ad857829003601f168201915b5050505050905090565b610b07611001565b73ffffffffffffffffffffffffffffffffffffffff168273ffffffffffffffffffffffffffffffffffffffff161415610b75576040517f08c379a0000000000000000000000000000000000000000000000000000000008152600401610b6c90612acd565b60405180910390fd5b8060056000610b82611001565b73ffffffffffffffffffffffffffffffffffffffff1673ffffffffffffffffffffffffffffffffffffffff16815260200190815260200160002060008473ffffffffffffffffffffffffffffffffffffffff1673ffffffffffffffffffffffffffffffffffffffff16815260200190815260200160002060006101000a81548160ff0219169083151502179055508173ffffffffffffffffffffffffffffffffffffffff16610c2f611001565b73ffffffffffffffffffffffffffffffffffffffff167f17307eab39ab6107e8899845ad3d59bd9653f200f220920489ca2b5937696c3183604051610c749190612a30565b60405180910390a35050565b610c91610c8b611001565b8361112e565b610cd0576040517f08c379a0000000000000000000000000000000000000000000000000000000008152600401610cc790612c6d565b60405180910390fd5b610cdc84848484611330565b50505050565b6060610ced82611009565b610d2c576040517f08c379a0000000000000000000000000000000000000000000000000000000008152600401610d2390612bad565b60405180910390fd5b6000600660008481526020019081526020016000208054610d4c90612f0d565b80601f0160208091040260200160405190810160405280929190818152602001828054610d7890612f0d565b8015610dc55780601f10610d9a57610100808354040283529160200191610dc5565b820191906000526020600020905b815481529060010190602001808311610da857829003601f168201915b505050505090506000610dd661138c565b9050600081511415610dec578192505050610e2f565b600082511115610e21578082604051602001610e099291906129a5565b60405160208183030381529060405292505050610e2f565b610e2a846113a3565b925050505b919050565b6000610e3e611001565b73ffffffffffffffffffffffffffffffffffffffff16600760009054906101000a900473ffffffffffffffffffffffffffffffffffffffff1673ffffffffffffffffffffffffffffffffffffffff1614610ecd576040517f08c379a0000000000000000000000000000000000000000000000000000000008152600401610ec490612bed565b60405180910390fd5b610ed7600861144a565b6000610ee36008611460565b9050610eef848261146e565b610ef9818461163c565b8091505092915050565b6000600560008473ffffffffffffffffffffffffffffffffffffffff1673ffffffffffffffffffffffffffffffffffffffff16815260200190815260200160002060008373ffffffffffffffffffffffffffffffffffffffff1673ffffffffffffffffffffffffffffffffffffffff16815260200190815260200160002060009054906101000a900460ff16905092915050565b60007f01ffc9a7000000000000000000000000000000000000000000000000000000007bffffffffffffffffffffffffffffffffffffffffffffffffffffffff1916827bffffffffffffffffffffffffffffffffffffffffffffffffffffffff1916149050919050565b600033905090565b60008073ffffffffffffffffffffffffffffffffffffffff166002600084815260200190815260200160002060009054906101000a900473ffffffffffffffffffffffffffffffffffffffff1673ffffffffffffffffffffffffffffffffffffffff1614159050919050565b816004600083815260200190815260200160002060006101000a81548173ffffffffffffffffffffffffffffffffffffffff021916908373ffffffffffffffffffffffffffffffffffffffff160217905550808273ffffffffffffffffffffffffffffffffffffffff166110e883610903565b73ffffffffffffffffffffffffffffffffffffffff167f8c5be1e5ebec7d5bd14f71427d1e84f3dd0314c0f7b2291e5b200ac8c7c3b92560405160405180910390a45050565b600061113982611009565b611178576040517f08c379a000000000000000000000000000000000000000000000000000000000815260040161116f90612aed565b60405180910390fd5b600061118383610903565b90508073ffffffffffffffffffffffffffffffffffffffff168473ffffffffffffffffffffffffffffffffffffffff1614806111f257508373ffffffffffffffffffffffffffffffffffffffff166111da846105cd565b73ffffffffffffffffffffffffffffffffffffffff16145b8061120357506112028185610f03565b5b91505092915050565b6112178383836116b0565b600760009054906101000a900473ffffffffffffffffffffffffffffffffffffffff1673ffffffffffffffffffffffffffffffffffffffff16611258611001565b73ffffffffffffffffffffffffffffffffffffffff16141580156112c95750600760009054906101000a900473ffffffffffffffffffffffffffffffffffffffff1673ffffffffffffffffffffffffffffffffffffffff168273ffffffffffffffffffffffffffffffffffffffff16145b156112d8576112d7816112dd565b5b505050565b6112e68161190c565b600060066000838152602001908152602001600020805461130690612f0d565b90501461132d5760066000828152602001908152602001600020600061132c9190611d89565b5b50565b61133b84848461120c565b61134784848484611a1d565b611386576040517f08c379a000000000000000000000000000000000000000000000000000000000815260040161137d90612a6d565b60405180910390fd5b50505050565b606060405180602001604052806000815250905090565b60606113ae82611009565b6113ed576040517f08c379a00000000000000000000000000000000000000000000000000000000081526004016113e490612c2d565b60405180910390fd5b60006113f761138c565b905060008151116114175760405180602001604052806000815250611442565b8061142184611bb4565b6040516020016114329291906129a5565b6040516020818303038152906040525b915050919050565b6001816000016000828254019250508190555050565b600081600001549050919050565b600073ffffffffffffffffffffffffffffffffffffffff168273ffffffffffffffffffffffffffffffffffffffff1614156114de576040517f08c379a00000000000000000000000000000000000000000000000000000000081526004016114d590612b8d565b60405180910390fd5b6114e781611009565b15611527576040517f08c379a000000000000000000000000000000000000000000000000000000000815260040161151e90612a8d565b60405180910390fd5b61153360008383611d61565b6001600360008473ffffffffffffffffffffffffffffffffffffffff1673ffffffffffffffffffffffffffffffffffffffff16815260200190815260200160002060008282546115839190612d9c565b92505081905550816002600083815260200190815260200160002060006101000a81548173ffffffffffffffffffffffffffffffffffffffff021916908373ffffffffffffffffffffffffffffffffffffffff160217905550808273ffffffffffffffffffffffffffffffffffffffff16600073ffffffffffffffffffffffffffffffffffffffff167fddf252ad1be2c89b69c2b068fc378daa952ba7f163c4a11628f55a4df523b3ef60405160405180910390a45050565b61164582611009565b611684576040517f08c379a000000000000000000000000000000000000000000000000000000000815260040161167b90612b6d565b60405180910390fd5b806006600084815260200190815260200160002090805190602001906116ab929190611dc9565b505050565b8273ffffffffffffffffffffffffffffffffffffffff166116d082610903565b73ffffffffffffffffffffffffffffffffffffffff1614611726576040517f08c379a000000000000000000000000000000000000000000000000000000000815260040161171d90612c0d565b60405180910390fd5b600073ffffffffffffffffffffffffffffffffffffffff168273ffffffffffffffffffffffffffffffffffffffff161415611796576040517f08c379a000000000000000000000000000000000000000000000000000000000815260040161178d90612aad565b60405180910390fd5b6117a1838383611d61565b6117ac600082611075565b6001600360008573ffffffffffffffffffffffffffffffffffffffff1673ffffffffffffffffffffffffffffffffffffffff16815260200190815260200160002060008282546117fc9190612e23565b925050819055506001600360008473ffffffffffffffffffffffffffffffffffffffff1673ffffffffffffffffffffffffffffffffffffffff16815260200190815260200160002060008282546118539190612d9c565b92505081905550816002600083815260200190815260200160002060006101000a81548173ffffffffffffffffffffffffffffffffffffffff021916908373ffffffffffffffffffffffffffffffffffffffff160217905550808273ffffffffffffffffffffffffffffffffffffffff168473ffffffffffffffffffffffffffffffffffffffff167fddf252ad1be2c89b69c2b068fc378daa952ba7f163c4a11628f55a4df523b3ef60405160405180910390a4505050565b600061191782610903565b905061192581600084611d61565b611930600083611075565b6001600360008373ffffffffffffffffffffffffffffffffffffffff1673ffffffffffffffffffffffffffffffffffffffff16815260200190815260200160002060008282546119809190612e23565b925050819055506002600083815260200190815260200160002060006101000a81549073ffffffffffffffffffffffffffffffffffffffff021916905581600073ffffffffffffffffffffffffffffffffffffffff168273ffffffffffffffffffffffffffffffffffffffff167fddf252ad1be2c89b69c2b068fc378daa952ba7f163c4a11628f55a4df523b3ef60405160405180910390a45050565b6000611a3e8473ffffffffffffffffffffffffffffffffffffffff16611d71565b15611ba7578373ffffffffffffffffffffffffffffffffffffffff1663150b7a02611a67611001565b8786866040518563ffffffff1660e01b8152600401611a8994939291906129e4565b602060405180830381600087803b158015611aa357600080fd5b505af1925050508015611ad457506040513d601f19601f82011682018060405250810190611ad191906121c9565b60015b611b57573d8060008114611b04576040519150601f19603f3d011682016040523d82523d6000602084013e611b09565b606091505b50600081511415611b4f576040517f08c379a0000000000000000000000000000000000000000000000000000000008152600401611b4690612a6d565b60405180910390fd5b805181602001fd5b63150b7a0260e01b7bffffffffffffffffffffffffffffffffffffffffffffffffffffffff1916817bffffffffffffffffffffffffffffffffffffffffffffffffffffffff191614915050611bac565b600190505b949350505050565b60606000821415611bfc576040518060400160405280600181526020017f30000000000000000000000000000000000000000000000000000000000000008152509050611d5c565b600082905060005b60008214611c2e578080611c1790612f3f565b915050600a82611c279190612df2565b9150611c04565b60008167ffffffffffffffff811115611c70577f4e487b7100000000000000000000000000000000000000000000000000000000600052604160045260246000fd5b6040519080825280601f01601f191660200182016040528015611ca25781602001600182028036833780820191505090505b5090505b60008514611d5557600182611cbb9190612e23565b9150600a85611cca9190612f88565b6030611cd69190612d9c565b60f81b818381518110611d12577f4e487b7100000000000000000000000000000000000000000000000000000000600052603260045260246000fd5b60200101907effffffffffffffffffffffffffffffffffffffffffffffffffffffffffffff1916908160001a905350600a85611d4e9190612df2565b9450611ca6565b8093505050505b919050565b611d6c838383611d84565b505050565b600080823b905060008111915050919050565b505050565b508054611d9590612f0d565b6000825580601f10611da75750611dc6565b601f016020900490600052602060002090810190611dc59190611e4f565b5b50565b828054611dd590612f0d565b90600052602060002090601f016020900481019282611df75760008555611e3e565b82601f10611e1057805160ff1916838001178555611e3e565b82800160010185558215611e3e579182015b82811115611e3d578251825591602001919060010190611e22565b5b509050611e4b9190611e4f565b5090565b5b80821115611e68576000816000905550600101611e50565b5090565b6000611e7f611e7a84612cf9565b612cc8565b905082815260208101848484011115611e9757600080fd5b611ea2848285612ecb565b509392505050565b6000611ebd611eb884612d29565b612cc8565b905082815260208101848484011115611ed557600080fd5b611ee0848285612ecb565b509392505050565b600081359050611ef781613086565b92915050565b600081359050611f0c8161309d565b92915050565b600081359050611f21816130b4565b92915050565b600081519050611f36816130b4565b92915050565b600082601f830112611f4d57600080fd5b8135611f5d848260208601611e6c565b91505092915050565b600082601f830112611f7757600080fd5b8135611f87848260208601611eaa565b91505092915050565b600081359050611f9f816130cb565b92915050565b600060208284031215611fb757600080fd5b6000611fc584828501611ee8565b91505092915050565b60008060408385031215611fe157600080fd5b6000611fef85828601611ee8565b925050602061200085828601611ee8565b9150509250929050565b60008060006060848603121561201f57600080fd5b600061202d86828701611ee8565b935050602061203e86828701611ee8565b925050604061204f86828701611f90565b9150509250925092565b6000806000806080858703121561206f57600080fd5b600061207d87828801611ee8565b945050602061208e87828801611ee8565b935050604061209f87828801611f90565b925050606085013567ffffffffffffffff8111156120bc57600080fd5b6120c887828801611f3c565b91505092959194509250565b600080604083850312156120e757600080fd5b60006120f585828601611ee8565b925050602061210685828601611efd565b9150509250929050565b6000806040838503121561212357600080fd5b600061213185828601611ee8565b925050602083013567ffffffffffffffff81111561214e57600080fd5b61215a85828601611f66565b9150509250929050565b6000806040838503121561217757600080fd5b600061218585828601611ee8565b925050602061219685828601611f90565b9150509250929050565b6000602082840312156121b257600080fd5b60006121c084828501611f12565b91505092915050565b6000602082840312156121db57600080fd5b60006121e984828501611f27565b91505092915050565b60006020828403121561220457600080fd5b600061221284828501611f90565b91505092915050565b61222481612e57565b82525050565b61223381612e69565b82525050565b600061224482612d59565b61224e8185612d6f565b935061225e818560208601612eda565b61226781613075565b840191505092915050565b600061227d82612d64565b6122878185612d80565b9350612297818560208601612eda565b6122a081613075565b840191505092915050565b60006122b682612d64565b6122c08185612d91565b93506122d0818560208601612eda565b80840191505092915050565b60006122e9603283612d80565b91507f4552433732313a207472616e7366657220746f206e6f6e20455243373231526560008301527f63656976657220696d706c656d656e74657200000000000000000000000000006020830152604082019050919050565b600061234f601c83612d80565b91507f4552433732313a20746f6b656e20616c7265616479206d696e746564000000006000830152602082019050919050565b600061238f602483612d80565b91507f4552433732313a207472616e7366657220746f20746865207a65726f2061646460008301527f72657373000000000000000000000000000000000000000000000000000000006020830152604082019050919050565b60006123f5601983612d80565b91507f4552433732313a20617070726f766520746f2063616c6c6572000000000000006000830152602082019050919050565b6000612435602c83612d80565b91507f4552433732313a206f70657261746f7220717565727920666f72206e6f6e657860008301527f697374656e7420746f6b656e00000000000000000000000000000000000000006020830152604082019050919050565b600061249b603883612d80565b91507f4552433732313a20617070726f76652063616c6c6572206973206e6f74206f7760008301527f6e6572206e6f7220617070726f76656420666f7220616c6c00000000000000006020830152604082019050919050565b6000612501602a83612d80565b91507f4552433732313a2062616c616e636520717565727920666f7220746865207a6560008301527f726f2061646472657373000000000000000000000000000000000000000000006020830152604082019050919050565b6000612567602983612d80565b91507f4552433732313a206f776e657220717565727920666f72206e6f6e657869737460008301527f656e7420746f6b656e00000000000000000000000000000000000000000000006020830152604082019050919050565b60006125cd602e83612d80565b91507f45524337323155524953746f726167653a2055524920736574206f66206e6f6e60008301527f6578697374656e7420746f6b656e0000000000000000000000000000000000006020830152604082019050919050565b6000612633602083612d80565b91507f4552433732313a206d696e7420746f20746865207a65726f20616464726573736000830152602082019050919050565b6000612673603183612d80565b91507f45524337323155524953746f726167653a2055524920717565727920666f722060008301527f6e6f6e6578697374656e7420746f6b656e0000000000000000000000000000006020830152604082019050919050565b60006126d9602c83612d80565b91507f4552433732313a20617070726f76656420717565727920666f72206e6f6e657860008301527f697374656e7420746f6b656e00000000000000000000000000000000000000006020830152604082019050919050565b600061273f602483612d80565b91507f6f6e6c794d696e7465723a2063616c6c6572206973206e6f7420746865206d6960008301527f6e746572000000000000000000000000000000000000000000000000000000006020830152604082019050919050565b60006127a5602983612d80565b91507f4552433732313a207472616e73666572206f6620746f6b656e2074686174206960008301527f73206e6f74206f776e00000000000000000000000000000000000000000000006020830152604082019050919050565b600061280b602f83612d80565b91507f4552433732314d657461646174613a2055524920717565727920666f72206e6f60008301527f6e6578697374656e7420746f6b656e00000000000000000000000000000000006020830152604082019050919050565b6000612871602183612d80565b91507f4552433732313a20617070726f76616c20746f2063757272656e74206f776e6560008301527f72000000000000000000000000000000000000000000000000000000000000006020830152604082019050919050565b60006128d7603183612d80565b91507f4552433732313a207472616e736665722063616c6c6572206973206e6f74206f60008301527f776e6572206e6f7220617070726f7665640000000000000000000000000000006020830152604082019050919050565b600061293d603083612d80565b91507f4552433732314275726e61626c653a2063616c6c6572206973206e6f74206f7760008301527f6e6572206e6f7220617070726f766564000000000000000000000000000000006020830152604082019050919050565b61299f81612ec1565b82525050565b60006129b182856122ab565b91506129bd82846122ab565b91508190509392505050565b60006020820190506129de600083018461221b565b92915050565b60006080820190506129f9600083018761221b565b612a06602083018661221b565b612a136040830185612996565b8181036060830152612a258184612239565b905095945050505050565b6000602082019050612a45600083018461222a565b92915050565b60006020820190508181036000830152612a658184612272565b905092915050565b60006020820190508181036000830152612a86816122dc565b9050919050565b60006020820190508181036000830152612aa681612342565b9050919050565b60006020820190508181036000830152612ac681612382565b9050919050565b60006020820190508181036000830152612ae6816123e8565b9050919050565b60006020820190508181036000830152612b0681612428565b9050919050565b60006020820190508181036000830152612b268161248e565b9050919050565b60006020820190508181036000830152612b46816124f4565b9050919050565b60006020820190508181036000830152612b668161255a565b9050919050565b60006020820190508181036000830152612b86816125c0565b9050919050565b60006020820190508181036000830152612ba681612626565b9050919050565b60006020820190508181036000830152612bc681612666565b9050919050565b60006020820190508181036000830152612be6816126cc565b9050919050565b60006020820190508181036000830152612c0681612732565b9050919050565b60006020820190508181036000830152612c2681612798565b9050919050565b60006020820190508181036000830152612c46816127fe565b9050919050565b60006020820190508181036000830152612c6681612864565b9050919050565b60006020820190508181036000830152612c86816128ca565b9050919050565b60006020820190508181036000830152612ca681612930565b9050919050565b6000602082019050612cc26000830184612996565b92915050565b6000604051905081810181811067ffffffffffffffff82111715612cef57612cee613046565b5b8060405250919050565b600067ffffffffffffffff821115612d1457612d13613046565b5b601f19601f8301169050602081019050919050565b600067ffffffffffffffff821115612d4457612d43613046565b5b601f19601f8301169050602081019050919050565b600081519050919050565b600081519050919050565b600082825260208201905092915050565b600082825260208201905092915050565b600081905092915050565b6000612da782612ec1565b9150612db283612ec1565b9250827fffffffffffffffffffffffffffffffffffffffffffffffffffffffffffffffff03821115612de757612de6612fb9565b5b828201905092915050565b6000612dfd82612ec1565b9150612e0883612ec1565b925082612e1857612e17612fe8565b5b828204905092915050565b6000612e2e82612ec1565b9150612e3983612ec1565b925082821015612e4c57612e4b612fb9565b5b828203905092915050565b6000612e6282612ea1565b9050919050565b60008115159050919050565b60007fffffffff0000000000000000000000000000000000000000000000000000000082169050919050565b600073ffffffffffffffffffffffffffffffffffffffff82169050919050565b6000819050919050565b82818337600083830152505050565b60005b83811015612ef8578082015181840152602081019050612edd565b83811115612f07576000848401525b50505050565b60006002820490506001821680612f2557607f821691505b60208210811415612f3957612f38613017565b5b50919050565b6000612f4a82612ec1565b91507fffffffffffffffffffffffffffffffffffffffffffffffffffffffffffffffff821415612f7d57612f7c612fb9565b5b600182019050919050565b6000612f9382612ec1565b9150612f9e83612ec1565b925082612fae57612fad612fe8565b5b828206905092915050565b7f4e487b7100000000000000000000000000000000000000000000000000000000600052601160045260246000fd5b7f4e487b7100000000000000000000000000000000000000000000000000000000600052601260045260246000fd5b7f4e487b7100000000000000000000000000000000000000000000000000000000600052602260045260246000fd5b7f4e487b7100000000000000000000000000000000000000000000000000000000600052604160045260246000fd5b6000601f19601f8301169050919050565b61308f81612e57565b811461309a57600080fd5b50565b6130a681612e69565b81146130b157600080fd5b50565b6130bd81612e75565b81146130c857600080fd5b50565b6130d481612ec1565b81146130df57600080fd5b5056fea26469706673582212205212683840484db041b0e2a0f4f2139b4cc186217b9c7222a8df4241bcfeab1864736f6c63430008000033",
  "immutableReferences": {},
  "source": "// SPDX-License-Identifier: MIT\n\npragma solidity ^0.8.0;\n\nimport \"@openzeppelin/contracts/token/ERC721/extensions/ERC721URIStorage.sol\";\nimport \"@openzeppelin/contracts/utils/Context.sol\";\nimport \"@openzeppelin/contracts/utils/Counters.sol\";\n\ncontract ERC721Minter is Context, ERC721URIStorage {\n    address public current_minter = address(0);\n    using Counters for Counters.Counter;\n    Counters.Counter private _tokenIds;\n\n    modifier onlyMinter() {\n        require(\n            current_minter == _msgSender(),\n            \"onlyMinter: caller is not the minter\"\n        );\n        _;\n    }\n\n    constructor(\n        string memory name,\n        string memory symbol,\n        address minter\n    ) ERC721(name, symbol) {\n        require(minter != address(0), \"ERROR: Zero address\");\n        current_minter = minter;\n    }\n\n    function mint(address player, string memory tokenURI)\n        external\n        onlyMinter\n        returns (uint256)\n    {\n        _tokenIds.increment();\n\n        uint256 newItemId = _tokenIds.current();\n        _mint(player, newItemId);\n        _setTokenURI(newItemId, tokenURI);\n\n        return newItemId;\n    }\n\n    function burn(uint256 tokenId) external onlyMinter {\n        //solhint-disable-next-line max-line-length\n        require(\n            _isApprovedOrOwner(_msgSender(), tokenId),\n            \"ERC721Burnable: caller is not owner nor approved\"\n        );\n        _burn(tokenId);\n    }\n\n    function replaceMinter(address newMinter) external onlyMinter {\n        current_minter = newMinter;\n    }\n\n    function _transfer(\n        address from,\n        address to,\n        uint256 tokenId\n    ) internal virtual override(ERC721) {\n        super._transfer(from, to, tokenId);\n        if (_msgSender() != current_minter && to == current_minter) {\n            _burn(tokenId);\n        }\n    }\n\n    function _beforeTokenTransfer(\n        address from,\n        address to,\n        uint256 tokenId\n    ) internal virtual override(ERC721) {\n        super._beforeTokenTransfer(from, to, tokenId);\n    }\n}\n",
  "sourcePath": "/Users/terry/go/src/github.com/terry108/multisig/contracts/ERC721Minter.sol",
  "compiler": {
    "name": "solc",
    "version": "0.8.0+commit.c7dfd78e.Emscripten.clang"
  },
  "schemaVersion": "3.4.3",
  "updatedAt": "2021-09-09T02:36:59.171Z",
  "devdoc": {
    "kind": "dev",
    "methods": {
      "approve(address,uint256)": {
        "details": "See {IERC721-approve}."
      },
      "balanceOf(address)": {
        "details": "See {IERC721-balanceOf}."
      },
      "getApproved(uint256)": {
        "details": "See {IERC721-getApproved}."
      },
      "isApprovedForAll(address,address)": {
        "details": "See {IERC721-isApprovedForAll}."
      },
      "name()": {
        "details": "See {IERC721Metadata-name}."
      },
      "ownerOf(uint256)": {
        "details": "See {IERC721-ownerOf}."
      },
      "safeTransferFrom(address,address,uint256)": {
        "details": "See {IERC721-safeTransferFrom}."
      },
      "safeTransferFrom(address,address,uint256,bytes)": {
        "details": "See {IERC721-safeTransferFrom}."
      },
      "setApprovalForAll(address,bool)": {
        "details": "See {IERC721-setApprovalForAll}."
      },
      "supportsInterface(bytes4)": {
        "details": "See {IERC165-supportsInterface}."
      },
      "symbol()": {
        "details": "See {IERC721Metadata-symbol}."
      },
      "tokenURI(uint256)": {
        "details": "See {IERC721Metadata-tokenURI}."
      },
      "transferFrom(address,address,uint256)": {
        "details": "See {IERC721-transferFrom}."
      }
    },
    "version": 1
  },
  "userdoc": {
    "kind": "user",
    "methods": {},
    "version": 1
  }
}