{
  "contractName": "SimpleMultiSig",
  "abi": [
    {
      "inputs": [
        {
          "internalType": "uint16",
          "name": "nonceNum_",
          "type": "uint16"
        },
        {
          "internalType": "uint256",
          "name": "threshold_",
          "type": "uint256"
        },
        {
          "internalType": "address[]",
          "name": "owners_",
          "type": "address[]"
        },
        {
          "internalType": "uint256",
          "name": "chainId",
          "type": "uint256"
        }
      ],
      "stateMutability": "nonpayable",
      "type": "constructor"
    },
    {
      "anonymous": false,
      "inputs": [
        {
          "indexed": true,
          "internalType": "address",
          "name": "_from",
          "type": "address"
        },
        {
          "indexed": false,
          "internalType": "uint256",
          "name": "_value",
          "type": "uint256"
        }
      ],
      "name": "Deposit",
      "type": "event"
    },
    {
      "anonymous": false,
      "inputs": [
        {
          "indexed": false,
          "internalType": "address[]",
          "name": "_confirmAddrs",
          "type": "address[]"
        },
        {
          "indexed": false,
          "internalType": "address",
          "name": "_destination",
          "type": "address"
        },
        {
          "indexed": false,
          "internalType": "uint256",
          "name": "_value",
          "type": "uint256"
        },
        {
          "indexed": false,
          "internalType": "bytes",
          "name": "data",
          "type": "bytes"
        }
      ],
      "name": "Execute",
      "type": "event"
    },
    {
      "stateMutability": "payable",
      "type": "fallback"
    },
    {
      "inputs": [
        {
          "internalType": "uint256",
          "name": "",
          "type": "uint256"
        }
      ],
      "name": "nonceBucket",
      "outputs": [
        {
          "internalType": "uint256",
          "name": "",
          "type": "uint256"
        }
      ],
      "stateMutability": "view",
      "type": "function"
    },
    {
      "inputs": [
        {
          "internalType": "uint256",
          "name": "",
          "type": "uint256"
        }
      ],
      "name": "ownersArr",
      "outputs": [
        {
          "internalType": "address",
          "name": "",
          "type": "address"
        }
      ],
      "stateMutability": "view",
      "type": "function"
    },
    {
      "inputs": [],
      "name": "threshold",
      "outputs": [
        {
          "internalType": "uint256",
          "name": "",
          "type": "uint256"
        }
      ],
      "stateMutability": "view",
      "type": "function"
    },
    {
      "stateMutability": "payable",
      "type": "receive"
    },
    {
      "inputs": [
        {
          "internalType": "uint16",
          "name": "bucketIdx",
          "type": "uint16"
        },
        {
          "internalType": "uint256",
          "name": "expireTime",
          "type": "uint256"
        },
        {
          "internalType": "uint8[]",
          "name": "sigV",
          "type": "uint8[]"
        },
        {
          "internalType": "bytes32[]",
          "name": "sigR",
          "type": "bytes32[]"
        },
        {
          "internalType": "bytes32[]",
          "name": "sigS",
          "type": "bytes32[]"
        },
        {
          "internalType": "address",
          "name": "destination",
          "type": "address"
        },
        {
          "internalType": "uint256",
          "name": "value",
          "type": "uint256"
        },
        {
          "internalType": "bytes",
          "name": "data",
          "type": "bytes"
        },
        {
          "internalType": "address",
          "name": "executor",
          "type": "address"
        },
        {
          "internalType": "uint256",
          "name": "gasLimit",
          "type": "uint256"
        }
      ],
      "name": "execute",
      "outputs": [],
      "stateMutability": "nonpayable",
      "type": "function"
    },
    {
      "inputs": [],
      "name": "getOwersLength",
      "outputs": [
        {
          "internalType": "uint16",
          "name": "",
          "type": "uint16"
        }
      ],
      "stateMutability": "view",
      "type": "function"
    },
    {
      "inputs": [],
      "name": "getBucketLength",
      "outputs": [
        {
          "internalType": "uint16",
          "name": "",
          "type": "uint16"
        }
      ],
      "stateMutability": "view",
      "type": "function"
    },
    {
      "inputs": [],
      "name": "getVersion",
      "outputs": [
        {
          "internalType": "string",
          "name": "version",
          "type": "string"
        }
      ],
      "stateMutability": "pure",
      "type": "function"
    }
  ],
  "bytecode": "0x60806040523480156200001157600080fd5b5060405162001e6538038062001e6583398181016040528101906200003791906200060e565b600a8251111580156200004b575081518311155b8015620000585750600083115b6200009a576040517f08c379a000000000000000000000000000000000000000000000000000000000815260040162000091906200081b565b60405180910390fd5b60008461ffff16118015620000b457506101008461ffff16105b620000f6576040517f08c379a0000000000000000000000000000000000000000000000000000000008152600401620000ed906200083d565b60405180910390fd5b6000805b8351811015620002a9578173ffffffffffffffffffffffffffffffffffffffff1684828151811062000155577f4e487b7100000000000000000000000000000000000000000000000000000000600052603260045260246000fd5b602002602001015173ffffffffffffffffffffffffffffffffffffffff1611620001b6576040517f08c379a0000000000000000000000000000000000000000000000000000000008152600401620001ad90620007f9565b60405180910390fd5b600160026000868481518110620001f6577f4e487b7100000000000000000000000000000000000000000000000000000000600052603260045260246000fd5b602002602001015173ffffffffffffffffffffffffffffffffffffffff1673ffffffffffffffffffffffffffffffffffffffff16815260200190815260200160002060006101000a81548160ff02191690831515021790555083818151811062000289577f4e487b7100000000000000000000000000000000000000000000000000000000600052603260045260246000fd5b602002602001015191508080620002a09062000951565b915050620000fa565b508260039080519060200190620002c292919062000427565b50836001819055508461ffff1667ffffffffffffffff8111156200030f577f4e487b7100000000000000000000000000000000000000000000000000000000600052604160045260246000fd5b6040519080825280602002602001820160405280156200033e5781602001602082028036833780820191505090505b506000908051906020019062000356929190620004b6565b507fd87cd6ef79d4e2b95e15ce8abf732db51ec771f1ca2edccf22a46c729ac5647260001b7fb7a0bfa1b79f2443f4d73ebb9259cddbcd510b18be6fc4da7d1aa7b1786e73e660001b7fc89efdaa54c0f20c7adf612882df0950f5a951637e0307cdcb4c672f298b8bc660001b84307f251543af6a222378665a76fe38dbceae4871a070b7fdaf5c6c30cf758dc33cc060001b60405160200162000400969594939291906200078c565b60405160208183030381529060405280519060200120600481905550505050505062000a4b565b828054828255906000526020600020908101928215620004a3579160200282015b82811115620004a25782518260006101000a81548173ffffffffffffffffffffffffffffffffffffffff021916908373ffffffffffffffffffffffffffffffffffffffff1602179055509160200191906001019062000448565b5b509050620004b2919062000508565b5090565b828054828255906000526020600020908101928215620004f5579160200282015b82811115620004f4578251825591602001919060010190620004d7565b5b50905062000504919062000508565b5090565b5b808211156200052357600081600090555060010162000509565b5090565b60006200053e620005388462000893565b6200085f565b905080838252602082019050828560208602820111156200055e57600080fd5b60005b858110156200059257816200057788826200059c565b84526020840193506020830192505060018101905062000561565b5050509392505050565b600081519050620005ad81620009fd565b92915050565b600082601f830112620005c557600080fd5b8151620005d784826020860162000527565b91505092915050565b600081519050620005f18162000a17565b92915050565b600081519050620006088162000a31565b92915050565b600080600080608085870312156200062557600080fd5b60006200063587828801620005e0565b94505060206200064887828801620005f7565b935050604085015167ffffffffffffffff8111156200066657600080fd5b6200067487828801620005b3565b92505060606200068787828801620005f7565b91505092959194509250565b6200069e81620008e7565b82525050565b620006af8162000929565b82525050565b6000620006c4601783620008c2565b91507f72657065617465645f6f776e65722f756e736f727465640000000000000000006000830152602082019050919050565b600062000706600d83620008c2565b91507f6261645f7468726573686f6c64000000000000000000000000000000000000006000830152602082019050919050565b600062000748600d83620008c2565b91507f6261645f6e6f6e63655f6e756d000000000000000000000000000000000000006000830152602082019050919050565b62000786816200091f565b82525050565b600060c082019050620007a3600083018962000693565b620007b2602083018862000693565b620007c1604083018762000693565b620007d060608301866200077b565b620007df6080830185620006a4565b620007ee60a083018462000693565b979650505050505050565b600060208201905081810360008301526200081481620006b5565b9050919050565b600060208201905081810360008301526200083681620006f7565b9050919050565b60006020820190508181036000830152620008588162000739565b9050919050565b6000604051905081810181811067ffffffffffffffff82111715620008895762000888620009ce565b5b8060405250919050565b600067ffffffffffffffff821115620008b157620008b0620009ce565b5b602082029050602081019050919050565b600082825260208201905092915050565b6000620008e082620008ff565b9050919050565b6000819050919050565b600061ffff82169050919050565b600073ffffffffffffffffffffffffffffffffffffffff82169050919050565b6000819050919050565b600062000936826200093d565b9050919050565b60006200094a82620008ff565b9050919050565b60006200095e826200091f565b91507fffffffffffffffffffffffffffffffffffffffffffffffffffffffffffffffff8214156200099457620009936200099f565b5b600182019050919050565b7f4e487b7100000000000000000000000000000000000000000000000000000000600052601160045260246000fd5b7f4e487b7100000000000000000000000000000000000000000000000000000000600052604160045260246000fd5b62000a0881620008d3565b811462000a1457600080fd5b50565b62000a2281620008f1565b811462000a2e57600080fd5b50565b62000a3c816200091f565b811462000a4857600080fd5b50565b61140a8062000a5b6000396000f3fe6080604052600436106100745760003560e01c8063aa5df9e21161004e578063aa5df9e21461014a578063c3142f4a14610187578063c683a2db146101c4578063ca7541ee146101ef5761007b565b80630d8e6e2c146100cb578063163947e5146100f657806342cde4e81461011f5761007b565b3661007b57005b3373ffffffffffffffffffffffffffffffffffffffff167fe1fffcc4923d04b559f4d29a8bfc6cda04eb5b0d3c460751c2402c5c5cc9109c346040516100c191906110ab565b60405180910390a2005b3480156100d757600080fd5b506100e061021a565b6040516100ed9190610f8e565b60405180910390f35b34801561010257600080fd5b5061011d60048036038101906101189190610a7a565b610257565b005b34801561012b57600080fd5b506101346107fb565b60405161014191906110ab565b60405180910390f35b34801561015657600080fd5b50610171600480360381019061016c9190610bb5565b610801565b60405161017e9190610eb0565b60405180910390f35b34801561019357600080fd5b506101ae60048036038101906101a99190610bb5565b610840565b6040516101bb91906110ab565b60405180910390f35b3480156101d057600080fd5b506101d9610864565b6040516101e69190611090565b60405180910390f35b3480156101fb57600080fd5b50610204610870565b6040516102119190611090565b60405180910390f35b60606040518060400160405280600581526020017f312e302e30000000000000000000000000000000000000000000000000000000815250905090565b60015487511461029c576040517f08c379a000000000000000000000000000000000000000000000000000000000815260040161029390611030565b60405180910390fd5b855187511480156102ae575087518751145b6102ed576040517f08c379a00000000000000000000000000000000000000000000000000000000081526004016102e490611010565b60405180910390fd5b3373ffffffffffffffffffffffffffffffffffffffff168273ffffffffffffffffffffffffffffffffffffffff1614806103535750600073ffffffffffffffffffffffffffffffffffffffff168273ffffffffffffffffffffffffffffffffffffffff16145b610392576040517f08c379a000000000000000000000000000000000000000000000000000000000815260040161038990610fd0565b60405180910390fd5b8842106103d4576040517f08c379a00000000000000000000000000000000000000000000000000000000081526004016103cb90611050565b60405180910390fd5b6000805490508a61ffff161061041f576040517f08c379a000000000000000000000000000000000000000000000000000000000815260040161041690610ff0565b60405180910390fd5b6000808b61ffff168154811061045e577f4e487b7100000000000000000000000000000000000000000000000000000000600052603260045260246000fd5b9060005260206000200154905060007f3ee892349ae4bbe61dce18f95115b5dc02daf49204cc602458cd4c1f540d56d760001b8b888888805190602001208689896040516020016104b6989796959493929190610ecb565b6040516020818303038152906040528051906020012090506000600454826040516020016104e5929190610e79565b6040516020818303038152906040528051906020012090506000805b6001548110156106f85760006001848f8481518110610549577f4e487b7100000000000000000000000000000000000000000000000000000000600052603260045260246000fd5b60200260200101518f858151811061058a577f4e487b7100000000000000000000000000000000000000000000000000000000600052603260045260246000fd5b60200260200101518f86815181106105cb577f4e487b7100000000000000000000000000000000000000000000000000000000600052603260045260246000fd5b6020026020010151604051600081526020016040526040516105f09493929190610f49565b6020604051602081039080840390855afa158015610612573d6000803e3d6000fd5b5050506020604051035190508273ffffffffffffffffffffffffffffffffffffffff168173ffffffffffffffffffffffffffffffffffffffff161180156106a25750600260008273ffffffffffffffffffffffffffffffffffffffff1673ffffffffffffffffffffffffffffffffffffffff16815260200190815260200160002060009054906101000a900460ff165b6106e1576040517f08c379a00000000000000000000000000000000000000000000000000000000081526004016106d890611070565b60405180910390fd5b8092505080806106f09061129f565b915050610501565b50600160008f61ffff1681548110610739577f4e487b7100000000000000000000000000000000000000000000000000000000600052603260045260246000fd5b906000526020600020015461074e91906111a6565b60008f61ffff168154811061078c577f4e487b7100000000000000000000000000000000000000000000000000000000600052603260045260246000fd5b906000526020600020018190555060008080895160208b018c8e8bf19050806107ea576040517f08c379a00000000000000000000000000000000000000000000000000000000081526004016107e190610fb0565b60405180910390fd5b505050505050505050505050505050565b60015481565b6003818154811061081157600080fd5b906000526020600020016000915054906101000a900473ffffffffffffffffffffffffffffffffffffffff1681565b6000818154811061085057600080fd5b906000526020600020016000915090505481565b60008080549050905090565b6000600380549050905090565b600061089061088b846110f7565b6110c6565b905080838252602082019050828560208602820111156108af57600080fd5b60005b858110156108df57816108c588826109fc565b8452602084019350602083019250506001810190506108b2565b5050509392505050565b60006108fc6108f784611123565b6110c6565b9050808382526020820190508285602086028201111561091b57600080fd5b60005b8581101561094b57816109318882610a65565b84526020840193506020830192505060018101905061091e565b5050509392505050565b60006109686109638461114f565b6110c6565b90508281526020810184848401111561098057600080fd5b61098b84828561125d565b509392505050565b6000813590506109a281611361565b92915050565b600082601f8301126109b957600080fd5b81356109c984826020860161087d565b91505092915050565b600082601f8301126109e357600080fd5b81356109f38482602086016108e9565b91505092915050565b600081359050610a0b81611378565b92915050565b600082601f830112610a2257600080fd5b8135610a32848260208601610955565b91505092915050565b600081359050610a4a8161138f565b92915050565b600081359050610a5f816113a6565b92915050565b600081359050610a74816113bd565b92915050565b6000806000806000806000806000806101408b8d031215610a9a57600080fd5b6000610aa88d828e01610a3b565b9a50506020610ab98d828e01610a50565b99505060408b013567ffffffffffffffff811115610ad657600080fd5b610ae28d828e016109d2565b98505060608b013567ffffffffffffffff811115610aff57600080fd5b610b0b8d828e016109a8565b97505060808b013567ffffffffffffffff811115610b2857600080fd5b610b348d828e016109a8565b96505060a0610b458d828e01610993565b95505060c0610b568d828e01610a50565b94505060e08b013567ffffffffffffffff811115610b7357600080fd5b610b7f8d828e01610a11565b935050610100610b918d828e01610993565b925050610120610ba38d828e01610a50565b9150509295989b9194979a5092959850565b600060208284031215610bc757600080fd5b6000610bd584828501610a50565b91505092915050565b610be7816111fc565b82525050565b610bf68161120e565b82525050565b610c0d610c088261120e565b6112e8565b82525050565b6000610c1e8261117f565b610c28818561118a565b9350610c3881856020860161126c565b610c4181611350565b840191505092915050565b6000610c59600b8361118a565b91507f63616c6c5f6661696c65640000000000000000000000000000000000000000006000830152602082019050919050565b6000610c9960028361119b565b91507f19010000000000000000000000000000000000000000000000000000000000006000830152600282019050919050565b6000610cd9600c8361118a565b91507f6261645f6578656375746f7200000000000000000000000000000000000000006000830152602082019050919050565b6000610d1960138361118a565b91507f6275636b65745f6f75745f6f665f72616e6765000000000000000000000000006000830152602082019050919050565b6000610d59600d8361118a565b91507f6261645f6c656e5f722f732f76000000000000000000000000000000000000006000830152602082019050919050565b6000610d9960098361118a565b91507f6261645f725f6c656e00000000000000000000000000000000000000000000006000830152602082019050919050565b6000610dd9600c8361118a565b91507f74696d655f6578706972656400000000000000000000000000000000000000006000830152602082019050919050565b6000610e1960078361118a565b91507f6261645f736967000000000000000000000000000000000000000000000000006000830152602082019050919050565b610e5581611218565b82525050565b610e6481611246565b82525050565b610e7381611250565b82525050565b6000610e8482610c8c565b9150610e908285610bfc565b602082019150610ea08284610bfc565b6020820191508190509392505050565b6000602082019050610ec56000830184610bde565b92915050565b600061010082019050610ee1600083018b610bed565b610eee602083018a610e5b565b610efb6040830189610bde565b610f086060830188610e5b565b610f156080830187610bed565b610f2260a0830186610e5b565b610f2f60c0830185610bde565b610f3c60e0830184610e5b565b9998505050505050505050565b6000608082019050610f5e6000830187610bed565b610f6b6020830186610e6a565b610f786040830185610bed565b610f856060830184610bed565b95945050505050565b60006020820190508181036000830152610fa88184610c13565b905092915050565b60006020820190508181036000830152610fc981610c4c565b9050919050565b60006020820190508181036000830152610fe981610ccc565b9050919050565b6000602082019050818103600083015261100981610d0c565b9050919050565b6000602082019050818103600083015261102981610d4c565b9050919050565b6000602082019050818103600083015261104981610d8c565b9050919050565b6000602082019050818103600083015261106981610dcc565b9050919050565b6000602082019050818103600083015261108981610e0c565b9050919050565b60006020820190506110a56000830184610e4c565b92915050565b60006020820190506110c06000830184610e5b565b92915050565b6000604051905081810181811067ffffffffffffffff821117156110ed576110ec611321565b5b8060405250919050565b600067ffffffffffffffff82111561111257611111611321565b5b602082029050602081019050919050565b600067ffffffffffffffff82111561113e5761113d611321565b5b602082029050602081019050919050565b600067ffffffffffffffff82111561116a57611169611321565b5b601f19601f8301169050602081019050919050565b600081519050919050565b600082825260208201905092915050565b600081905092915050565b60006111b182611246565b91506111bc83611246565b9250827fffffffffffffffffffffffffffffffffffffffffffffffffffffffffffffffff038211156111f1576111f06112f2565b5b828201905092915050565b600061120782611226565b9050919050565b6000819050919050565b600061ffff82169050919050565b600073ffffffffffffffffffffffffffffffffffffffff82169050919050565b6000819050919050565b600060ff82169050919050565b82818337600083830152505050565b60005b8381101561128a57808201518184015260208101905061126f565b83811115611299576000848401525b50505050565b60006112aa82611246565b91507fffffffffffffffffffffffffffffffffffffffffffffffffffffffffffffffff8214156112dd576112dc6112f2565b5b600182019050919050565b6000819050919050565b7f4e487b7100000000000000000000000000000000000000000000000000000000600052601160045260246000fd5b7f4e487b7100000000000000000000000000000000000000000000000000000000600052604160045260246000fd5b6000601f19601f8301169050919050565b61136a816111fc565b811461137557600080fd5b50565b6113818161120e565b811461138c57600080fd5b50565b61139881611218565b81146113a357600080fd5b50565b6113af81611246565b81146113ba57600080fd5b50565b6113c681611250565b81146113d157600080fd5b5056fea26469706673582212209781737a49c70ef26d8f112dd3b4681657245c4db02ab237321faf2ccafb148264736f6c63430008000033",
  "immutableReferences": {},
  "source": "// SPDX-License-Identifier: MIT\n\npragma solidity ^0.8.0;\n\ncontract SimpleMultiSig {\n    // EIP712 Precomputed hashes:\n    // keccak256(\"EIP712Domain(string name,string version,uint256 chainId,address verifyingContract,bytes32 salt)\")\n    bytes32 constant EIP712DOMAINTYPE_HASH =\n        0xd87cd6ef79d4e2b95e15ce8abf732db51ec771f1ca2edccf22a46c729ac56472;\n\n    // keccak256(\"Simple MultiSig\")\n    bytes32 constant NAME_HASH =\n        0xb7a0bfa1b79f2443f4d73ebb9259cddbcd510b18be6fc4da7d1aa7b1786e73e6;\n\n    // keccak256(\"1\")\n    bytes32 constant VERSION_HASH =\n        0xc89efdaa54c0f20c7adf612882df0950f5a951637e0307cdcb4c672f298b8bc6;\n\n    // keccak256(\"MultiSigTransaction(address destination,uint256 value,bytes data,uint256 nonce,address executor,uint256 gasLimit)\")\n    bytes32 constant TXTYPE_HASH =\n        0x3ee892349ae4bbe61dce18f95115b5dc02daf49204cc602458cd4c1f540d56d7;\n\n    bytes32 constant SALT =\n        0x251543af6a222378665a76fe38dbceae4871a070b7fdaf5c6c30cf758dc33cc0;\n\n    event Execute(\n        address[] _confirmAddrs,\n        address _destination,\n        uint256 _value,\n        bytes data\n    );\n    event Deposit(address indexed _from, uint256 _value);\n\n    uint256[] public nonceBucket; //(only) mutable state\n    uint256 public threshold; // immutable state\n    mapping(address => bool) isOwner; // immutable state\n    address[] public ownersArr; // immutable state\n\n    bytes32 DOMAIN_SEPARATOR; // hash for EIP712, computed from contract address\n\n    // Note that owners_ must be strictly increasing, in order to prevent duplicates\n    constructor(\n        uint16 nonceNum_,\n        uint256 threshold_,\n        address[] memory owners_,\n        uint256 chainId\n    ) public {\n        require(\n            owners_.length <= 10 &&\n                threshold_ <= owners_.length &&\n                threshold_ > 0,\n            \"bad_threshold\"\n        );\n        require(nonceNum_ > 0 && nonceNum_ < 256, \"bad_nonce_num\");\n\n        address lastAdd = address(0);\n        for (uint256 i = 0; i < owners_.length; i++) {\n            require(owners_[i] > lastAdd, \"repeated_owner/unsorted\");\n            isOwner[owners_[i]] = true;\n            lastAdd = owners_[i];\n        }\n        ownersArr = owners_;\n        threshold = threshold_;\n        nonceBucket = new uint256[](nonceNum_);\n\n        DOMAIN_SEPARATOR = keccak256(\n            abi.encode(\n                EIP712DOMAINTYPE_HASH,\n                NAME_HASH,\n                VERSION_HASH,\n                chainId,\n                this,\n                SALT\n            )\n        );\n    }\n\n    // Note that address recovered from signatures must be strictly increasing, in order to prevent duplicates\n    function execute(\n        uint16 bucketIdx,\n        uint256 expireTime,\n        uint8[] memory sigV,\n        bytes32[] memory sigR,\n        bytes32[] memory sigS,\n        address destination,\n        uint256 value,\n        bytes memory data,\n        address executor,\n        uint256 gasLimit\n    ) public {\n        require(sigR.length == threshold, \"bad_r_len\");\n        require(\n            sigR.length == sigS.length && sigR.length == sigV.length,\n            \"bad_len_r/s/v\"\n        );\n        require(\n            executor == msg.sender || executor == address(0),\n            \"bad_executor\"\n        );\n        require(block.timestamp < expireTime, \"time_expired\");\n        require(bucketIdx < nonceBucket.length, \"bucket_out_of_range\");\n\n        // EIP712 scheme: https://github.com/ethereum/EIPs/blob/master/EIPS/eip-712.md\n        uint256 nonce = nonceBucket[bucketIdx];\n        bytes32 txInputHash = keccak256(\n            abi.encode(\n                TXTYPE_HASH,\n                expireTime,\n                destination,\n                value,\n                keccak256(data),\n                nonce,\n                executor,\n                gasLimit\n            )\n        );\n        bytes32 totalHash = keccak256(\n            abi.encodePacked(\"\\x19\\x01\", DOMAIN_SEPARATOR, txInputHash)\n        ); //\\x19\\x01 => []byte{25, 01}\n\n        // emit DbgExecuteParam(DOMAIN_SEPARATOR, txInputHash, totalHash, abi.encode(TXTYPE_HASH, destination, value, keccak256(data), nonce, executor, gasLimit));\n\n        address lastAdd = address(0); // cannot have address(0) as an owner\n        // address[] memory confirmAddrs = new address[](threshold);\n        for (uint256 i = 0; i < threshold; i++) {\n            address recovered = ecrecover(totalHash, sigV[i], sigR[i], sigS[i]);\n            require(recovered > lastAdd && isOwner[recovered], \"bad_sig\");\n            // confirmAddrs[i] = recovered;\n            lastAdd = recovered;\n        }\n\n        // If we make it here all signatures are accounted for.\n        // The address.call() syntax is no longer recommended, see:\n        // https://github.com/ethereum/solidity/issues/2884\n        nonceBucket[bucketIdx] = nonceBucket[bucketIdx] + 1;\n        bool success = false;\n        assembly {\n            success := call(\n                gasLimit,\n                destination,\n                value,\n                add(data, 0x20),\n                mload(data),\n                0,\n                0\n            )\n        }\n        require(success, \"call_failed\");\n        // emit Execute(confirmAddrs, destination, value, data);\n    }\n\n    function getOwersLength() external view returns (uint16) {\n        return uint16(ownersArr.length); //owners.length <= 10 (see constructor), so type convert is ok\n    }\n\n    function getBucketLength() external view returns (uint16) {\n        return uint16(nonceBucket.length); //nonceBucket.length <= 256 (see constructor), so type convert is ok\n    }\n\n    function getVersion() external pure returns (string memory version) {\n        return \"1.0.0\";\n    }\n\n    receive() external payable {}\n\n    fallback() external payable {\n        emit Deposit(msg.sender, msg.value);\n    }\n}\n",
  "sourcePath": "/Users/terry/go/src/github.com/terry108/multisig/contracts/SimpleMultiSig.sol",
  "compiler": {
    "name": "solc",
    "version": "0.8.0+commit.c7dfd78e.Emscripten.clang"
  },
  "schemaVersion": "3.4.3",
  "updatedAt": "2021-09-09T02:36:59.180Z",
  "devdoc": {
    "kind": "dev",
    "methods": {},
    "version": 1
  },
  "userdoc": {
    "kind": "user",
    "methods": {},
    "version": 1
  }
}